:100C350041485431302DCEC2B6C83A00202020207C
:100C450000CAAAB6C83A000D0A004C617374206D3B
:100C55006F64653A506F776572204F666621004C68
:100C6500617374206D6F64653A4465657020536CDB
:100C750065657021004C617374206D6F64653A4D34
:100C8500656D6F727920526574656E74696F6E2C2F
:100C95002054696D6572204F666621004C6173743E
:100CA500206D6F64653A4D656D6F7279205265747C
:100CB500656E74696F6E2C2054696D6572204F6E78
:100CC50021004C617374206D6F64653A52656769E4
:100CD5007374657220526574656E74696F6E210058
:100CE5004572726F72204F72205265736572766518
:100CF50064210050726F6772616D20737461727444
:100D0500696E672E2E2E0D0A00696E746F2052458E
:100D1500475245540A00696E746F20444545505347
:060D25004C4545500A0098
:071F91008500E7E7E7E7E741
:06206200E4F593F5942261
:0B1F8600786DEBF208EAF208E9F222A5
:100026007F0E121E21E4FF121F4AE4FF121E8FE408
:10003600FF121E31E4FF121E417F03121E9E7F0136
:04004600121E612203
:1017F8007863EEF208EFF2C3E2940A18E29400501C
:101808001BE2FE08E2FFE4FCFDFBFA7901F8C312D3
:10181800043F500878637480F208E4F2E4FF121F72
:10182800B27F01121FB27864E224FFFF18E234FF8E
:05183800FE121DA522B7
:10183D00D2EA7FFF1213A8E4FDFF121080E4FF121D
:10184D001B687F32121D907F021218C27F03121C7B
:10185D00047F021218817BFE7A0079007F06121632
:10186D00D57DDC7C05E4FF121C277F01121B91D274
:04187D00B9D2AF220B
:101A0800E4FF121FB27F01121F3E7F03121EADE4D6
:101A1800FFFE1217F87F02121E11E4FF121E017F4B
:0F1A280001121FB2E5AD20E7FBE5AD30E7FB2271
:10122E00E49000CAF09000A1741EF09000C1E0900E
:10123E0000A2F09000C2E09000A3F09000C3E090F6
:10124E0000A4F09000C4E09000A5F09000C5E090DE
:10125E0000A6F09000C6E09000A7F09000C7E090C6
:10126E0000A8F09000C8E09000A9F0E49000CBF048
:10127E009000CBE0C394095018E024A1F582E43429
:10128E0000F583E0FF9000CAE02FF0A3E004F080A9
:10129E00DF9000CAE0FFC3E49FFF7401940090004A
:0312AE00AAEFF0B4
:0112B100221A
:1009EC0078631204980000000078671204980000E5
:1009FC000000121F6212208CEF70FA1220C59000BA
:100A0C00C3EFF01220C29000C4EFF01220C5E478BE
:100A1C0063E2FB08E2F908E2FA08E2CBF8EB4FFFDD
:100A2C00EAFEE9FDE8FC7808120479786312048C7C
:100A3C001220C2E47863E2FB08E2F908E2FA08E269
:100A4C00CBF8EB4FFFEAFEE9FDE8FC786312048C6F
:100A5C007863E2FC08E2FD08E2FE08E2FFE4120122
:100A6C00F4E4FBFA79B4784312004EE4FBFA798093
:100A7C007845120157120232786712048CE47B64B9
:100A8C00FAF9F8C0007867E2FC08E2FD08E2FE081B
:100A9C00E2FFD00012039F9000C3EFF0E47B64FAF6
:100AAC00F9F8C0007867E2FC08E2FD08E2FE08E213
:100ABC00FFD00012039FAC00AD01AE02AF03E47B8C
:100ACC000AFAF9F812039F7804120479C004C005DD
:100ADC00C006C007E47B64FAF9F8C0007867E2FC52
:100AEC0008E2FD08E2FE08E2FFD00012039FAC0012
:100AFC00AD01AE02AF03E47B0AFAF9F812039FAC26
:100B0C0000AD01AE02AF03D003D002D001D000EF94
:0D0B1C004BFFEE4AED49EC489000C4EFF0AD
:010B290022A9
:100FD2007E007F057D007BFE7A0079631204B17E7C
:100FE200007F057D007BFE7A0079681204B1786586
:100FF200742EF2786AF21205327808E29000C5F097
:1010020008E2A3F008E2A3F008E2A3F07808E2FF06
:10101200C4540F24307863F27808E2540F243078F5
:1010220064F27809E2FFC4540F24307866F290002B
:10103200C7E0FFC4540F24307868F2E0540F243024
:1010420008F2A3E0FFC4540F2430786BF27BFF7ADE
:101052000C7935121F861B7A007963121F860B7A70
:101062000C7941121F867A0C7946121F861B7A0070
:0D1072007968121F860B7A0C794C121F86CC
:01107F00224E
:0E19A50012122E7B017A0079A17D0A12200F0A
:1019B30078637414F2D2E87863E2FF14F2EF70F7FD
:0219C300C2E878
:1019C5009000C97401F09000C9E070FAE4FF121CA0
:0219D500A92245
:10163300E5A45407FF14601714601E14602514609A
:101643002C240470327BFF7A0C794F121F86227B85
:10165300FF7A0C7964121F86227BFF7A0C797A1247
:101663001F86227BFF7A0C79A1121F86227BFF7AC9
:101673000C79C7121F86227BFF7A0C79E5121F862D
:011683002244
:0F1E710075AE04E4F5CF75CE04439404D29222EB
:10158A00EF24FE60111460151460192403701C788E
:10159A00637401F2801978637402F28012786374BA
:1015AA0003F2800B78637404F28004E47863F278BF
:1015BA0063E2B401057F01121E117863E2640160DF
:1015CA0009E264026004E2B4030343AE027863E210
:0515DA00F5A4E4F5A4F6
:0115DF0022E9
:100E2000E4785EF208120498000000009000C1749B
:100E300003F0A374E8F0122062121E711220B312A4
:100E400020B7121A0812002612111412183D7BFF47
:100E50007A0C79F8121F861216331209EC120FD28F
:100E60001219A520921F7F647E00121AC1209215CC
:100E7000E4785EF208120498000000001209EC12F7
:100E80000FD21219A5785EE2D3941E5013E204F239
:100E90007F0412158A7BFF7A0D790E121F8680C39C
:100EA000E4785EF208E2FC08E2FD08E2FE08E2FFF8
:100EB000E4FAF9F8EF2401FFEA3EFEE93DFDE83CE3
:100EC000FC785F12048CE47FA07E05FDFC785FE275
:100ED000FB08E2F908E2FA08E2CBF8C31204557005
:100EE0000E7BFF7A0D791B121F867F0112158A1265
:080EF0000FD21219A5020E63D6
:010EF80022D7
:03004B0002132F6E
:10132F00C0E0C0F0C083C082C0D075D000C000C084
:0D133F0001C002C003C004C005C006C00705
:10134C00121F6E7850EFF2E230E61D121FE7EF70BD
:10135C00127B017A0079811220A47805EEF208EF55
:10136C00F280E89000C9E4F07850E230E505900096
:10137C00C9E4F07850E230E4089000C9E4F012209F
:01138C003729
:10138D00D007D006D005D004D003D002D001D000B4
:0B139D00D0D0D082D083D0F0D0E0325E
:031F9800810700BE
:0C1F1A00C2807FF47E01121AC1D2802226
:062068005394DFD2952223
:06206E005394DFC295222D
:0420AF004394202214
:062074005394EFD2942208
:06207A005394EFC2942212
:0B1F9C005394EFD2945394DFD29522AF
:101B3F001220687F087E00121E801220747F087E9C
:101B4F0000121E8012206E7F087E00121E8012204F
:091B5F007A7F087E00121E80222C
:10152E00787EEFF278807480F2E418F2787FE2C36E
:10153E009408503312207A7F037E00121E80787E2C
:10154E00E2FF7880E25F6005122068800312206E51
:10155E001220747F037E00121E80787EE2FF25E04B
:10156E00F208E204F280C512207A7F087E00121E75
:0B157E00801220AF7F087E00121E804C
:01158900223F
:1014D100E4787EF212207A1220AF7F08FE121E807D
:1014E100E4787FF2787FE2C3940850321220747F4F
:1014F100017E00121E80E47880F230950204F278B9
:101501007EE2FF25E0FF7880E24F787EF212207ABA
:101511007F087E00121E80787FE204F280C61220CE
:0C152100AF7F087E00121E80787EE2FF83
:01152D00229B
:10168400E4787EF208F212207A1220AF7F08FE126C
:101694001E801220747F087E00121E80309518C3AD
:1016A400787FE2946418E29400500C08E22401F27A
:1016B40018E23400F280E5787FE26464700218E294
:1016C4007002FF2212207A7F087E00121E807F01A2
:0116D40022F3
:10193F0012207A7F087E00121E8012206E7F087E92
:10194F0000121E801220747F087E00121E8012204B
:10195F007A7F087E00121E801220AF7F087E001251
:03196F001E8022B5
:1019720012207A7F087E00121E801220687F087E65
:1019820000121E801220747F087E00121E80122018
:101992007A7F087E00121E8012206E7F087E00125F
:0319A2001E802282
:101C8A0012206E7F087E00121E801220747F087E4A
:0F1C9A0000121E801220687F087E00121E80221A
:101CE600121B3F7F7112152E1216841214D1787DA5
:0C1CF600EFF2121972121C8A787DE2FFD6
:011D020022BE
:101D1D00E4787CF2121CE6787CEFF2E25468B408A9
:061D2D00037F01227F008C
:011D3300228D
:101BBA00121B3F7F7012152E1216847FAC12152E3F
:101BCA001216847F3312152E121684E4FF12152E74
:071BDA00121684121C8A227E
:101D3400121B3F7F7012152E1216847FBA12152EB5
:071D4400121684121C8A2212
:10053200E4786DF208F208F208F208F208F2081202
:10054200049800000000E47877F208F208F208F25A
:10055200121D1DEF700C1211147F1E7E00121AC1A3
:1005620080EE121BBA7F4B7E00121AC1E47879F238
:1005720008F2121CE6EF30E7227FE47E05121E80AD
:10058200787908E2FF2401F218E2FE3400F2C3EFA8
:100592009464EE940040DB800280D7121B3F7F718F
:1005A20012152E1216841214D1786DEFF212193F21
:1005B2001214D1786EEFF212193F1214D1786FEF44
:1005C200F212193F1214D17870EFF212193F12147D
:1005D200D17871EFF212193F1214D17872EFF21240
:1005E2001972121C8A786EE2FFE47873E2FB08E269
:1005F200F908E2FA08E2CBF8EB4FFFEAFEE9FDE880
:10060200FC7808120479787312048C786FE2FFE4A4
:100612007873E2FB08E2F908E2FA08E2CBF8EB4F62
:10062200FFEAFEE9FDE8FC78081204797873120407
:100632008C7870E2FFE47873E2FB08E2F908E2FAF0
:1006420008E2CBF8EB4FFFEAFEE9FDE8FC78731213
:10065200048C7873E2FC08E2FD08E2FE08E2FF780F
:1006620004120466787312048CE47FE87E03FDFCB6
:100672007873E2FB08E2F908E2FA08E2CBF8120327
:1006820014E4FB7A04F9F812039FE4FB7A04F9F804
:1006920012039F7877EEF208EFF218E2FE08E2FF0B
:1006A2007C007D641202DE7E007F0ACFCDCFCECCED
:1006B200CE1202DEAB077877E2FE08E2FF7C007D15
:1006C200641202DEEFC454F04B780AF27877E2FE4D
:1006D20008E2FF7C007D641202DE7E007F0ACFCD3D
:1006E200CFCECCCE1202DEEDC4F8540FC868FFECB8
:1006F200C454F048780BEFF27873120498000000AB
:10070200007870E2FFE47873E2FB08E2F908E2FAAB
:1007120008E2CBF8EB4FFFEAFEE9FDE8FC780812AD
:100722000479787312048C7871E2FFE47873E2FB47
:1007320008E2F908E2FA08E2CBF8EB4FFFEAFEE939
:10074200FDE8FC7808120479787312048C7872E25E
:10075200FFE408E2FB08E2F908E2FA08E2CBF8EB70
:100762004FFFEAFEE9FDE8FC787312048C7873E22D
:10077200FC08E2FD08E2FE08E2FFEEED540FFDE4A4
:10078200FC787312048CE47FD07E07FDFC7873E260
:10079200FB08E2F908E2FA08E2CBF8120314E4FBE0
:1007A2007A04F9F812039FE4FB7A04F9F812039F22
:1007B200EF240C7878F2EE34FE18F2E2FE08E2FF43
:1007C2007C007D641202DE7E007F0ACFCDCFCECCCC
:1007D200CE1202DEAB077877E2FE08E2FF7C007DF4
:1007E200641202DEEFC454F04B7808F27877E2FE2E
:1007F20008E2FF7C007D641202DE7E007F0ACFCD1C
:10080200CFCECCCE1202DEEDC4F8540FC868FFEC96
:08081200C454F0487809EFF22C
:01081A0022BB
:10111400121F9C7F1E7E2B121E80121B3F7F70129B
:10112400152E1216847FE112152E1216847F0812D2
:10113400152E121684E4FF12152E121684121C8A20
:101144007FF47E01121AC1121D1DEF704E121D3460
:101154007F647E00121AC17F1E7E2B121E80121B1A
:101164003F7F7012152E1216847FE112152E12166F
:10117400847F0812152E121684E4FF12152E1216FF
:1011840084121C8A787BE204F2E2C3940A40037F4F
:0D11940000227FF47E01121AC180AC7F01A1
:0111A100222B
:10190300780E742EF27813F27807E2700C12111429
:101913007807EFF2E2700280FE1205327808E2786F
:101923000CF27809E2780DF2780AE27811F2780B7A
:0B193300E27812F27FDC7E05121AC180
:01193E002286
:10176B007F017E00121E807F017E00121E807F0192
:10177B007E00121E807F017E00121E807F017E0084
:10178B00121E807F017E00121E807F017E00121EC2
:10179B00807F017E00121E807F017E00121E807FE3
:0717AB00017E00121E8022E6
:10141100E47816F27816E2C39408505478197402ED
:10142100F22082097819E2FF04F2EF70F412176BCF
:1014310012176B12176BE47825F230820204F278EE
:10144100197402F23082097819E2FF04F2EF70F4A4
:101451007819E264016019782AE2FF25E0F2E2FFDF
:101461007825E2FEEF4E782AF27816E204F280A4A3
:011471002258
:100B2A005393FBC2827F137E00121AC1D28243936F
:100B3A000412176B12176B12176B12176B308203A2
:100B4A00020C2478197402F22082097819E2FF044F
:100B5A00F2EF70F478197402F23082097819E2FF20
:100B6A0004F2EF70F4121411782AE27817F21214D0
:100B7A0011782AE27826F2121411782AE2781BF206
:100B8A00121411782AE2781CF2121411782AE278E7
:100B9A0027F2D282781CE2FF18E22FFF7817E22FA1
:100BAA00FF7826E22F18F27827E2FF7825E2B507C8
:100BBA001E7817E27828F27826E27829F2781BE282
:100BCA007818F2781CE2781AF27827E27824F27818
:100BDA0018E275F00A84FF781DE4F208EFF278183B
:100BEA00E275F00A84781FE5F0F2781AE275F00AE5
:100BFA00847820E5F0F27828E275F00A847821F208
:100C0A007828E275F00A847822E5F0F27829E2750C
:100C1A00F00A847823E5F0F2800DE4781DF208F2F8
:0B0C2A0008F27821F208F25393FB223D
:0420B3005393FC2225
:101CA900EF14600F047017C2807F647E00121E80DB
:0F1CB900D28022C2817F647E00121E80D28122DF
:0D1EF300EF146006047005C28022C2812237
:0D1F0000EF146006047005D28022D2812209
:0420B7004394062226
:0F1E80000000000000EF1F70011E144E70F222D0
:101AC100AD07AC067FFA7E00121E807FFA7E0012FF
:101AD1001E807FFA7E00121E807FFA7E00121E8019
:0A1AE100ED1D70011C144C70DB2297
:101E0100EF6009E5A3448054F7F5A32253A3772299
:101DCC00EF5401FFC4333354C0FFE5A354B74FF5B0
:021DDC00A32240
:101E1100EF5403FFC454F0FFE5A354C74FF5A322C9
:0B1F2600E5AD30E3047F0280027F0184
:011F3100228D
:0C1F3200EF5407FFE5A354F04FF5A32285
:06208000E5AD5480FF22D3
:06208600E5AD5440FF220D
:0C1F3E00EF5407FFE5AD54F84FF5AD225D
:0420BB0043B31022F9
:0B1FA700EF600443B3082253B3F7229D
:0E1EAD00EF25E05406FFE5B354F94FF5B322DC
:0B1FB200EF600443B3012253B3FE2292
:101DA500E5B35406FD53B3F9EFF5B4EEF5B5AF055C
:031DB500EF42B347
:011DB8002208
:10000300E5B35406F953B3F9AFB5AD077C00ED7D05
:0F00130000FCAFB4EFFDAF01EF42B3AE04AF0599
:0100220022BB
:101C6A00E5B35408F953B3F7AFABAD077C00ED7D8C
:0F1C7A0000FCAFB6EFFDAF01EF42B3AE04AF0514
:011C89002238
:0320BF00AFAC22A1
:101E2100EF25E025E0543CFFE5D354C34FF5D32221
:0C1F4A00EF5403FFE5D354FC4FF5D32205
:0F1E8F00EFC4333354C0FFE5D2543F4FF5D22296
:101E3100EFC43354E05420FFE5D254DF4FF5D222F2
:101E4100EF25E025E0541CFFE5D254E34FF5D22203
:101E5100EF25E025E0541CFFE5D254E34FF5D222F3
:0C1F5600EF5403FFE5D254FC4FF5D222FB
:0F1E9E00EFC4333354C0FFE5D1543F4FF5D12289
:101E6100EFC43354E05420FFE5D154DF4FF5D122C4
:0B1F62007F0143D380AE071FEE70FA32
:011F6D002251
:0320C200AFD52275
:0320C500AFD42273
:06208C00E5D35440FF22E1
:101DF000E5D154187E007803CEC313CE13D8F9FF73
:011E000022BF
:0A1FD3008FE7E5E630E1FBAFE722FF
:07205B00EFF5AFEEF5AF2237
:0A1FBD00AFAFAEAF8FAFAF068FAF2E
:011FC70022F7
:041B68007863EFF2BD
:101B6C00E4FF121D037864EFF218E2B4010708E2F7
:101B7C004401F280067864E254FEF27864E2FDE4FB
:041B8C00FF121C49DF
:011B90002232
:041B91007863EFF294
:101B9500E4FF121D037864EFF218E2B4010708E2CE
:101BA5004402F280067864E254FDF27864E2FDE4D2
:041BB500FF121C49B6
:011BB9002209
:041881007863EFF2A7
:10188500E4FF121D037864EFF218E214600F146090
:10189500182402701E7864E254F7F280167864E228
:1018A5004408F2E254FBF2800A7864E24408F2E26A
:0C18B5004404F27864E2FDE4FF121C49D8
:0118C1002204
:0712B200782BEFF208EDF2CA
:1012B900E4FF121D03782DEFF2782BE224FB602363
:1012C90014603D24027055782CE260047F0080028E
:1012D9007F01EF5401FFC454F0FF782DE254EF4F22
:1012E900F28039782CE260047F0080027F01EF549C
:1012F90001FFC43354E0FF782DE254DF4FF2801C24
:10130900782CE260047F0080027F01EF5401FFC462
:10131900333354C0FF782DE254BF4FF2782DE2FDEC
:05132900E4FF121C4965
:01132E00229C
:0B1F6E007D707F07121C49EF5470FFCC
:011F79002245
:101BE1007D707F07121C49EF5470782EF2E2FFC01E
:101BF100077F07121D03EF540FFED0E04E782EF23F
:021C0100E2FF00
:011C030022BE
:101DDE007401A807088002C333D8FCFD7F07121CCC
:021DEE00492288
:08204B00122041EF5470FF2246
:071080007863EFF208EDF2C6
:101087007F02121D037865EFF27F01121D03786658
:10109700EFF27863E224FA500624076049805B7810
:1010A70063E2FF7401A807088002C333D8FCFF7806
:1010B70065E24FF218E2601618E2FF7401A807080C
:1010C7008002C333D8FCFF7866E24FF2802C786346
:1010D700E2FF7401A807088002C333D8FCF4FF7845
:1010E70066E25FF280147865743FF218E260077871
:1010F70066743FF28004E47866F27865E2FD7F0269
:0C110700121C497866E2FD7F01121C49B1
:0111130022B9
:0413A8007863EFF285
:1013AC007F02121D037864EFF27F01121D03786532
:1013BC00EFF27863E224FA50062407602F8033782A
:1013CC0063E2FF7401A807088002C333D8FCF4FF62
:1013DC007864E25FF218E2FF7401A807088002C388
:1013EC0033D8FCF4FF7865E25FF28006E47864F2AF
:1013FC0008F27864E2FD7F02121C497865E2FD7FF9
:04140C0001121C4964
:0114100022B9
:1016D5007863EFF208EBF208EAF208E9F27863E2E0
:1016E50014600A24FB5020600424067030121FDDAC
:1016F500786BEFF27863E2242AFF08E2FB08E2FA4E
:1017050008E2F9120D2B227863E2240AFF08E2FBB6
:0E17150008E2FA08E2F91202B3FD121C4922A2
:1017B200782FEFF208EBF208EAF208E9F2782FE26A
:1017C20014600824FB600424067011782FE2FF08DD
:1017D200E2FB08E2FA08E2F912081B22782FE2245F
:1017E2000AFF121D037830E2FB08E2FA08E2F9EF81
:0617F2001202CC7F01226F
:021C2700AB0709
:101C2900EC540FFFC454F0FF7863E2540F4FF2EB0A
:0F1C3900540FFFE254F04FF2E2FD7F04121C49FA
:011C48002279
:101D4B00E47833F2EF24FE5403FFE254FC4FF2E24B
:061D5B00FD7F03121C498C
:011D6100225F
:0A1FDD007F03121D03EF2402FF2210
:08205300EF2411FF121C4922C9
:040EF9007834EFF268
:100EFD007F02121D037835EFF27F01121D03783644
:100F0D00EFF27834E214602814603C1460541460DD
:100F1D006E147003020FA524056003020FC078350F
:100F2D00E254017837F218E254017838F2020FC614
:100F3D007835E2FFC31354017837F218E2FFC3137B
:100F4D0054017838F280727835E2FF1313543F5410
:100F5D00017837F218E2FF1313543F54017838F239
:100F6D0080577835E2FF131313541F54017837F26D
:100F7D0018E2FF131313541F54017838F2803A7896
:100F8D0035E2FFC4540F54017837F218E2FFC45410
:100F9D000F54017838F280217835E2FFC4135407DD
:100FAD0054017837F218E2FFC4135407540178380E
:100FBD00F28006E47837F208F27838E2FF25E0FF98
:040FCD0018E22FFFF8
:010FD10022FD
:062092007F08121D03226D
:101D62007F08121D03EF54F0FFE4C4F854F0C86872
:071D7200EFC4540F48FF22EB
:10147200EF14601B14602314602B14603314603B60
:10148200240570427F11121D037839EFF2803B7FF1
:1014920012121D037839EFF280307F13121D037888
:1014A20039EFF280257F14121D037839EFF2801A8A
:1014B2007F15121D037839EFF2800F7F16121D037C
:0E14C2007839EFF28004E47839F27839E2FFED
:0114D00022F9
:101D9000E47863F2EF547FFFE254804FF2E2FD7F7C
:041DA00005121C49C3
:011DA400221C
:041C04007863EFF220
:101C08007F06121D037864EFF218E25403FF25E003
:0E1C1800FF08E254F94FF2E2FD7F06121C496C
:011C2600229B
:0418C2007863EFF266
:1018C6007F06121D037864EFF218E2601024FE70A2
:1018D600187864E24420F2E254F7F280167864E263
:1018E60054DFF2E254F7F2800A7864E254DFF2E25F
:0C18F6004408F27864E2FD7F06121C49F1
:0119020022C2
:0A1FE7007F17121D03EF5401FF22C3
:0C1F7A007F17121D03EFC3135401FF2258
:0D1F0D007F17121D03EFC4540F5401FF2273
:0E1EBB007F17121D03EFC41354075401FF22BA
:101D79007F17121D03EF5430FFE4C4F854F0C8680C
:071D8900EFC4540F48FF22D4
:0A1FF1007F17121D03EF5403FF22B7
:062098007F17121D032258
:0A1FFB007F08121D03EF540FFF22B0
:0A2005007F09121D03EF5401FF22B2
:01004A002293
:0D1EC900EF543F783AF2E2FD7F1C121C49F5
:011ED60022E9
:041A3700783BEFF217
:101A3B007F1D121D03783CEFF218E260047F0180DA
:101A4B00027F00EF5401FF25E025E0FF783CE254D4
:0A1A5B00FB4FF2E2FD7F1D121C4953
:011A6500225E
:041A9400783DEFF2B8
:101A98007F1D121D03783EEFF218E260047F01807B
:101AA800027F00EF5401FF25E0FF783EE254FD4F2E
:081AB800F2E2FD7F1D121C4942
:011AC0002203
:041AEB00783FEFF25F
:101AEF007F1D121D037840EFF218E260047F018022
:101AFF00027F00EF5401FF7840E254FE4FF2E2FD07
:051B0F007F1D121C49BE
:011B140022AE
:0A200F00786BEDF27FA0120D2B227A
:0A201900786BEDF27FB0120D2B2260
:0E1ED700EF44A8FF7845E2786BF2120D2B2243
:06209E007F60121D032209
:0620A4007F0812081B2258
:0E1EE500122041EF540EFFE4C313EF13FF224F
:0A202300C2E97FE3121FD3D2E922C5
:101DB9001220987E00EF54407806CEC313CE13D874
:031DC900F9FF22FD
:0A202D00C2E97FE2121FD3D2E922BC
:0A203700C2E97FE1121FD3D2E922B3
:09204100C2E97FFF121FD3D2E9AE
:01204A002273
:041A66007846EFF2DD
:101A6A007F06121D037847EFF218E260047F0180B7
:101A7A00027F00EF5401FFC454F0FF7847E254EFAD
:091A8A004FF2E2FD7F06121C4937
:011A93002230
:0419D7007848EFF26B
:1019DB007F06121D037849EFF218E260047F018045
:1019EB00027F00EF5401FFC43333335480FF784937
:0C19FB00E2547F4FF2E2FD7F06121C490F
:011A070022BC
:101D0300C2E98FE7E5E6540260FAAFE7E4F5E7E5F9
:091D1300E6540260FAAFE7D2E9E0
:011D1C0022A4
:101C4900C2E9EF2420F5E7E5E6540260FAAFE7AE12
:101C5900058EE7E5E6540260FA7867E5E7F2D2E92E
:011C69002258
:0D081B007851EFF208EBF208EAF208E9F27A
:1008280078597401F27852E27857F27851E21460FC
:100838000C24FB600824FE601A2408703D121FDD9A
:100848007855EFF208F2C2E97851E2240AFF121F44
:10085800D3802D121EE57851EFF2E2C394075012AF
:1008680012209E7855EFF208F2C2E97F61121FD379
:10087800800EE47856F218F28006E47856F218F200
:050888007857E2704505
:10088D007852E208E208E2785AF2E4F5E77859E2A4
:10089D00701018E2FF785AE2F8A607785AE204F2CF
:1008AD008004E47859F2E5E6540260FA7858E5E7F9
:1008BD00F27855E214F270D27858E2FF785AE2F8E5
:0208CD00A6077C
:0A08CF000209DE7857E26401705B55
:1008D9007852E208E2FA08E2FF785AEAF208EFF2FF
:1008E900E4F5E77859E2701A18E2FF785AE2FC0851
:1008F900E2F5828C83EFF0E22401F218E23400F28F
:100909008004E47859F2E5E6540260FA7858E5E79C
:10091900F27855E214F270C87858E2FF785AE2FC8E
:0809290008E2F5828C83EFF077
:0A0931000209DE7857E264FE70440C
:10093B007852E208E208E2785AF2E4F5E77859E2F5
:10094B00701018E2FF785AE2F8EFF2785AE204F2EC
:10095B008004E47859F2E5E6540260FA7858E5E74A
:10096B00F27855E214F270D27858E2FF785AE2F836
:02097B00EFF299
:02097D00805F99
:10097F007852E2F908E2FA08E2785AC9F208EAF284
:10098F0008E9F2E4F5E77859E2701C18E2FF785AAB
:10099F00E2FB08E2FA08E2F9EF1202CCE22401F2DC
:1009AF0018E23400F28004E47859F2E5E65402606C
:1009BF00FA7858E5E7F27855E214F270C67858E203
:0F09CF00FF785AE2FB08E2FA08E2F9EF1202CCD5
:0D09DE00D2E97851E2FE7856E2FDEEEDFF21
:0109EB0022E9
:0A0D2B007868EBF208EAF208E9F23A
:0A0D35007868E2FDC2E98FE770293B
:100D3F00E208E208E2786DF2786DE2F8E6FE786D8F
:100D4F00E204F2E5E6540260FA786CE5E7F28EE72A
:060D5F0018E214F270E23C
:080D6500020E12ED6401703969
:100D6D007868E208E2FB08E2786DCBF208EBF278E6
:100D7D006DE2FA08E2F5828A83E0FEE22401F218C0
:100D8D00E23400F2E5E6540260FA786CE5E7F28EA3
:070D9D00E718E214F270D820
:070DA400806CED64FE702A73
:100DAB007868E208E208E2786DF2786DE2F8E2FE2C
:100DBB00786DE204F2E5E6540260FA786CE5E7F24E
:080DCB008EE718E214F270E259
:020DD300803D61
:100DD5007868E2F908E2FA08E2786DC9F208EAF201
:100DE50008E9F2786DE2FB08E2FA08E2F91202B3CB
:100DF500FEE22401F218E23400F2E5E6540260FA5C
:0D0E0500786CE5E7F28EE718E214F270D683
:0D0E1200E5E6540260FA786CE5E7F2D2E9FB
:010E1F0022B0
:030023000215E0E3
:1015E000C0E0C0D075D000C00030981EC298784AC4
:1015F000E2C394205014784EE22408F8A699784E5D
:10160000E204541FF2784AE204F230991FC299783A
:101610004BE2D394014010784DE22428F8E6F59986
:10162000784DE204541FF2784BE214F2D000D0D08F
:03163000D0E032D5
:10172300C2ACE4784DF2784FF2784BF208F2784E7F
:10173300F2784AF2D29CC29FD29E43878043D880DC
:10174300EF24FC601324FE60091470127C037DF700
:1017530080107C037DF3800A7C037DCC80047C03B2
:071763007DE68DAAECF5BA4A
:01176A00225C
:101B1500784BE2D3942050F8C2AC784BE270048F36
:101B250099800F784FE22428F8A607784FE20454ED
:0A1B35001FF2784BE204F2D2AC225A
:0520AA00784AE2FF226C
:0B1FC800784BE270037F01227F0022B3
:101CC800784AE260FBC2AC784CE22408F8E6FF7878
:0D1CD8004CE204541FF2784AE214F2D2AC40
:011CE50022DC
:10004E00EC4D6011E8497017ED33EC3304600DE4AC
:10005E00FCFFFEFD22E933E8330470F802029E1223
:10006E00026958046009E4CC248150062850090224
:10007E0002A82840030202A5C0E0EB4A7044B980F2
:10008E0006D0E0FB020294EF4E701CBD8008EBFF21
:10009E00EAFEE9FD80EBE98DF0A4FEE5F002013702
:1000AE00E9CDF9EAFEEBFFEF89F0A4FCE5F0CE898D
:1000BE00F0A42EFFE435F0CD89F0A42DFEE435F04A
:1000CE008067EF4E7005BD80D780C3EF8BF0A4AC78
:1000DE00F0EE8BF0A42CFCE435F0F8EF8AF0A42CB3
:1000EE00E5F038FCE433CB8DF0A42CFCE5F03BF8C6
:1000FE00EE8AF0A42CFCE5F038F8E433CF89F0A4B6
:10010E002CFCE5F038CF3400CE89F0A42FFFE5F0BB
:10011E003EFEE433C98DF0A42EFEE5F039CD8AF013
:10012E00A42FFFE5F03EFEE43DFD33D0E0FB50078B
:10013E000BBB000F0202A8EC2CFCEF33FFEE33FEDC
:06014E00ED33FD0202800A
:100154000202A8EC5D046005E85904700302029EE3
:10016400120269580460F6EC4860F2EC7004FDFE7B
:10017400FF22C860DB2481C85009C398600250067E
:100184000202A59850CAF582E9294B4A7005AB8250
:1001940002029475F0007C1A7880C3EF9BEE9AED0E
:1001A40099400DC3EF9BFFEE9AFEED99FDE842F0F6
:1001B400DC23ACF0D0E0FFD0E0FED0E0FDAB822049
:1001C400E7101BEB60BAEC2CFCEF33FFEE33FEEDD3
:1001D40033FD020280E803F830E705C0F075F00053
:1001E400EF2FFFEE33FEED33FD40B830E7C280AAB7
:1001F40075F020800E75F010800575F0087D007E86
:10020400007F003392D530D503120431EC33401013
:10021400EF33FFEE33FEED33FDEC33FCD5F0ED228E
:0E022400E5F0247EA2D513CC92E7CDCEFF22CA
:10023200EDD2E7CD33EC3392D524814006E4FFFEC4
:10024200FDFC22FCE4CFCECDCC24E0501174FF8023
:10025200EDC3CC13CCCD13CDCE13CECF13CF0470C0
:07026200F030D5DE0204318B
:10026900E9D2E7C933E833F892D5EDD2E7CD33ECDB
:0702790033FC5002B2D52254
:10028000EC30E7100FBF000C0EBE00080DBD0004DF
:100290000BEB6014A2D5EB13FCED92E7FD2274FF8B
:1002A000FCFDFEFF22E480F8A2D574FF13FC7D80E4
:0302B000E480EFF8
:030000000211A248
:0C11A200787FE4F6D8FD7581470211E962
:1002B300BB010689828A83E0225002E722BBFE0249
:0902C300E32289828A83E493227C
:1002CC00BB010689828A83F0225002F722BBFE0111
:0202DC00F3220B
:1002DE00C2D5EC30E709B2D5E4C39DFDE49CFCEE3B
:1002EE0030E715B2D5E4C39FFFE49EFE1204DDC3D2
:1002FE00E49DFDE49CFC80031204DD30D507C3E4CD
:06030E009FFFE49EFE22A9
:10031400E88FF0A4CC8BF0A42CFCE98EF0A42CFC88
:100324008AF0EDA42CFCEA8EF0A4CDA8F08BF0A406
:100334002DCC3825F0FDE98FF0A42CCD35F0FCEB65
:100344008EF0A4FEA9F0EB8FF0A4CFC5F02ECD392A
:0F035400FEE43CFCEAA42DCE35F0FDE43CFC2297
:1003630075F008758200EF2FFFEE33FECD33CDCC51
:1003730033CCC58233C5829BED9AEC99E5829840D4
:100383000CF582EE9BFEED9AFDEC99FC0FD5F0D6B1
:10039300E4CEFBE4CDFAE4CCF9A88222B800C1B9DB
:1003A3000059BA002DEC8BF084CFCECDFCE5F0CB19
:1003B300F97818EF2FFFEE33FEED33FDEC33FCEB52
:1003C30033FB10D703994004EB99FB0FD8E5E4F90D
:1003D300FA227818EF2FFFEE33FEED33FDEC33FCFA
:1003E300C933C910D7059BE99A4007EC9BFCE99AEE
:1003F300F90FD8E0E4C9FAE4CCFB2275F010EF2F33
:10040300FFEE33FEED33FDCC33CCC833C810D70732
:100413009BEC9AE899400AED9BFDEC9AFCE899F86D
:0E0423000FD5F0DAE4CDFBE4CCFAE4C8F92200
:0E043100C3E49FFFE49EFEE49DFDE49CFC22DC
:10043F00EB9FF5F0EA9E42F0E99D42F0EC6480C834
:06044F0064809845F022D4
:10045500EB9FF5F0EA9E42F0E99D42F0E89C45F0FD
:010465002274
:10046600E8600FECC313FCED13FDEE13FEEF13FF74
:03047600D8F12298
:10047900E8600FEFC333FFEE33FEED33FDEC33FCE1
:03048900D8F12285
:0C048C00ECF208EDF208EEF208EFF222AC
:10049800D083D082E493F208740193F20874029333
:0904A800F208740393F27404736A
:1004B100EF4E6012EF60010EEDBB010B89828A8362
:1004C100F0A3DFFCDEFA2289F05007F709DFFCA96F
:0C04D100F022BBFEFCF309DFFCA9F022C6
:1011AE00020E20E493A3F8E493A34003F68001F229
:1011BE0008DFF48029E493A3F85407240CC8C33342
:1011CE00C4540F4420C8834004F456800146F6DF11
:1011DE00E4800B0102040810204080901F91E47EF1
:1011EE00019360BCA3FF543F30E509541FFEE49306
:1011FE00A360010ECF54C025E060A840B8E493A3CD
:10120E00FAE493A3F8E493A3C8C582C8CAC583CAF7
:10121E00F0A3C8C582C8CAC583CADFE9DEE780BEAF
:011F9B000045
:1004DD00BC000BBE0029EF8DF084FFADF022E4CC03
:1004ED00F875F008EF2FFFEE33FEEC33FCEE9DECCC
:1004FD00984005FCEE9DFE0FD5F0E9E4CEFD22ED12
:10050D00F8F5F0EE8420D21CFEADF075F008EF2F5B
:10051D00FFED33FD4007985006D5F0F222C398FD4C
:05052D000FD5F0EA22E9
:00000001FF
