:100EE9004148543130B3F5CABCBBAFCAA7B0DC0D19
:100EF9000A00414854B3F5CABCBBAFB3C9B9A60D82
:100F09000A0041485431302DCEC2B6C83A002020DB
:100F1900202000CAAAB6C83A000D0A007265736596
:100F2900740D0A00696E746F20736C6565702E2EDE
:100F39002E0D0A0031206D696E75746520746F205D
:0C0F490073656E6420646174610D0A0021
:0A1A25008501E7E7E7E7E78100002D
:061BC000E4F593F5942208
:081BA1008F993099FDC29922D1
:1014C1007876EBF208EAF208E9F27876E2FB08E2D4
:1014D100FA08E2F9120337601A7876E2FB0808E2AB
:1014E100F92401F218E2FA3400F2120337FF121B59
:0B14F100A180D77F647E0012164D2200
:100026007F0E1219A8E4FF121AB6E4FF121A07E4AB
:10003600FF1219B8E4FF1219C87F03121A167F01BE
:040046001219E82281
:1013B600786CEEF208EFF2C3E2940A18E294005059
:1013C6001BE2FE08E2FFE4FCFDFBFA7901F8C3121A
:1013D60004B55008786C7480F208E4F2E4FF121B3E
:1013E600087F01121B08786DE224FFFF18E234FF24
:0513F600FE12192C227B
:1013FB00D2EA7FFF120F55E4FDFF120C45E4FF12FA
:10140B0016F47F321219177F021214807F03121702
:10141B00907F0212143F7BFE7A0079017F06121235
:10142B00937DDC7C05E4FF1217B37F0112171DD2ED
:04143B00B9D2AF2251
:10159300E4FF121B087F01121AAA7F03121A337F7A
:1015A300007E801213B67F02121998E4FF12198885
:1015B3007F01121B08E5AD20E7FBE5AD30E7FB2219
:100FBE00E49000D3F09000AA741EF09000CAE09066
:100FCE0000ABF09000CBE09000ACF09000CCE09045
:100FDE0000ADF09000CDE09000AEF0E49000D4F0C3
:100FEE009000D4E0C394055018E024AAF582E434AE
:100FFE0000F583E0FF9000D3E02FF0A3E004F08033
:10100E00DF9000D3E0FFC3E49FFF740194009000D3
:03101E00AFEFF041
:0110210022AC
:10187000121ACE121BEAEF70FA121C1B9000CCEF6A
:0A188000F0121C189000CDEFF022CA
:100B92007E007F057D007BFE7A00796C1205587E0F
:100BA200007F057D007BFE7A007971120558786E10
:100BB200742EF27873F27800E2701E120CD978006B
:100BC200EFF2E2700B7BFF7A0E79E91214C180FE1C
:100BD2007BFF7A0E79FB1214C112004E7809E224CF
:100BE20030786CF2780AE22430786DF2780BE224E5
:100BF20030786FF2780CE224307871F2780DE224CA
:100C0200307872F2780EE224307874F27BFF7A0F39
:100C1200790B1214C17BFE7A00796C1214C17BFF2E
:100C22007A0F79171214C17BFF7A0F791C1214C143
:100C32007BFE7A0079711214C17BFF7A0F7922123E
:020C420014C1DB
:010C4400228D
:1007AA00E47866F29000CF12050E00001C1F7867ED
:1007BA0012053F000000009000CA7403F0A374E819
:1007CA00F0121BC01215937F071212E1121A92EF50
:1007DA00B402F9D2AF1200261218701213FB7F006E
:1007EA007E01121BB97BFF7A0F79251214C1E478B6
:1007FA0065F27865E2C3940A5010B2807F787E0071
:10080A0012164D7865E204F280E8121B137866E24C
:10081A0004F2E2D3943C50117BFF7A0F792D121423
:10082A00C175A404E4F5A480E1120B92E47866F29F
:10083A0008E2FC08E2FD08E2FE08E2FFE4FAF9F841
:10084A00EF2401FFEA3EFEE93DFDE83CFC78671231
:10085A0005027BFF7A0F793D1214C1E47FB4FEFDD5
:10086A00FC7867E2FB08E2F908E2FA08E2CBF8C38F
:10087A001204CB7003121870B280120FBE7B017A79
:08088A000079AA7D06121B652E
:10089200786B7414F2D2E8786BE2FF14F2EF70F71F
:0208A200C2E8AA
:1008A4009000CE7401F09000CEE070030208148032
:0408B400F50208142D
:0108B800221D
:03004B00020E7032
:100E7000C0E0C0F0C083C082C0D075D000C000C048
:0D0E800001C002C003C004C005C006C007C9
:100E8D00121ADA7857EFF2E230E61D121B3DEF70C1
:100E9D00127B017A00798A121C027806EEF208EFB5
:100EAD00F280E89000CEE4F07857E230E50590004E
:100EBD00CEE4F07857E230E4089000CEE4F0121B57
:010ECD008D97
:100ECE00D007D006D005D004D003D002D001D00078
:0B0EDE00D0D0D082D083D0F0D0E03222
:031A2F008108002B
:0C1A8600C2807FF47E0112164DD2802237
:061BC6005394DFD29522CA
:061BCC005394DFC29522D4
:041C0D0043942022BA
:061BD2005394EFD29422AF
:061BD8005394EFC29422B9
:0B1AF2005394EFD2945394DFD295225E
:1016CB00121BC67F087E001219F8121BD27F087EF0
:1016DB00001219F8121BCC7F087E001219F8121B8E
:0916EB00D87F087E001219F822D4
:10113F007887EFF278897480F2E418F27888E2C346
:10114F0094085033121BD87F037E001219F878874A
:10115F00E2FF7889E25F6005121BC68003121BCC89
:10116F00121BD27F037E001219F87887E2FF25E069
:10117F00F208E204F280C5121BD87F087E00121914
:0B118F00F8121C0D7F087E001219F8FA
:01119A002232
:1010E200E47887F2121BD8121C0D7F08FE1219F841
:1010F200E47888F27888E2C394085032121BD27FD7
:10110200017E001219F8E47889F230950204F2782F
:1011120087E2FF25E0FF7889E24F7887F2121BD839
:101122007F087E001219F87888E204F280C6121C49
:0C1132000D7F087E001219F87887E2FF9C
:01113E00228E
:10124200E47887F208F2121BD8121C0D7F08FE12F6
:1012520019F8121BD27F087E001219F8309518C3B4
:101262007888E2946418E29400500C08E22401F2B7
:1012720018E23400F280E57888E26464700218E2D1
:101282007002FF22121BD87F087E001219F87F011C
:011292002239
:1014FC00121BD87F087E001219F8121BCC7F087EB5
:10150C00001219F8121BD27F087E001219F8121B58
:10151C00D87F087E001219F8121C0D7F087E00126D
:03152C0019F82289
:10152F00121BD87F087E001219F8121BC67F087E87
:10153F00001219F8121BD27F087E001219F8121B25
:10154F00D87F087E001219F8121BCC7F087E00127C
:03155F0019F82256
:10181600121BCC7F087E001219F8121BD27F087E9D
:0F182600001219F8121BC67F087E001219F82253
:101853001216CB7F7112113F1212421210E27886D8
:0C186300EFF212152F1218167886E2FF23
:01186F002256
:1018A400E47885F21218537885EFF2E25468B408AC
:0618B400037F01227F000A
:0118BA00220B
:101746001216CB7F7012113F1212427FAC12113F5C
:101756001212427F3312113F121242E4FF12113F5E
:0717660012124212181622B4
:1018BB001216CB7F7012113F1212427FBA12113FD8
:0718CB00121242121816224E
:10004E00E47876F208F208F208F208F208F20812E2
:10005E00053F00000000E47880F208F208F208F292
:10006E001218A4EF700C120CD97F1E7E0012164DC2
:10007E0080EE1217467F4B7E0012164DE47882F208
:10008E0008F2121853EF30E7227FE47E051219F8BA
:10009E00788208E2FF2401F218E2FE3400F2C3EF88
:1000AE009464EE940040DB800280D71216CB7F71F1
:1000BE0012113F1212421210E27876EFF21214FC75
:1000CE001210E27877EFF21214FC1210E27878EF49
:1000DE00F21214FC1210E27879EFF21214FC1210E4
:1000EE00E2787AEFF21214FC1210E2787BEFF21241
:1000FE00152F1218167877E2FFE4787CE2FB08E2FF
:10010E00F908E2FA08E2CBF8EB4FFFEAFEE9FDE868
:10011E00FC78081204EF787C1205027878E2FFE48E
:10012E00787CE2FB08E2F908E2FA08E2CBF8EB4F42
:10013E00FFEAFEE9FDE8FC78081204EF787C120570
:10014E00027879E2FFE4787CE2FB08E2F908E2FA51
:10015E0008E2CBF8EB4FFFEAFEE9FDE8FC787C12F3
:10016E000502787CE2FC08E2FD08E2FE08E2FF7878
:10017E00041204DC787C120502E47FE87E03FDFCA9
:10018E00787CE2FB08E2F908E2FA08E2CBF8120307
:10019E0098E4FB7A04F9F8120423E4FB7A04F9F8E4
:1001AE001204237880EEF208EFF218E2FF08E278EC
:1001BE0011CFF208EFF27880E2FE08E2FF7C007DBC
:1001CE0064120362780CEFF27880E2FE08E2FF7CA4
:1001DE00007D641203627E007F0ACFCDCFCECCCEDF
:1001EE00120362780DEFF27880E2FE08E2FF7C00E7
:1001FE007D641203627E007F0ACFCDCFCECCCE12AD
:10020E000362AF05780EEDF2787C12053F00000018
:10021E00007879E2FFE4787CE2FB08E2F908E2FA82
:10022E0008E2CBF8EB4FFFEAFEE9FDE8FC78081296
:10023E0004EF787C120502787AE2FFE4787CE2FB28
:10024E0008E2F908E2FA08E2CBF8EB4FFFEAFEE922
:10025E00FDE8FC78081204EF787C120502787BE248
:10026E00FFE408E2FB08E2F908E2FA08E2CBF8EB59
:10027E004FFFEAFEE9FDE8FC787C120502787CE28D
:10028E00FC08E2FD08E2FE08E2FFEEED540FFDE48D
:10029E00FC787C120502E47FD07E07FDFC787CE2C0
:1002AE00FB08E2F908E2FA08E2CBF8120398E4FB45
:1002BE007A04F9F8120423E4FB7A04F9F812042301
:1002CE00EF240C7881F2EE34FE18F2E2FF08E278A9
:1002DE000FCFF208EFF27880E2FE08E2FF7C007D9D
:1002EE00641203627809EFF27880E2FE08E2FF7C86
:1002FE00007D641203627E007F0ACFCDCFCECCCEBE
:10030E00120362780AEFF27880E2FE08E2FF7C00C8
:10031E007D641203627E007F0ACFCDCFCECCCE128B
:08032E000362AF05780BEDF24C
:0103360022A4
:100CD900121AF27F1E7E2B1219F81216CB7F701290
:100CE900113F1212427FE112113F1212427F081284
:100CF900113F121242E4FF12113F1212421218164A
:100D09007FF47E0112164D1218A4EF704E1218BB13
:100D19007F647E0012164D7F1E7E2B1219F8121663
:100D2900CB7F7012113F1212427FE112113F121252
:100D3900427F0812113F121242E4FF12113F1212B0
:100D4900421218167884E204F2E2C3940A40037F3F
:0D0D590000227FF47E0112164D80AC7F0158
:010D6600226A
:10119B007815742EF2781AF27808E2700C120CD9CA
:1011AB007808EFF2E2700280FE12004E7809E2241A
:1011BB00307813F2780AE224307814F2780BE224B8
:1011CB00307816F2780CE224307818F2780DE2249D
:1011DB00307819F2780EE22430781BF27FDC7E0532
:0311EB0012164D8C
:0111EE0022DE
:101329007F017E001219F87F017E001219F87F01F2
:101339007E001219F87F017E001219F87F017E00E4
:101349001219F87F017E001219F87F017E00121927
:10135900F87F017E001219F87F017E001219F87FCB
:07136900017E001219F822B9
:10102200E4781DF2781DE2C39408505478207402CB
:10103200F22082097820E2FF04F2EF70F412132901
:10104200121329121329E4782CF230820204F27866
:10105200207402F23082097820E2FF04F2EF70F489
:101062007820E2640160197831E2FF25E0F2E2FFC4
:10107200782CE2FEEF4E7831F2781DE204F280A481
:01108200224B
:1008B9005393FBC2827F137E0012164DD28243935B
:1008C900041213291213291213291213293082032E
:1008D9000209B378207402F22082097820E2FF0429
:1008E900F2EF70F478207402F23082097820E2FF86
:1008F90004F2EF70F41210227831E2781EF212102D
:10090900227831E2782DF21210227831E27822F23F
:100919001210227831E27823F21210227831E2782B
:100929002EF2D2827823E2FF18E22FFF781EE22FFF
:10093900FF782DE22F18F2782EE2FF782CE2B50726
:100949001E781EE2782FF2782DE27830F27822E2D2
:10095900781FF27823E27821F2782EE2782BF27868
:100969001FE275F00A84FF7824E4F208EFF2781F99
:10097900E275F00A847826E5F0F27821E275F00A4A
:10098900847827E5F0F2782FE275F00A847828F266
:10099900782FE275F00A847829E5F0F27830E2756B
:1009A900F00A84782AE5F0F2800DE47824F208F25E
:0B09B90008F27828F208F25393FB22AA
:0F19F8000000000000EF1F70011E144E70F2225D
:10164D00AD07AC067FFA7E001219F87FFA7E001204
:10165D0019F87FFA7E001219F87FFA7E001219F838
:0A166D00ED1D70011C144C70DB220F
:10198800EF6009E5A3448054F7F5A32253A3772217
:10195300EF5401FFC4333354C0FFE5A354B74FF52D
:02196300A322BD
:10199800EF5403FFC454F0FFE5A354C74FF5A32247
:0B1A9200E5AD30E3047F0280027F011D
:011A9D002226
:0C1A9E00EF5407FFE5A354F04FF5A3221E
:061BDE00E5AD5480FF227A
:061BE400E5AD5440FF22B4
:0C1AAA00EF5407FFE5AD54F84FF5AD22F6
:041C110043B31022A7
:0B1AFD00EF600443B3082253B3F7224C
:0E1A3300EF25E05406FFE5B354F94FF5B3225A
:0B1B0800EF600443B3012253B3FE2240
:10192C00E5B35406FD53B3F9EFF5B4EEF5B5AF05D9
:03193C00EF42B3C4
:01193F002285
:10000300E5B35406F953B3F9AFB5AD077C00ED7D05
:0F00130000FCAFB4EFFDAF01EF42B3AE04AF0599
:0100220022BB
:1017F600E5B35408F953B3F7AFABAD077C00ED7D05
:0F18060000FCAFB6EFFDAF01EF42B3AE04AF058C
:0118150022B0
:031C1500AFAC224F
:1019A800EF25E025E0543CFFE5D354C34FF5D3229F
:0C1AB600EF5403FFE5D354FC4FF5D3229E
:0F1A0700EFC4333354C0FFE5D2543F4FF5D22222
:1019B800EFC43354E05420FFE5D254DF4FF5D22270
:1019C800EF25E025E0541CFFE5D254E34FF5D22281
:1019D800EF25E025E0541CFFE5D254E34FF5D22271
:0C1AC200EF5403FFE5D254FC4FF5D22294
:0F1A1600EFC4333354C0FFE5D1543F4FF5D12215
:1019E800EFC43354E05420FFE5D154DF4FF5D12242
:0B1ACE007F0143D380AE071FEE70FACB
:011AD90022EA
:031C1800AFD52223
:031C1B00AFD42221
:061BEA00E5D35440FF2288
:10197700E5D154187E007803CEC313CE13D8F9FFF0
:01198700223D
:0A1B29008FE7E5E630E1FBAFE722AD
:071BB900EFF5AFEEF5AF22DE
:0A1B1300AFAFAEAF8FAFAF068FAFDC
:011B1D0022A5
:0416F400786CEFF22D
:1016F800E4FF12188A786DEFF218E2B4010708E2E5
:101708004401F28006786DE254FEF2786DE2FDE461
:04171800FF1217D5D0
:01171C0022AA
:04171D00786CEFF203
:10172100E4FF12188A786DEFF218E2B4010708E2BB
:101731004402F28006786DE254FDF2786DE2FDE438
:04174100FF1217D5A7
:011745002281
:04143F00786CEFF2E4
:10144300E4FF12188A786DEFF218E214600F14604B
:10145300182402701E786DE254F7F28016786DE25C
:101463004408F2E254FBF2800A786DE24408F2E2A7
:0C1473004404F2786DE2FDE4FF1217D58E
:01147F00224A
:070DF3007832EFF208EDF287
:100DFA00E4FF12188A7834EFF27832E224FB602397
:100E0A0014603D240270557833E260047F0080024A
:100E1A007F01EF5401FFC454F0FF7834E254EF4FDE
:100E2A00F280397833E260047F0080027F01EF5458
:100E3A0001FFC43354E0FF7834E254DF4FF2801CE0
:100E4A007833E260047F0080027F01EF5401FFC41F
:100E5A00333354C0FF7834E254BF4FF27834E2FDA2
:050E6A00E4FF1217D5A2
:010E6F002260
:0B1ADA007D707F071217D5EF5470FFDE
:011AE50022DE
:10176D007D707F071217D5EF54707835F2E2FFC008
:10177D00077F0712188AEF540FFED0E04E7835F22E
:02178D00E2FF79
:01178F002237
:101965007401A807088002C333D8FCFD7F0712174E
:02197500D52279
:081BA900121B97EF5470FF229C
:070C4500786CEFF208EDF2FC
:100C4C007F0212188A786EEFF27F0112188A786F81
:100C5C00EFF2786CE224FA500624076049805B7846
:100C6C006CE2FF7401A807088002C333D8FCFF783C
:100C7C006EE24FF218E2601618E2FF7401A8070842
:100C8C008002C333D8FCFF786FE24FF2802C786C73
:100C9C00E2FF7401A807088002C333D8FCF4FF7884
:100CAC006FE25FF28014786E743FF218E26007789E
:100CBC006F743FF28004E4786FF2786EE2FD7F028D
:0C0CCC001217D5786FE2FD7F011217D5DA
:010CD80022F9
:040F5500786CEFF2D3
:100F59007F0212188A786DEFF27F0112188A786E73
:100F6900EFF2786CE224FA50062407602F80337878
:100F79006CE2FF7401A807088002C333D8FCF4FFB0
:100F8900786DE25FF218E2FF7401A807088002C3D6
:100F990033D8FCF4FF786EE25FF28006E4786DF2F4
:100FA90008F2786DE2FD7F021217D5786EE2FD7FB7
:040FB900011217D535
:010FBD002211
:10129300786CEFF208EBF208EAF208E9F2786CE214
:1012A30014600A24FB5020600424067030121B33A0
:1012B3007874EFF2786CE2242AFF08E2FB08E2FA82
:1012C30008E2F91209C422786CE2240AFF08E2FB5F
:0E12D30008E2FA08E2F9120337FD1217D522DD
:101370007836EFF208EBF208EAF208E9F27836E2A2
:1013800014600824FB6004240670117836E2FF081C
:10139000E2FB08E2FA08E2F91205D9227836E224E3
:1013A0000AFF12188A7837E2FB08E2FA08E2F9EF3E
:0613B0001203507F012230
:0217B300AB0782
:1017B500EC540FFFC454F0FF786CE2540F4FF2EB7A
:0F17C500540FFFE254F04FF2E2FD7F041217D5EC
:0117D40022F2
:1018D200E4783AF2EF24FE5403FFE254FC4FF2E2C2
:0618E200FD7F031217D583
:0118E80022DD
:0A1B33007F0312188AEF2402FF223C
:081BB100EF2411FF1217D522E9
:040AB900783BEFF2A5
:100ABD007F0212188A783CEFF27F0112188A783D76
:100ACD00EFF2783BE214602814603C14605414601B
:100ADD006E147003020B6524056003020B80783CD5
:100AED00E25401783EF218E25401783FF2020B868F
:100AFD00783CE2FFC3135401783EF218E2FFC313B2
:100B0D005401783FF28072783CE2FF1313543F5446
:100B1D0001783EF218E2FF1313543F5401783FF26F
:100B2D008057783CE2FF131313541F5401783EF2A3
:100B3D0018E2FF131313541F5401783FF2803A78D3
:100B4D003CE2FFC4540F5401783EF218E2FFC45446
:100B5D000F5401783FF28021783CE2FFC413540713
:100B6D005401783EF218E2FFC41354075401783F44
:100B7D00F28006E4783EF208F2783FE2FF25E0FFCE
:040B8D0018E22FFF3C
:010B91002241
:061BF0007F0812188A2292
:1018E9007F0812188AEF54F0FFE4C4F854F0C8686E
:0718F900EFC4540F48FF2269
:10108300EF14601B14602314602B14603314603B53
:10109300240570427F1112188A7840EFF2803B7F5B
:1010A3001212188A7840EFF280307F1312188A7870
:1010B30040EFF280257F1412188A7840EFF2801AED
:1010C3007F1512188A7840EFF2800F7F1612188A64
:0E10D3007840EFF28004E47840F27840E2FFCB
:0110E10022EC
:10191700E4786CF2EF547FFFE254804FF2E2FD7FF0
:04192700051217D5B9
:01192B002299
:04179000786CEFF290
:101794007F0612188A786DEFF218E25403FF25E0F1
:0E17A400FF08E254F94FF2E2FD7F061217D55E
:0117B2002214
:04148000786CEFF2A3
:101484007F0612188A786DEFF218E2601024FE705D
:1014940018786DE24420F2E254F7F28016786DE297
:1014A40054DFF2E254F7F2800A786DE254DFF2E29C
:0C14B4004408F2786DE2FD7F061217D5A7
:0114C0002209
:0A1B3D007F1712188AEF5401FF22EF
:0C1AE6007F1712188AEFC3135401FF226F
:0D1A79007F1712188AEFC4540F5401FF228A
:0E1A41007F1712188AEFC41354075401FF22B6
:101900007F1712188AEF5430FFE4C4F854F0C86807
:07191000EFC4540F48FF2251
:0A1B47007F1712188AEF5403FF22E3
:061BF6007F1712188A227D
:0A1B51007F0812188AEF540FFF22DC
:0A1B5B007F0912188AEF5401FF22DF
:01004A002293
:0D1A4F00EF543F7841F2E2FD7F1C1217D5E5
:011A5C002267
:0415C3007842EFF289
:1015C7007F1D12188A7843EFF218E260047F0180CA
:1015D700027F00EF5401FF25E025E0FF7843E25446
:0A15E700FB4FF2E2FD7F1D1217D545
:0115F10022D7
:041620007844EFF229
:101624007F1D12188A7845EFF218E260047F01806A
:10163400027F00EF5401FF25E0FF7845E254FD4F9F
:08164400F2E2FD7F1D1217D533
:01164C00227B
:041677007846EFF2D0
:10167B007F1D12188A7847EFF218E260047F018011
:10168B00027F00EF5401FF7847E254FE4FF2E2FD78
:05169B007F1D1217D5B0
:0116A0002227
:0A1B65007874EDF27FA01209C4228B
:0A1B6F007874EDF27FB01209C42271
:0E1A5D00EF44A8FF784CE27874F21209C4221C
:061BFC007F6012188A222E
:061C02007F081205D92243
:0E1A6B00121B97EF540EFFE4C313EF13FF227C
:0A1B7900C2E97FE3121B29D2E92222
:10194000121BF67E00EF54407806CEC313CE13D898
:03195000F9FF227A
:0A1B8300C2E97FE2121B29D2E92219
:0A1B8D00C2E97FE1121B29D2E92210
:091B9700C2E97FFF121B29D2E90B
:011BA0002222
:0415F200784DEFF24F
:1015F6007F0612188A784EEFF218E260047F0180A7
:10160600027F00EF5401FFC454F0FF784EE254EF1E
:091616004FF2E2FD7F061217D528
:01161F0022A8
:04156200784FEFF2DD
:101566007F0612188A7850EFF218E260047F018035
:10157600027F00EF5401FFC43333335480FF7850A9
:0C158600E2547F4FF2E2FD7F061217D501
:011592002236
:10188A00C2E98FE7E5E6540260FAAFE7E4F5E7E577
:09189A00E6540260FAAFE7D2E95E
:0118A3002222
:1017D500C2E9EF2420F5E7E5E6540260FAAFE7AE8B
:1017E500058EE7E5E6540260FA7870E5E7F2D2E99E
:0117F50022D1
:0D05D9007858EFF208EBF208EAF208E9F2B8
:1005E60078607401F27859E2785EF27858E2146025
:1005F6000C24FB600824FE601A2408703D121B338D
:10060600785CEFF208F2C2E97858E2240AFF121B7E
:1006160029802D121A6B7858EFF2E2C39407501214
:10062600121BFC785CEFF208F2C2E97F61121B290B
:10063600800EE4785DF218F28006E4785DF218F236
:05064600785EE2704542
:10064B007859E208E208E27861F2E4F5E77860E2D3
:10065B00701018E2FF7861E2F8A6077861E204F205
:10066B008004E47860F2E5E6540260FA785FE5E72F
:10067B00F2785CE214F270D2785FE2FF7861E2F814
:02068B00A607C0
:0A068D0002079C785EE26401705BD6
:100697007859E208E2FA08E2FF7861EAF208EFF235
:1006A700E4F5E77860E2701A18E2FF7861E2FC0887
:1006B700E2F5828C83EFF0E22401F218E23400F2D3
:1006C7008004E47860F2E5E6540260FA785FE5E7D3
:1006D700F2785CE214F270C8785FE2FF7861E2FCBE
:0806E70008E2F5828C83EFF0BC
:0A06EF0002079C785EE264FE70448E
:1006F9007859E208E208E27861F2E4F5E77860E225
:10070900701018E2FF7861E2F8EFF27861E204F222
:100719008004E47860F2E5E6540260FA785FE5E780
:10072900F2785CE214F270D2785FE2FF7861E2F865
:02073900EFF2DD
:02073B00805FDD
:10073D007859E2F908E2FA08E27861C9F208EAF2BA
:10074D0008E9F2E4F5E77860E2701C18E2FF7861E1
:10075D00E2FB08E2FA08E2F9EF120350E22401F29B
:10076D0018E23400F28004E47860F2E5E6540260A9
:10077D00FA785FE5E7F2785CE214F270C6785FE232
:0F078D00FF7861E2FB08E2FA08E2F9EF1203508D
:0D079C00D2E97858E2FE785DE2FDEEEDFF57
:0107A900222D
:0A09C4007871EBF208EAF208E9F29C
:0A09CE007871E2FDC2E98FE770299D
:1009D800E208E208E27876F27876E2F8E6FE7876DF
:1009E800E204F2E5E6540260FA7875E5E7F28EE78C
:0609F80018E214F270E2A7
:0809FE00020AABED640170393F
:100A06007871E208E2FB08E27876CBF208EBF2783E
:100A160076E2FA08E2F5828A83E0FEE22401F21821
:100A2600E23400F2E5E6540260FA7875E5E7F28E04
:070A3600E718E214F270D88A
:070A3D00806CED64FE702ADD
:100A44007871E208E208E27876F27876E2F8E2FE7B
:100A54007876E204F2E5E6540260FA7875E5E7F2A6
:080A64008EE718E214F270E2C3
:020A6C00803DCB
:100A6E007871E2F908E2FA08E27876C9F208EAF259
:100A7E0008E9F27876E2FB08E2FA08E2F9120337A7
:100A8E00FEE22401F218E23400F2E5E6540260FAC6
:0D0A9E007875E5E7F28EE718E214F270D6E5
:0D0AAB00E5E6540260FA7875E5E7F2D2E95D
:010AB800221B
:030023000211EFD8
:1011EF00C0E0C0D075D000C00030981EC2987851B2
:1011FF00E2C3942050147855E22408F8A699785544
:10120F00E204541FF27851E204F230991FC2997828
:10121F0052E2D3940140107854E22428F8E6F5996D
:10122F007854E204541FF27852E214F2D000D0D076
:03123F00D0E032CA
:1012E100C2ACE47854F27856F27852F208F27855AA
:1012F100F27851F2D29CC29FD29E43878043D8801C
:10130100EF24FC601324FE60091470127C037DF746
:1013110080107C037DF3800A7C037DCC80047C03F8
:071321007DE68DAAECF5BA90
:0113280022A2
:1016A1007852E2D3942050F8C2AC7852E270048FA1
:1016B10099800F7856E22428F8A6077856E2045458
:0A16C1001FF27852E204F2D2AC22CC
:051C08007851E2FF220B
:0B1B1E007852E270037F01227F00225A
:101835007851E260FBC2AC7853E22408F8E6FF7801
:0D18450053E204541FF27851E214F2D2ACC9
:011852002273
:03000000020D6787
:0C0D6700787FE4F6D8FD758147020DAEE0
:10033700BB010689828A83E0225002E722BBFE02C4
:09034700E32289828A83E49322F7
:10035000BB010689828A83F0225002F722BBFE018C
:02036000F32286
:10036200C2D5EC30E709B2D5E4C39DFDE49CFCEEB6
:1003720030E715B2D5E4C39FFFE49EFE120584C3A5
:10038200E49DFDE49CFC800312058430D507C3E4A0
:060392009FFFE49EFE2225
:10039800E88FF0A4CC8BF0A42CFCE98EF0A42CFC04
:1003A8008AF0EDA42CFCEA8EF0A4CDA8F08BF0A482
:1003B8002DCC3825F0FDE98FF0A42CCD35F0FCEBE1
:1003C8008EF0A4FEA9F0EB8FF0A4CFC5F02ECD39A6
:0F03D800FEE43CFCEAA42DCE35F0FDE43CFC2213
:1003E70075F008758200EF2FFFEE33FECD33CDCCCD
:1003F70033CCC58233C5829BED9AEC99E582984050
:100407000CF582EE9BFEED9AFDEC99FC0FD5F0D62C
:10041700E4CEFBE4CDFAE4CCF9A88222B800C1B956
:100427000059BA002DEC8BF084CFCECDFCE5F0CB94
:10043700F97818EF2FFFEE33FEED33FDEC33FCEBCD
:1004470033FB10D703994004EB99FB0FD8E5E4F988
:10045700FA227818EF2FFFEE33FEED33FDEC33FC75
:10046700C933C910D7059BE99A4007EC9BFCE99A69
:10047700F90FD8E0E4C9FAE4CCFB2275F010EF2FAE
:10048700FFEE33FEED33FDCC33CCC833C810D707AE
:100497009BEC9AE899400AED9BFDEC9AFCE899F8E9
:0E04A7000FD5F0DAE4CDFBE4CCFAE4C8F9227C
:1004B500EB9FF5F0EA9E42F0E99D42F0EC6480C8BE
:0604C50064809845F0225E
:1004CB00EB9FF5F0EA9E42F0E99D42F0E89C45F087
:0104DB0022FE
:1004DC00E8600FECC313FCED13FDEE13FEEF13FFFE
:0304EC00D8F12222
:1004EF00E8600FEFC333FFEE33FEED33FDEC33FC6B
:0304FF00D8F1220F
:0C050200ECF208EDF208EEF208EFF22235
:10050E00A8828583F0D083D082120525120525128C
:10051E000525120525E473E493A3C583C5F0C583B1
:10052E00C8C582C8F0A3C583C5F0C583C8C582C837
:01053E00229A
:10053F00D083D082E493F208740193F2087402938B
:09054F00F208740393F2740473C2
:10055800EF4E6012EF60010EEDBB010B89828A83BA
:10056800F0A3DFFCDEFA2289F05007F709DFFCA9C7
:0C057800F022BBFEFCF309DFFCA9F0221E
:100D73000207AAE493A3F8E493A34003F68001F2E5
:100D830008DFF48029E493A3F85407240CC8C33381
:100D9300C4540F4420C8834004F456800146F6DF50
:100DA300E4800B0102040810204080901A25E47EA1
:100DB300019360BCA3FF543F30E509541FFEE49345
:100DC300A360010ECF54C025E060A840B8E493A30C
:100DD300FAE493A3F8E493A3C8C582C8CAC583CA37
:100DE300F0A3C8C582C8CAC583CADFE9DEE780BEEF
:011A320000B3
:10058400BC000BBE0029EF8DF084FFADF022E4CC5B
:10059400F875F008EF2FFFEE33FEEC33FCEE9DEC24
:1005A400984005FCEE9DFE0FD5F0E9E4CEFD22ED6A
:1005B400F8F5F0EE8420D21CFEADF075F008EF2FB4
:1005C400FFED33FD4007985006D5F0F222C398FDA5
:0505D4000FD5F0EA2242
:00000001FF
