:101AE80041485431302DCEC2B6C83A0020202020BB
:101AF80000CAAAB6C83A000D0A0072657365740D6B
:021B08000A00D1
:071E5A008500E7E7E7E7E779
:061F3300E4F593F5942291
:081F14008F993099FDC299225A
:1017D000786EEBF208EAF208E9F2786EE2FB08E2D2
:1017E000FA08E2F91202B3601A786EE2FB0808E226
:1017F000F92401F218E2FA3400F21202B3FF121FC8
:041800001480D72257
:100026007F0E121D04E4FF121E1EE4FF121D63E480
:10003600FF121D14E4FF121D247F03121D727F019F
:04004600121D442221
:101689007864EEF208EFF2C3E2940A18E29400508B
:101699001BE2FE08E2FFE4FCFDFBFA7901F8C31244
:1016A900043F500878647480F208E4F2E4FF121EE3
:1016B9007B7F01121E7B7865E224FFFF18E234FF6D
:0516C900FE121C882246
:1016CE00D2EA7FFF1212E0E4FDFF120FB8E4FF1220
:1016DE001A297F32121C737F021217537F03121ABC
:1016EE00C57F021217127BFE7A0079007F06121553
:1016FE00667DDC7C05E4FF121B0A7F01121A52D2B2
:04170E00B9D2AF227B
:10189B00E4FF121E7B7F01121E127F03121D817F3C
:1018AB00007E801216897F02121CF4E4FF121CE4E6
:1018BB007F01121E7BE5AD20E7FBE5AD30E7FB2298
:10116600E49000CFF09000A2741EF09000C2E090D0
:1011760000A3F09000C3E09000A4F09000C4E090BB
:1011860000A5F09000C5E09000A6F09000C6E090A3
:1011960000A7F09000C7E09000A8F09000C8E0908B
:1011A60000A9F09000C9E09000AAF0E49000D0F009
:1011B6009000D0E0C394095018E024A2F582E434EC
:1011C60000F583E0FF9000CFE02FF0A3E004F0806D
:1011D600DF9000CFE0FFC3E49FFF7401940090000E
:0311E600ABEFF07C
:0111E90022E3
:100A1D0078641204C90000000078681204C900004F
:100A2D000000121E36121F5DEF70FA121F96900015
:100A3D00C4EFF0121F939000C5EFF0121F96E478EB
:100A4D0064E2FB08E2F908E2FA08E2CBF8EB4FFFAB
:100A5D00EAFEE9FDE8FC7808120479786412048C4A
:100A6D00121F93E47864E2FB08E2F908E2FA08E267
:100A7D00CBF8EB4FFFEAFEE9FDE8FC786412048C3D
:100A8D007864E2FC08E2FD08E2FE08E2FFE41201F0
:100A9D00F4E4FBFA79B4784312004EE4FBFA798062
:100AAD007845120157120232786812048CE47B6487
:100ABD00FAF9F8C0007868E2FC08E2FD08E2FE08E9
:100ACD00E2FFD00012039F9000C4EFF0E47B64FAC4
:100ADD00F9F8C0007868E2FC08E2FD08E2FE08E2E1
:100AED00FFD00012039FAC00AD01AE02AF03E47B5B
:100AFD000AFAF9F812039F7804120479C004C005AC
:100B0D00C006C007E47B64FAF9F8C0007868E2FC1F
:100B1D0008E2FD08E2FE08E2FFD00012039FAC00E0
:100B2D00AD01AE02AF03E47B0AFAF9F812039FACF4
:100B3D0000AD01AE02AF03D003D002D001D000EF63
:0D0B4D004BFFEE4AED49EC489000C5EFF07B
:010B5A002278
:100F04007E007F057D007BFE7A0079641204E27E18
:100F1400007F057D007BFE7A0079691204E2786621
:100F2400742EF2786BF21205637808E29000C6F032
:100F340008E2A3F008E2A3F008E2A3F07808E2FFD5
:100F4400C4540F24307864F27808E2540F243078C3
:100F540065F27809E2FFC4540F24307867F29000F8
:100F6400C8E0FFC4540F24307869F2E0540F2430F1
:100F740008F2A3E0FFC4540F2430786CF27BFF7AAC
:100F84001A79E81217D07BFE7A0079641217D07BA5
:100F9400FF7A1A79F41217D07BFF7A1A79F91217AB
:100FA400D07BFE7A0079691217D07BFF7A1A79FF19
:030FB4001217D041
:010FB7002217
:0E1928001211667B017A0079A27D0A121ED888
:1019360078647414F2D2E87864E2FF14F2EF70F778
:02194600C2E8F5
:0D1948009000CA7401F09000CAE070FA220D
:100E3400E4785FF29000CB12049800001C1F7860E5
:100E44001204C9000000009000C27403F0A374E807
:100E5400F0121F33121F84121F8812189B120026CF
:100E640012104C1216CE7F071215B4121DFAEFB4ED
:100E740002F97F007E01121F2C7BFF7A1B7902127C
:100E840017D07F01121B8C120A1D120F041219288D
:100E9400121E86785FE204F2E2D39405500875A42A
:100EA40004E4F5A480EAE4785FF208E2FC08E2FDD9
:100EB40008E2FE08E2FFE4FAF9F8EF2401FFEA3E53
:100EC400FEE93DFDE83CFC786012048CE4FF121B53
:100ED4008C120F04E47FB4FEFDFC7860E2FB08E2B0
:100EE400F908E2FA08E2CBF8C3120455700C120AAE
:0F0EF4001D78601204C9000000001219288091B7
:010F030022CB
:03004B0002126737
:10126700C0E0C0F0C083C082C0D075D000C000C04D
:0D12770001C002C003C004C005C006C007CE
:10128400121E427850EFF2E230E61D121EB0EF70EB
:10129400127B017A007982121F757805EEF208EF4D
:1012A400F280E89000CAE4F07850E230E50590005E
:1012B400CAE4F07850E230E4089000CAE4F0121F67
:0112C4000029
:1012C500D007D006D005D004D003D002D001D0007D
:0B12D500D0D0D082D083D0F0D0E03227
:031E6100810700F6
:0C1DEE00C2807FF47E01121982D2802294
:061F39005394DFD2952253
:061F3F005394DFC295225D
:041F80004394202244
:061F45005394EFD2942238
:061F4B005394EFC2942242
:0B1E65005394EFD2945394DFD29522E7
:101A0000121F397F087E00121D54121F457F087E69
:101A100000121D54121F3F7F087E00121D54121F1A
:091A20004B7F087E00121D5422C8
:10146600787FEFF278817480F2E418F27880E2C334
:1014760094085033121F4B7F037E00121D54787F51
:10148600E2FF7881E25F6005121F398003121F3F79
:10149600121F457F037E00121D54787FE2FF25E070
:1014A600F208E204F280C5121F4B7F087E00121D6F
:0B14B60054121F807F087E00121D549E
:0114C1002208
:10140900E4787FF2121F4B121F807F08FE121D54D1
:10141900E47880F27880E2C394085032121F457F45
:10142900017E00121D54E47881F230950204F278AD
:101439007FE2FF25E0FF7881E24F787FF2121F4BB0
:101449007F087E00121D547880E204F280C6121FC4
:0C145900807F087E00121D54787FE2FFA7
:011465002264
:10151500E4787FF208F2121F4B121F807F08FE123B
:101525001D54121F457F087E00121D54309518C3A7
:101535007880E2946418E29400500C08E22401F2E9
:1015450018E23400F280E57880E26464700218E203
:101555007002FF22121F4B7F087E00121D547F016F
:011565002263
:10180400121F4B7F087E00121D54121F3F7F087E5B
:1018140000121D54121F457F087E00121D54121F12
:101824004B7F087E00121D54121F807F087E001219
:031834001D54221E
:10183700121F4B7F087E00121D54121F397F087E2E
:1018470000121D54121F457F087E00121D54121FDF
:101857004B7F087E00121D54121F3F7F087E001227
:031867001D5422EB
:101B6D00121F3F7F087E00121D54121F457F087EF5
:0F1B7D0000121D54121F397F087E00121D5422C2
:101BC900121A007F71121466121515121409787E03
:0C1BD900EFF2121837121B6D787EE2FF4D
:011BE50022DD
:101C0000E4787DF2121BC9787DEFF2E25468B408E3
:061C1000037F01227F00AA
:011C160022AB
:101A7B00121A007F701214661215157FAC121466C1
:101A8B001215157F33121466121515E4FF12146626
:071A9B00121515121B6D224C
:101C1700121A007F701214661215157FBA12146615
:071C2700121515121B6D22BE
:10056300E4786EF208F208F208F208F208F20812D0
:1005730004C900000000E47878F208F208F208F2F7
:10058300121C00EF700C12104C7F1E7E0012198299
:1005930080EE121A7B7F4B7E00121982E4787AF286
:1005A30008F2121BC9EF30E7227FE47E05121D54C7
:1005B300787A08E2FF2401F218E2FE3400F2C3EF76
:1005C3009464EE940040DB800280D7121A007F719E
:1005D300121466121515121409786EEFF21218042C
:1005E300121409786FEFF21218041214097870EFDD
:1005F300F21218041214097871EFF212180412148B
:10060300097872EFF21218041214097873EFF212D8
:100613001837121B6D786FE2FFE47874E2FB08E28F
:10062300F908E2FA08E2CBF8EB4FFFEAFEE9FDE84E
:10063300FC7808120479787412048C7870E2FFE471
:100643007874E2FB08E2F908E2FA08E2CBF8EB4F30
:10065300FFEAFEE9FDE8FC780812047978741204D5
:100663008C7871E2FFE47874E2FB08E2F908E2FABD
:1006730008E2CBF8EB4FFFEAFEE9FDE8FC787412E1
:10068300048C7874E2FC08E2FD08E2FE08E2FF78DD
:1006930004120466787412048CE47FE87E03FDFC84
:1006A3007874E2FB08E2F908E2FA08E2CBF81203F5
:1006B30014E4FB7A04F9F812039FE4FB7A04F9F8D3
:1006C30012039F7878EEF208EFF218E2FE08E2FFD9
:1006D3007C007D641202DE7E007F0ACFCDCFCECCBC
:1006E300CE1202DEAB077878E2FE08E2FF7C007DE3
:1006F300641202DEEFC454F04B780AF27878E2FE1B
:1007030008E2FF7C007D641202DE7E007F0ACFCD0B
:10071300CFCECCCE1202DEEDC4F8540FC868FFEC86
:10072300C454F048780BEFF278741204C900000047
:10073300007871E2FFE47874E2FB08E2F908E2FA78
:1007430008E2CBF8EB4FFFEAFEE9FDE8FC7808127C
:100753000479787412048C7872E2FFE47874E2FB13
:1007630008E2F908E2FA08E2CBF8EB4FFFEAFEE908
:10077300FDE8FC7808120479787412048C7873E22B
:10078300FFE408E2FB08E2F908E2FA08E2CBF8EB3F
:100793004FFFEAFEE9FDE8FC787412048C7874E2FA
:1007A300FC08E2FD08E2FE08E2FFEEED540FFDE473
:1007B300FC787412048CE47FD07E07FDFC7874E22D
:1007C300FB08E2F908E2FA08E2CBF8120314E4FBAF
:1007D3007A04F9F812039FE4FB7A04F9F812039FF1
:1007E300EF240C7879F2EE34FE18F2E2FE08E2FF11
:1007F3007C007D641202DE7E007F0ACFCDCFCECC9B
:10080300CE1202DEAB077878E2FE08E2FF7C007DC1
:10081300641202DEEFC454F04B7808F27878E2FEFB
:1008230008E2FF7C007D641202DE7E007F0ACFCDEA
:10083300CFCECCCE1202DEEDC4F8540FC868FFEC65
:08084300C454F0487809EFF2FB
:01084B00228A
:10104C00121E657F1E7E2B121D54121A007F701209
:10105C0014661215157FE11214661215157F08120D
:10106C001466121515E4FF121466121515121B6D79
:10107C007FF47E01121982121C00EF704E121C17A5
:10108C007F647E001219827F1E7E2B121D54121A51
:10109C00007F701214661215157FE112146612157A
:1010AC00157F08121466121515E4FF12146612153A
:1010BC0015121B6D787CE204F2E2C3940A40037FA4
:0D10CC0000227FF47E0112198280AC7F01AA
:0110D90022F4
:10179400780E742EF27813F27807E2700C12104C63
:1017A4007807EFF2E2700280FE1205637808E278AF
:1017B4000CF27809E2780DF2780AE27811F2780BEB
:0B17C400E27812F27FDC7E0512198231
:0117CF0022F7
:1015FC007F017E00121D547F017E00121D547F015D
:10160C007E00121D547F017E00121D547F017E004E
:10161C00121D547F017E00121D547F017E00121D8D
:10162C00547F017E00121D547F017E00121D547FD9
:07163C00017E00121D542283
:10134900E47816F27816E2C39408505478197402B6
:10135900F22082097819E2FF04F2EF70F41215FC09
:101369001215FC1215FCE47825F230820204F27899
:10137900197402F23082097819E2FF04F2EF70F46D
:101389007819E264016019782AE2FF25E0F2E2FFA8
:101399007825E2FEEF4E782AF27816E204F280A46C
:0113A9002221
:100B5B005393FBC2827F137E00121982D28243937E
:100B6B00041215FC1215FC1215FC1215FC30820335
:100B7B00020C5578197402F22082097819E2FF04ED
:100B8B00F2EF70F478197402F23082097819E2FFEF
:100B9B0004F2EF70F4121349782AE27817F2121369
:100BAB0049782AE27826F2121349782AE2781BF266
:100BBB00121349782AE2781CF2121349782AE27848
:100BCB0027F2D282781CE2FF18E22FFF7817E22F70
:100BDB00FF7826E22F18F27827E2FF7825E2B50797
:100BEB001E7817E27828F27826E27829F2781BE251
:100BFB007818F2781CE2781AF27827E27824F278E7
:100C0B0018E275F00A84FF781DE4F208EFF2781809
:100C1B00E275F00A84781FE5F0F2781AE275F00AB3
:100C2B00847820E5F0F27828E275F00A847821F2D6
:100C3B007828E275F00A847822E5F0F27829E275DB
:100C4B00F00A847823E5F0F2800DE4781DF208F2C7
:0B0C5B0008F27821F208F25393FB220C
:041F84005393FC2255
:101B8C00EF14600F047017C2807FC87E00121D54C2
:0F1B9C00D28022C2817FC87E00121D54D28122C6
:0D1DC700EF146006047005C28022C2812264
:0D1DD400EF146006047005D28022D2812237
:041F88004394062256
:0F1D54000000000000EF1F70011E144E70F222FD
:10198200AD07AC067FFA7E00121D547FFA7E00126C
:101992001D547FFA7E00121D547FFA7E00121D54E0
:0A19A200ED1D70011C144C70DB22D7
:101CE400EF6009E5A3448054F7F5A32253A37722B8
:101CAF00EF5401FFC4333354C0FFE5A354B74FF5CE
:021CBF00A3225E
:101CF400EF5403FFC454F0FFE5A354C74FF5A322E8
:0B1DFA00E5AD30E3047F0280027F01B2
:011E050022BA
:0C1E0600EF5407FFE5A354F04FF5A322B2
:061F5100E5AD5480FF2203
:061F5700E5AD5440FF223D
:0C1E1200EF5407FFE5AD54F84FF5AD228A
:041F8C0043B3102229
:0B1E7000EF600443B3082253B3F722D5
:0E1D8100EF25E05406FFE5B354F94FF5B32209
:0B1E7B00EF600443B3012253B3FE22CA
:101C8800E5B35406FD53B3F9EFF5B4EEF5B5AF057A
:031C9800EF42B365
:011C9B002226
:10000300E5B35406F953B3F9AFB5AD077C00ED7D05
:0F00130000FCAFB4EFFDAF01EF42B3AE04AF0599
:0100220022BB
:101B4D00E5B35408F953B3F7AFABAD077C00ED7DAA
:0F1B5D0000FCAFB6EFFDAF01EF42B3AE04AF0532
:011B6C002256
:031F9000AFAC22D1
:101D0400EF25E025E0543CFFE5D354C34FF5D3223F
:0C1E1E00EF5403FFE5D354FC4FF5D32232
:0F1D6300EFC4333354C0FFE5D2543F4FF5D222C3
:101D1400EFC43354E05420FFE5D254DF4FF5D22210
:101D2400EF25E025E0541CFFE5D254E34FF5D22221
:101D3400EF25E025E0541CFFE5D254E34FF5D22211
:0C1E2A00EF5403FFE5D254FC4FF5D22228
:0F1D7200EFC4333354C0FFE5D1543F4FF5D122B6
:101D4400EFC43354E05420FFE5D154DF4FF5D122E2
:0B1E36007F0143D380AE071FEE70FA5F
:011E4100227E
:031F9300AFD522A5
:031F9600AFD422A3
:061F5D00E5D35440FF2211
:101CD300E5D154187E007803CEC313CE13D8F9FF91
:011CE30022DE
:0A1E9C008FE7E5E630E1FBAFE72237
:071F2C00EFF5AFEEF5AF2267
:0A1E8600AFAFAEAF8FAFAF068FAF66
:011E9000222F
:041A29007864EFF2FC
:101A2D00E4FF121BE67865EFF218E2B4010708E255
:101A3D004401F280067865E254FEF27865E2FDE439
:041A4D00FF121B2C3D
:011A51002272
:041A52007864EFF2D3
:101A5600E4FF121BE67865EFF218E2B4010708E22C
:101A66004402F280067865E254FDF27865E2FDE410
:041A7600FF121B2C14
:011A7A002249
:041712007864EFF216
:10171600E4FF121BE67865EFF218E214600F14601E
:10172600182402701E7865E254F7F280167865E296
:101736004408F2E254FBF2800A7865E24408F2E2D9
:0C1746004404F27865E2FDE4FF121B2C65
:011752002274
:0711EA00782BEFF208EDF293
:1011F100E4FF121BE6782DEFF2782BE224FB60234B
:1012010014603D24027055782CE260047F00800256
:101211007F01EF5401FFC454F0FF782DE254EF4FEA
:10122100F28039782CE260047F0080027F01EF5464
:1012310001FFC43354E0FF782DE254DF4FF2801CEC
:10124100782CE260047F0080027F01EF5401FFC42B
:10125100333354C0FF782DE254BF4FF2782DE2FDB5
:05126100E4FF121B2C4C
:011266002265
:0B1E42007D707F07121B2CEF5470FF17
:011E4D002272
:101AA2007D707F07121B2CEF5470782EF2E2FFC07C
:101AB200077F07121BE6EF540FFED0E04E782EF29E
:021AC200E2FF41
:011AC40022FF
:101CC1007401A807088002C333D8FCFD7F07121BEB
:021CD1002C22C3
:081F1C00121F0AEF5470FF22AE
:070FB8007864EFF208EDF28E
:100FBF007F02121BE67866EFF27F01121BE678675D
:100FCF00EFF27864E224FA500624076049805B78D8
:100FDF0064E2FF7401A807088002C333D8FCFF78CE
:100FEF0066E24FF218E2601618E2FF7401A80708D4
:100FFF008002C333D8FCFF7867E24FF2802C78640D
:10100F00E2FF7401A807088002C333D8FCF4FF780D
:10101F0067E25FF280147866743FF218E260077837
:10102F0067743FF28004E47867F27866E2FD7F022E
:0C103F00121B2C7867E2FD7F01121B2CB5
:01104B002282
:0412E0007864EFF24D
:1012E4007F02121BE67865EFF27F01121BE6786637
:1012F400EFF27864E224FA50062407602F803378F2
:1013040064E2FF7401A807088002C333D8FCF4FF29
:101314007865E25FF218E2FF7401A807088002C34F
:1013240033D8FCF4FF7866E25FF28006E47865F275
:1013340008F27865E2FD7F02121B2C7866E2FD7FDD
:0413440001121B2C4B
:011348002282
:101566007864EFF208EBF208EAF208E9F27864E24E
:1015760014600A24FB5020600424067030121EA654
:10158600786CEFF27864E2242AFF08E2FB08E2FABC
:1015960008E2F9120C66227864E2240AFF08E2FBEC
:0E15A60008E2FA08E2F91202B3FD121B2C2231
:10164300782FEFF208EBF208EAF208E9F2782FE2DA
:1016530014600824FB600424067011782FE2FF084D
:10166300E2FB08E2FA08E2F912084C22782FE2249E
:101673000AFF121BE67830E2FB08E2FA08E2F9EF10
:061683001202CC7F0122DF
:021B0A00AB0727
:101B0C00EC540FFFC454F0FF7864E2540F4FF2EB27
:0F1B1C00540FFFE254F04FF2E2FD7F04121B2C36
:011B2B002297
:101C2E00E47833F2EF24FE5403FFE254FC4FF2E269
:061C3E00FD7F03121B2CC8
:011C4400227D
:0A1EA6007F03121BE6EF2402FF2267
:081F2400EF2411FF121B2C2217
:040D5B007834EFF207
:100D5F007F02121BE67835EFF27F01121BE6783621
:100D6F00EFF27834E214602814603C14605414607D
:100D7F006E147003020E0724056003020E227835ED
:100D8F00E254017837F218E254017838F2020E2853
:100D9F007835E2FFC31354017837F218E2FFC3131B
:100DAF0054017838F280727835E2FF1313543F54B0
:100DBF00017837F218E2FF1313543F54017838F2D9
:100DCF0080577835E2FF131313541F54017837F20D
:100DDF0018E2FF131313541F54017838F2803A7836
:100DEF0035E2FFC4540F54017837F218E2FFC454B0
:100DFF000F54017838F280217835E2FFC41354077D
:100E0F0054017837F218E2FFC413540754017838AD
:100E1F00F28006E47837F208F27838E2FF25E0FF37
:040E2F0018E22FFF97
:010E3300229C
:061F63007F08121BE622BC
:101C45007F08121BE6EF54F0FFE4C4F854F0C868AF
:071C5500EFC4540F48FF2209
:1013AA00EF14601B14602314602B14603314603B29
:1013BA00240570427F11121BE67839EFF2803B7FD9
:1013CA0012121BE67839EFF280307F13121BE6788F
:1013DA0039EFF280257F14121BE67839EFF2801A72
:1013EA007F15121BE67839EFF2800F7F16121BE683
:0E13FA007839EFF28004E47839F27839E2FFB6
:0114080022C1
:101C7300E47864F2EF547FFFE254804FF2E2FD7F99
:041C830005121B2CFF
:011C8700223A
:041AC5007864EFF260
:101AC9007F06121BE67865EFF218E25403FF25E062
:0E1AD900FF08E254F94FF2E2FD7F06121B2CCB
:011AE70022DC
:041753007864EFF2D5
:101757007F06121BE67865EFF218E2601024FE7030
:10176700187865E24420F2E254F7F280167865E2D1
:1017770054DFF2E254F7F2800A7865E254DFF2E2CE
:0C1787004408F27865E2FD7F06121B2C7E
:011793002233
:0A1EB0007F17121BE6EF5401FF221A
:0C1E4E007F17121BE6EFC3135401FF22A4
:0D1DE1007F17121BE6EFC4540F5401FF22C0
:0E1D8F007F17121BE6EFC41354075401FF2206
:101C5C007F17121BE6EF5430FFE4C4F854F0C86849
:071C6C00EFC4540F48FF22F2
:0A1EBA007F17121BE6EF5403FF220E
:061F69007F17121BE622A7
:0A1EC4007F08121BE6EF540FFF2207
:0A1ECE007F09121BE6EF5401FF220A
:01004A002293
:0D1D9D00EF543F783AF2E2FD7F1C121B2C40
:011DAA002216
:0418CB00783BEFF285
:1018CF007F1D121BE6783CEFF218E260047F018067
:1018DF00027F00EF5401FF25E025E0FF783CE25442
:0A18EF00FB4FF2E2FD7F1D121B2CDF
:0118F90022CC
:04195500783DEFF2F8
:101959007F1D121BE6783EEFF218E260047F0180DA
:10196900027F00EF5401FF25E0FF783EE254FD4F6E
:08197900F2E2FD7F1D121B2CA0
:011981002243
:0419AC00783FEFF29F
:1019B0007F1D121BE67840EFF218E260047F018081
:1019C000027F00EF5401FF7840E254FE4FF2E2FD47
:0519D0007F1D121B2C1D
:0119D50022EF
:0A1ED800786CEDF27FA0120C662278
:0A1EE200786CEDF27FB0120C66225E
:0E1DAB00EF44A8FF7845E2786CF2120C662235
:061F6F007F60121BE62258
:061F75007F0812084C2257
:0E1DB900121F0AEF540EFFE4C313EF13FF22B4
:0A1EEC00C2E97FE3121E9CD2E92236
:101C9C00121F697E00EF54407806CEC313CE13D8C2
:031CAC00F9FF221B
:0A1EF600C2E97FE2121E9CD2E9222D
:0A1F0000C2E97FE1121E9CD2E92223
:091F0A00C2E97FFF121E9CD2E91E
:011F130022AB
:0418FA007846EFF24B
:1018FE007F06121BE67847EFF218E260047F018044
:10190E00027F00EF5401FFC454F0FF7847E254EF1A
:09191E004FF2E2FD7F06121B2CC2
:01192700229D
:04186A007848EFF2D9
:10186E007F06121BE67849EFF218E260047F0180D2
:10187E00027F00EF5401FFC43333335480FF7849A5
:0C188E00E2547F4FF2E2FD7F06121B2C9B
:01189A00222B
:101BE600C2E98FE7E5E6540260FAAFE7E4F5E7E518
:091BF600E6540260FAAFE7D2E9FF
:011BFF0022C3
:101B2C00C2E9EF2420F5E7E5E6540260FAAFE7AE30
:101B3C00058EE7E5E6540260FA7868E5E7F2D2E94B
:011B4C002276
:0D084C007851EFF208EBF208EAF208E9F249
:1008590078597401F27852E27857F27851E21460CB
:100869000C24FB600824FE601A2408703D121EA6A1
:100879007855EFF208F2C2E97851E2240AFF121E14
:100889009C802D121DB97851EFF2E2C394075012E2
:10089900121F6F7855EFF208F2C2E97F61121E9CB0
:1008A900800EE47856F218F28006E47856F218F2CF
:0508B9007857E27045D4
:1008BE007852E208E208E2785AF2E4F5E77859E273
:1008CE00701018E2FF785AE2F8A607785AE204F29E
:1008DE008004E47859F2E5E6540260FA7858E5E7C8
:1008EE00F27855E214F270D27858E2FF785AE2F8B4
:0208FE00A6074B
:0A090000020A0F7857E26401705BF1
:10090A007852E208E2FA08E2FF785AEAF208EFF2CD
:10091A00E4F5E77859E2701A18E2FF785AE2FC081F
:10092A00E2F5828C83EFF0E22401F218E23400F25D
:10093A008004E47859F2E5E6540260FA7858E5E76B
:10094A00F27855E214F270C87858E2FF785AE2FC5D
:08095A0008E2F5828C83EFF046
:0A096200020A0F7857E264FE7044A9
:10096C007852E208E208E2785AF2E4F5E77859E2C4
:10097C00701018E2FF785AE2F8EFF2785AE204F2BB
:10098C008004E47859F2E5E6540260FA7858E5E719
:10099C00F27855E214F270D27858E2FF785AE2F805
:0209AC00EFF268
:0209AE00805F68
:1009B0007852E2F908E2FA08E2785AC9F208EAF253
:1009C00008E9F2E4F5E77859E2701C18E2FF785A7A
:1009D000E2FB08E2FA08E2F9EF1202CCE22401F2AB
:1009E00018E23400F28004E47859F2E5E65402603B
:1009F000FA7858E5E7F27855E214F270C67858E2D2
:0F0A0000FF785AE2FB08E2FA08E2F9EF1202CCA3
:0D0A0F00D2E97851E2FE7856E2FDEEEDFFEF
:010A1C0022B7
:0A0C66007869EBF208EAF208E9F2FF
:0A0C70007869E2FDC2E98FE7702900
:100C7A00E208E208E2786EF2786EE2F8E6FE786E52
:100C8A00E204F2E5E6540260FA786DE5E7F28EE7EF
:060C9A0018E214F270E202
:080CA000020D4DED64017039F5
:100CA8007869E208E2FB08E2786ECBF208EBF278AA
:100CB8006EE2FA08E2F5828A83E0FEE22401F21885
:100CC800E23400F2E5E6540260FA786DE5E7F28E68
:070CD800E718E214F270D8E6
:070CDF00806CED64FE702A39
:100CE6007869E208E208E2786EF2786EE2F8E2FEEF
:100CF600786EE204F2E5E6540260FA786DE5E7F212
:080D06008EE718E214F270E21E
:020D0E00803D26
:100D10007869E2F908E2FA08E2786EC9F208EAF2C4
:100D200008E9F2786EE2FB08E2FA08E2F91202B38F
:100D3000FEE22401F218E23400F2E5E6540260FA21
:0D0D4000786DE5E7F28EE718E214F270D648
:0D0D4D00E5E6540260FA786DE5E7F2D2E9C0
:010D5A002276
:030023000214C202
:1014C200C0E0C0D075D000C00030981EC298784AE3
:1014D200E2C394205014784EE22408F8A699784E7C
:1014E200E204541FF2784AE204F230991FC299785A
:1014F2004BE2D394014010784DE22428F8E6F599A6
:10150200784DE204541FF2784BE214F2D000D0D0AE
:03151200D0E032F4
:1015B400C2ACE4784DF2784FF2784BF208F2784EF0
:1015C400F2784AF2D29CC29FD29E43878043D8804D
:1015D400EF24FC601324FE60091470127C037DF771
:1015E40080107C037DF3800A7C037DCC80047C0323
:0715F4007DE68DAAECF5BABB
:0115FB0022CD
:1019D600784BE2D3942050F8C2AC784BE270048F77
:1019E60099800F784FE22428F8A607784FE204542E
:0A19F6001FF2784BE204F2D2AC229B
:051F7B00784AE2FF229C
:0B1E9100784BE270037F01227F0022EB
:101BAB00784AE260FBC2AC784CE22408F8E6FF7896
:0D1BBB004CE204541FF2784AE214F2D2AC5E
:011BC80022FA
:10004E00EC4D6011E8497017ED33EC3304600DE4AC
:10005E00FCFFFEFD22E933E8330470F802029E1223
:10006E00026958046009E4CC248150062850090224
:10007E0002A82840030202A5C0E0EB4A7044B980F2
:10008E0006D0E0FB020294EF4E701CBD8008EBFF21
:10009E00EAFEE9FD80EBE98DF0A4FEE5F002013702
:1000AE00E9CDF9EAFEEBFFEF89F0A4FCE5F0CE898D
:1000BE00F0A42EFFE435F0CD89F0A42DFEE435F04A
:1000CE008067EF4E7005BD80D780C3EF8BF0A4AC78
:1000DE00F0EE8BF0A42CFCE435F0F8EF8AF0A42CB3
:1000EE00E5F038FCE433CB8DF0A42CFCE5F03BF8C6
:1000FE00EE8AF0A42CFCE5F038F8E433CF89F0A4B6
:10010E002CFCE5F038CF3400CE89F0A42FFFE5F0BB
:10011E003EFEE433C98DF0A42EFEE5F039CD8AF013
:10012E00A42FFFE5F03EFEE43DFD33D0E0FB50078B
:10013E000BBB000F0202A8EC2CFCEF33FFEE33FEDC
:06014E00ED33FD0202800A
:100154000202A8EC5D046005E85904700302029EE3
:10016400120269580460F6EC4860F2EC7004FDFE7B
:10017400FF22C860DB2481C85009C398600250067E
:100184000202A59850CAF582E9294B4A7005AB8250
:1001940002029475F0007C1A7880C3EF9BEE9AED0E
:1001A40099400DC3EF9BFFEE9AFEED99FDE842F0F6
:1001B400DC23ACF0D0E0FFD0E0FED0E0FDAB822049
:1001C400E7101BEB60BAEC2CFCEF33FFEE33FEEDD3
:1001D40033FD020280E803F830E705C0F075F00053
:1001E400EF2FFFEE33FEED33FD40B830E7C280AAB7
:1001F40075F020800E75F010800575F0087D007E86
:10020400007F003392D530D503120431EC33401013
:10021400EF33FFEE33FEED33FDEC33FCD5F0ED228E
:0E022400E5F0247EA2D513CC92E7CDCEFF22CA
:10023200EDD2E7CD33EC3392D524814006E4FFFEC4
:10024200FDFC22FCE4CFCECDCC24E0501174FF8023
:10025200EDC3CC13CCCD13CDCE13CECF13CF0470C0
:07026200F030D5DE0204318B
:10026900E9D2E7C933E833F892D5EDD2E7CD33ECDB
:0702790033FC5002B2D52254
:10028000EC30E7100FBF000C0EBE00080DBD0004DF
:100290000BEB6014A2D5EB13FCED92E7FD2274FF8B
:1002A000FCFDFEFF22E480F8A2D574FF13FC7D80E4
:0302B000E480EFF8
:030000000210DA11
:0C10DA00787FE4F6D8FD758147021121F3
:1002B300BB010689828A83E0225002E722BBFE0249
:0902C300E32289828A83E493227C
:1002CC00BB010689828A83F0225002F722BBFE0111
:0202DC00F3220B
:1002DE00C2D5EC30E709B2D5E4C39DFDE49CFCEE3B
:1002EE0030E715B2D5E4C39FFFE49EFE12050EC3A0
:1002FE00E49DFDE49CFC800312050E30D507C3E49B
:06030E009FFFE49EFE22A9
:10031400E88FF0A4CC8BF0A42CFCE98EF0A42CFC88
:100324008AF0EDA42CFCEA8EF0A4CDA8F08BF0A406
:100334002DCC3825F0FDE98FF0A42CCD35F0FCEB65
:100344008EF0A4FEA9F0EB8FF0A4CFC5F02ECD392A
:0F035400FEE43CFCEAA42DCE35F0FDE43CFC2297
:1003630075F008758200EF2FFFEE33FECD33CDCC51
:1003730033CCC58233C5829BED9AEC99E5829840D4
:100383000CF582EE9BFEED9AFDEC99FC0FD5F0D6B1
:10039300E4CEFBE4CDFAE4CCF9A88222B800C1B9DB
:1003A3000059BA002DEC8BF084CFCECDFCE5F0CB19
:1003B300F97818EF2FFFEE33FEED33FDEC33FCEB52
:1003C30033FB10D703994004EB99FB0FD8E5E4F90D
:1003D300FA227818EF2FFFEE33FEED33FDEC33FCFA
:1003E300C933C910D7059BE99A4007EC9BFCE99AEE
:1003F300F90FD8E0E4C9FAE4CCFB2275F010EF2F33
:10040300FFEE33FEED33FDCC33CCC833C810D70732
:100413009BEC9AE899400AED9BFDEC9AFCE899F86D
:0E0423000FD5F0DAE4CDFBE4CCFAE4C8F92200
:0E043100C3E49FFFE49EFEE49DFDE49CFC22DC
:10043F00EB9FF5F0EA9E42F0E99D42F0EC6480C834
:06044F0064809845F022D4
:10045500EB9FF5F0EA9E42F0E99D42F0E89C45F0FD
:010465002274
:10046600E8600FECC313FCED13FDEE13FEEF13FF74
:03047600D8F12298
:10047900E8600FEFC333FFEE33FEED33FDEC33FCE1
:03048900D8F12285
:0C048C00ECF208EDF208EEF208EFF222AC
:10049800A8828583F0D083D0821204AF1204AF12F1
:1004A80004AF1204AFE473E493A3C583C5F0C58316
:1004B800C8C582C8F0A3C583C5F0C583C8C582C8AE
:0104C8002211
:1004C900D083D082E493F208740193F20874029302
:0904D900F208740393F274047339
:1004E200EF4E6012EF60010EEDBB010B89828A8331
:1004F200F0A3DFFCDEFA2289F05007F709DFFCA93E
:0C050200F022BBFEFCF309DFFCA9F02294
:1010E600020E34E493A3F8E493A34003F68001F2DE
:1010F60008DFF48029E493A3F85407240CC8C3330B
:10110600C4540F4420C8834004F456800146F6DFD9
:10111600E4800B0102040810204080901E5AE47EF1
:10112600019360BCA3FF543F30E509541FFEE493CE
:10113600A360010ECF54C025E060A840B8E493A395
:10114600FAE493A3F8E493A3C8C582C8CAC583CAC0
:10115600F0A3C8C582C8CAC583CADFE9DEE780BE78
:011E6400007D
:10050E00BC000BBE0029EF8DF084FFADF022E4CCD1
:10051E00F875F008EF2FFFEE33FEEC33FCEE9DEC9A
:10052E00984005FCEE9DFE0FD5F0E9E4CEFD22EDE0
:10053E00F8F5F0EE8420D21CFEADF075F008EF2F2A
:10054E00FFED33FD4007985006D5F0F222C398FD1B
:05055E000FD5F0EA22B8
:00000001FF
