:101AE50041485431302DCEC2B6C83A0020202020BE
:101AF50000CAAAB6C83A000D0A0072657365740D6E
:021B05000A00D4
:071E57008500E7E7E7E7E77C
:061F3000E4F593F5942294
:081F11008F993099FDC299225D
:1017CD00786EEBF208EAF208E9F2786EE2FB08E2D5
:1017DD00FA08E2F91202B3601A786EE2FB0808E229
:1017ED00F92401F218E2FA3400F21202B3FF121FCB
:0417FD001180D7225E
:100026007F0E121D01E4FF121E1BE4FF121D60E489
:10003600FF121D11E4FF121D217F03121D6F7F01A8
:04004600121D412224
:101686007864EEF208EFF2C3E2940A18E29400508E
:101696001BE2FE08E2FFE4FCFDFBFA7901F8C31247
:1016A600043F500878647480F208E4F2E4FF121EE6
:1016B600787F01121E787865E224FFFF18E234FF76
:0516C600FE121C85224C
:1016CB00D2EA7FFF1212DDE4FDFF120FB5E4FF1229
:1016DB001A267F32121C707F021217507F03121AC8
:1016EB00C27F0212170F7BFE7A0079007F0612155C
:1016FB00637DDC7C05E4FF121B077F01121A4FD2BE
:04170B00B9D2AF227E
:10189800E4FF121E787F01121E0F7F03121D7E7F48
:1018A800007E801216867F02121CF1E4FF121CE1F2
:1018B8007F01121E78E5AD20E7FBE5AD30E7FB229E
:10116300E49000CFF09000A2741EF09000C2E090D3
:1011730000A3F09000C3E09000A4F09000C4E090BE
:1011830000A5F09000C5E09000A6F09000C6E090A6
:1011930000A7F09000C7E09000A8F09000C8E0908E
:1011A30000A9F09000C9E09000AAF0E49000D0F00C
:1011B3009000D0E0C394095018E024A2F582E434EF
:1011C30000F583E0FF9000CFE02FF0A3E004F08070
:1011D300DF9000CFE0FFC3E49FFF74019400900011
:0311E300ABEFF07F
:0111E60022E6
:100A1D0078641204C90000000078681204C900004F
:100A2D000000121E33121F5AEF70FA121F8F900022
:100A3D00C4EFF0121F8C9000C5EFF0121F8FE478F9
:100A4D0064E2FB08E2F908E2FA08E2CBF8EB4FFFAB
:100A5D00EAFEE9FDE8FC7808120479786412048C4A
:100A6D00121F8CE47864E2FB08E2F908E2FA08E26E
:100A7D00CBF8EB4FFFEAFEE9FDE8FC786412048C3D
:100A8D007864E2FC08E2FD08E2FE08E2FFE41201F0
:100A9D00F4E4FBFA79B4784312004EE4FBFA798062
:100AAD007845120157120232786812048CE47B6487
:100ABD00FAF9F8C0007868E2FC08E2FD08E2FE08E9
:100ACD00E2FFD00012039F9000C4EFF0E47B64FAC4
:100ADD00F9F8C0007868E2FC08E2FD08E2FE08E2E1
:100AED00FFD00012039FAC00AD01AE02AF03E47B5B
:100AFD000AFAF9F812039F7804120479C004C005AC
:100B0D00C006C007E47B64FAF9F8C0007868E2FC1F
:100B1D0008E2FD08E2FE08E2FFD00012039FAC00E0
:100B2D00AD01AE02AF03E47B0AFAF9F812039FACF4
:100B3D0000AD01AE02AF03D003D002D001D000EF63
:0D0B4D004BFFEE4AED49EC489000C5EFF07B
:010B5A002278
:100F01007E007F057D007BFE7A0079641204E27E1B
:100F1100007F057D007BFE7A0079691204E2786624
:100F2100742EF2786BF21205637808E29000C6F035
:100F310008E2A3F008E2A3F008E2A3F07808E2FFD8
:100F4100C4540F24307864F27808E2540F243078C6
:100F510065F27809E2FFC4540F24307867F29000FB
:100F6100C8E0FFC4540F24307869F2E0540F2430F4
:100F710008F2A3E0FFC4540F2430786CF27BFF7AAF
:100F81001A79E51217CD7BFE7A0079641217CD7BB1
:100F9100FF7A1A79F11217CD7BFF7A1A79F61217B7
:100FA100CD7BFE7A0079691217CD7BFF7A1A79FC25
:030FB1001217CD47
:010FB400221A
:0E1925001211637B017A0079A27D0A121ED591
:1019330078647414F2D2E87864E2FF14F2EF70F77B
:02194300C2E8F8
:0D1945009000CA7401F09000CAE070FA2210
:100E3400E4785FF29000CB12049800001C1F7860E5
:100E44001204C9000000009000C27403F0A374E807
:100E5400F0121F30121F8112189812002612104926
:100E64001216CB7F071215B1121DF7EFB402F97FEA
:100E7400007E01121F297BFF7A1A79FF1217CD7F9A
:100E840001121B89120A1D120F01121925121E8349
:100E9400785FE204F2E2D39405500875A404E4F503
:100EA400A480EAE4785FF208E2FC08E2FD08E2FECE
:100EB40008E2FFE4FAF9F8EF2401FFEA3EFEE93D17
:100EC400FDE83CFC786012048CE4FF121B89120FCD
:100ED40001E47FB4FEFDFC7860E2FB08E2F908E27D
:100EE400FA08E2CBF8C3120455700C120A1D78609C
:0C0EF4001204C9000000001219258091B2
:010F000022CE
:03004B000212643A
:10126400C0E0C0F0C083C082C0D075D000C000C050
:0D12740001C002C003C004C005C006C007D1
:10128100121E3F7850EFF2E230E61D121EADEF70F4
:10129100127B017A007982121F727805EEF208EF53
:1012A100F280E89000CAE4F07850E230E505900061
:1012B100CAE4F07850E230E4089000CAE4F0121E6B
:0112C100FD2F
:1012C200D007D006D005D004D003D002D001D00080
:0B12D200D0D0D082D083D0F0D0E0322A
:031E5E00810700F9
:0C1DEB00C2807FF47E0112197FD280229A
:061F36005394DFD2952256
:061F3C005394DFC2952260
:041F7D004394202247
:061F42005394EFD294223B
:061F48005394EFC2942245
:0B1E62005394EFD2945394DFD29522EA
:1019FD00121F367F087E00121D51121F427F087E76
:101A0D0000121D51121F3C7F087E00121D51121F26
:091A1D00487F087E00121D5122D1
:10146300787FEFF278817480F2E418F27880E2C337
:1014730094085033121F487F037E00121D51787F5A
:10148300E2FF7881E25F6005121F368003121F3C82
:10149300121F427F037E00121D51787FE2FF25E079
:1014A300F208E204F280C5121F487F087E00121D75
:0B14B30051121F7D7F087E00121D51AA
:0114BE00220B
:10140600E4787FF2121F48121F7D7F08FE121D51DD
:10141600E47880F27880E2C394085032121F427F4B
:10142600017E00121D51E47881F230950204F278B3
:101436007FE2FF25E0FF7881E24F787FF2121F48B6
:101446007F087E00121D517880E204F280C6121FCA
:0C1456007D7F087E00121D51787FE2FFB0
:011462002267
:10151200E4787FF208F2121F48121F7D7F08FE1244
:101522001D51121F427F087E00121D51309518C3B3
:101532007880E2946418E29400500C08E22401F2EC
:1015420018E23400F280E57880E26464700218E206
:101552007002FF22121F487F087E00121D517F0178
:011562002266
:10180100121F487F087E00121D51121F3C7F087E67
:1018110000121D51121F427F087E00121D51121F1E
:10182100487F087E00121D51121F7D7F087E001225
:031831001D512224
:10183400121F487F087E00121D51121F367F087E3A
:1018440000121D51121F427F087E00121D51121FEB
:10185400487F087E00121D51121F3C7F087E001233
:031864001D5122F1
:101B6A00121F3C7F087E00121D51121F427F087E01
:0F1B7A0000121D51121F367F087E00121D5122CE
:101BC6001219FD7F71121463121512121406787E13
:0C1BD600EFF2121834121B6A787EE2FF56
:011BE20022E0
:101BFD00E4787DF2121BC6787DEFF2E25468B408EA
:061C0D00037F01227F00AD
:011C130022AE
:101A78001219FD7F701214631215127FAC121463D1
:101A88001215127F33121463121512E4FF12146335
:071A9800121512121B6A2255
:101C14001219FD7F701214631215127FBA12146325
:071C2400121512121B6A22C7
:10056300E4786EF208F208F208F208F208F20812D0
:1005730004C900000000E47878F208F208F208F2F7
:10058300121BFDEF700C1210497F1E7E0012197FA3
:1005930080EE121A787F4B7E0012197FE4787AF28C
:1005A30008F2121BC6EF30E7227FE47E05121D51CD
:1005B300787A08E2FF2401F218E2FE3400F2C3EF76
:1005C3009464EE940040DB800280D71219FD7F71A2
:1005D300121463121512121406786EEFF212180138
:1005E300121406786FEFF21218011214067870EFE6
:1005F300F21218011214067871EFF2121801121494
:10060300067872EFF21218011214067873EFF212E1
:100613001834121B6A786FE2FFE47874E2FB08E295
:10062300F908E2FA08E2CBF8EB4FFFEAFEE9FDE84E
:10063300FC7808120479787412048C7870E2FFE471
:100643007874E2FB08E2F908E2FA08E2CBF8EB4F30
:10065300FFEAFEE9FDE8FC780812047978741204D5
:100663008C7871E2FFE47874E2FB08E2F908E2FABD
:1006730008E2CBF8EB4FFFEAFEE9FDE8FC787412E1
:10068300048C7874E2FC08E2FD08E2FE08E2FF78DD
:1006930004120466787412048CE47FE87E03FDFC84
:1006A3007874E2FB08E2F908E2FA08E2CBF81203F5
:1006B30014E4FB7A04F9F812039FE4FB7A04F9F8D3
:1006C30012039F7878EEF208EFF218E2FE08E2FFD9
:1006D3007C007D641202DE7E007F0ACFCDCFCECCBC
:1006E300CE1202DEAB077878E2FE08E2FF7C007DE3
:1006F300641202DEEFC454F04B780AF27878E2FE1B
:1007030008E2FF7C007D641202DE7E007F0ACFCD0B
:10071300CFCECCCE1202DEEDC4F8540FC868FFEC86
:10072300C454F048780BEFF278741204C900000047
:10073300007871E2FFE47874E2FB08E2F908E2FA78
:1007430008E2CBF8EB4FFFEAFEE9FDE8FC7808127C
:100753000479787412048C7872E2FFE47874E2FB13
:1007630008E2F908E2FA08E2CBF8EB4FFFEAFEE908
:10077300FDE8FC7808120479787412048C7873E22B
:10078300FFE408E2FB08E2F908E2FA08E2CBF8EB3F
:100793004FFFEAFEE9FDE8FC787412048C7874E2FA
:1007A300FC08E2FD08E2FE08E2FFEEED540FFDE473
:1007B300FC787412048CE47FD07E07FDFC7874E22D
:1007C300FB08E2F908E2FA08E2CBF8120314E4FBAF
:1007D3007A04F9F812039FE4FB7A04F9F812039FF1
:1007E300EF240C7879F2EE34FE18F2E2FE08E2FF11
:1007F3007C007D641202DE7E007F0ACFCDCFCECC9B
:10080300CE1202DEAB077878E2FE08E2FF7C007DC1
:10081300641202DEEFC454F04B7808F27878E2FEFB
:1008230008E2FF7C007D641202DE7E007F0ACFCDEA
:10083300CFCECCCE1202DEEDC4F8540FC868FFEC65
:08084300C454F0487809EFF2FB
:01084B00228A
:10104900121E627F1E7E2B121D511219FD7F701216
:1010590014631215127FE11214631215127F08121C
:101069001463121512E4FF121463121512121B6A8B
:101079007FF47E0112197F121BFDEF704E121C14B2
:101089007F647E0012197F7F1E7E2B121D5112195B
:10109900FD7F701214631215127FE1121463121589
:1010A900127F08121463121512E4FF121463121549
:1010B90012121B6A787CE204F2E2C3940A40037FAD
:0D10C90000227FF47E0112197F80AC7F01B0
:0110D60022F7
:10179100780E742EF27813F27807E2700C12104969
:1017A1007807EFF2E2700280FE1205637808E278B2
:1017B1000CF27809E2780DF2780AE27811F2780BEE
:0B17C100E27812F27FDC7E0512197F37
:0117CC0022FA
:1015F9007F017E00121D517F017E00121D517F0166
:101609007E00121D517F017E00121D517F017E0057
:10161900121D517F017E00121D517F017E00121D96
:10162900517F017E00121D517F017E00121D517FE5
:07163900017E00121D512289
:10134600E47816F27816E2C39408505478197402B9
:10135600F22082097819E2FF04F2EF70F41215F90F
:101366001215F91215F9E47825F230820204F278A2
:10137600197402F23082097819E2FF04F2EF70F470
:101386007819E264016019782AE2FF25E0F2E2FFAB
:101396007825E2FEEF4E782AF27816E204F280A46F
:0113A6002224
:100B5B005393FBC2827F137E0012197FD282439381
:100B6B00041215F91215F91215F91215F930820341
:100B7B00020C5578197402F22082097819E2FF04ED
:100B8B00F2EF70F478197402F23082097819E2FFEF
:100B9B0004F2EF70F4121346782AE27817F212136C
:100BAB0046782AE27826F2121346782AE2781BF26C
:100BBB00121346782AE2781CF2121346782AE2784E
:100BCB0027F2D282781CE2FF18E22FFF7817E22F70
:100BDB00FF7826E22F18F27827E2FF7825E2B50797
:100BEB001E7817E27828F27826E27829F2781BE251
:100BFB007818F2781CE2781AF27827E27824F278E7
:100C0B0018E275F00A84FF781DE4F208EFF2781809
:100C1B00E275F00A84781FE5F0F2781AE275F00AB3
:100C2B00847820E5F0F27828E275F00A847821F2D6
:100C3B007828E275F00A847822E5F0F27829E275DB
:100C4B00F00A847823E5F0F2800DE4781DF208F2C7
:0B0C5B0008F27821F208F25393FB220C
:041F81005393FC2258
:101B8900EF14600F047017C2807FC87E00121D51C8
:0F1B9900D28022C2817FC87E00121D51D28122CC
:0D1DC400EF146006047005C28022C2812267
:0D1DD100EF146006047005D28022D281223A
:0F1D51000000000000EF1F70011E144E70F22200
:10197F00AD07AC067FFA7E00121D517FFA7E001272
:10198F001D517FFA7E00121D517FFA7E00121D51EC
:0A199F00ED1D70011C144C70DB22DA
:101CE100EF6009E5A3448054F7F5A32253A37722BB
:101CAC00EF5401FFC4333354C0FFE5A354B74FF5D1
:021CBC00A32261
:101CF100EF5403FFC454F0FFE5A354C74FF5A322EB
:0B1DF700E5AD30E3047F0280027F01B5
:011E020022BD
:0C1E0300EF5407FFE5A354F04FF5A322B5
:061F4E00E5AD5480FF2206
:061F5400E5AD5440FF2240
:0C1E0F00EF5407FFE5AD54F84FF5AD228D
:041F850043B3102230
:0B1E6D00EF600443B3082253B3F722D8
:0E1D7E00EF25E05406FFE5B354F94FF5B3220C
:0B1E7800EF600443B3012253B3FE22CD
:101C8500E5B35406FD53B3F9EFF5B4EEF5B5AF057D
:031C9500EF42B368
:011C98002229
:10000300E5B35406F953B3F9AFB5AD077C00ED7D05
:0F00130000FCAFB4EFFDAF01EF42B3AE04AF0599
:0100220022BB
:101B4A00E5B35408F953B3F7AFABAD077C00ED7DAD
:0F1B5A0000FCAFB6EFFDAF01EF42B3AE04AF0535
:011B69002259
:031F8900AFAC22D8
:101D0100EF25E025E0543CFFE5D354C34FF5D32242
:0C1E1B00EF5403FFE5D354FC4FF5D32235
:0F1D6000EFC4333354C0FFE5D2543F4FF5D222C6
:101D1100EFC43354E05420FFE5D254DF4FF5D22213
:101D2100EF25E025E0541CFFE5D254E34FF5D22224
:101D3100EF25E025E0541CFFE5D254E34FF5D22214
:0C1E2700EF5403FFE5D254FC4FF5D2222B
:0F1D6F00EFC4333354C0FFE5D1543F4FF5D122B9
:101D4100EFC43354E05420FFE5D154DF4FF5D122E5
:0B1E33007F0143D380AE071FEE70FA62
:011E3E002281
:031F8C00AFD522AC
:031F8F00AFD422AA
:061F5A00E5D35440FF2214
:101CD000E5D154187E007803CEC313CE13D8F9FF94
:011CE00022E1
:0A1E99008FE7E5E630E1FBAFE7223A
:071F2900EFF5AFEEF5AF226A
:0A1E8300AFAFAEAF8FAFAF068FAF69
:011E8D002232
:041A26007864EFF2FF
:101A2A00E4FF121BE37865EFF218E2B4010708E25B
:101A3A004401F280067865E254FEF27865E2FDE43C
:041A4A00FF121B2943
:011A4E002275
:041A4F007864EFF2D6
:101A5300E4FF121BE37865EFF218E2B4010708E232
:101A63004402F280067865E254FDF27865E2FDE413
:041A7300FF121B291A
:011A7700224C
:04170F007864EFF219
:10171300E4FF121BE37865EFF218E214600F146024
:10172300182402701E7865E254F7F280167865E299
:101733004408F2E254FBF2800A7865E24408F2E2DC
:0C1743004404F27865E2FDE4FF121B296B
:01174F002277
:0711E700782BEFF208EDF296
:1011EE00E4FF121BE3782DEFF2782BE224FB602351
:1011FE0014603D24027055782CE260047F0080025A
:10120E007F01EF5401FFC454F0FF782DE254EF4FED
:10121E00F28039782CE260047F0080027F01EF5467
:10122E0001FFC43354E0FF782DE254DF4FF2801CEF
:10123E00782CE260047F0080027F01EF5401FFC42E
:10124E00333354C0FF782DE254BF4FF2782DE2FDB8
:05125E00E4FF121B2952
:011263002268
:0B1E3F007D707F07121B29EF5470FF1D
:011E4A002275
:101A9F007D707F07121B29EF5470782EF2E2FFC082
:101AAF00077F07121BE3EF540FFED0E04E782EF2A4
:021ABF00E2FF44
:011AC1002202
:101CBE007401A807088002C333D8FCFD7F07121BEE
:021CCE002922C9
:081F1900121F07EF5470FF22B4
:070FB5007864EFF208EDF291
:100FBC007F02121BE37866EFF27F01121BE3786766
:100FCC00EFF27864E224FA500624076049805B78DB
:100FDC0064E2FF7401A807088002C333D8FCFF78D1
:100FEC0066E24FF218E2601618E2FF7401A80708D7
:100FFC008002C333D8FCFF7867E24FF2802C786410
:10100C00E2FF7401A807088002C333D8FCF4FF7810
:10101C0067E25FF280147866743FF218E26007783A
:10102C0067743FF28004E47867F27866E2FD7F0231
:0C103C00121B297867E2FD7F01121B29BE
:011048002285
:0412DD007864EFF250
:1012E1007F02121BE37865EFF27F01121BE3786640
:1012F100EFF27864E224FA50062407602F803378F5
:1013010064E2FF7401A807088002C333D8FCF4FF2C
:101311007865E25FF218E2FF7401A807088002C352
:1013210033D8FCF4FF7866E25FF28006E47865F278
:1013310008F27865E2FD7F02121B297866E2FD7FE3
:0413410001121B2951
:011345002285
:101563007864EFF208EBF208EAF208E9F27864E251
:1015730014600A24FB5020600424067030121EA35A
:10158300786CEFF27864E2242AFF08E2FB08E2FABF
:1015930008E2F9120C66227864E2240AFF08E2FBEF
:0E15A30008E2FA08E2F91202B3FD121B292237
:10164000782FEFF208EBF208EAF208E9F2782FE2DD
:1016500014600824FB600424067011782FE2FF0850
:10166000E2FB08E2FA08E2F912084C22782FE224A1
:101670000AFF121BE37830E2FB08E2FA08E2F9EF16
:061680001202CC7F0122E2
:021B0700AB072A
:101B0900EC540FFFC454F0FF7864E2540F4FF2EB2A
:0F1B1900540FFFE254F04FF2E2FD7F04121B293C
:011B2800229A
:101C2B00E47833F2EF24FE5403FFE254FC4FF2E26C
:061C3B00FD7F03121B29CE
:011C41002280
:0A1EA3007F03121BE3EF2402FF226D
:081F2100EF2411FF121B29221D
:040D5B007834EFF207
:100D5F007F02121BE37835EFF27F01121BE3783627
:100D6F00EFF27834E214602814603C14605414607D
:100D7F006E147003020E0724056003020E227835ED
:100D8F00E254017837F218E254017838F2020E2853
:100D9F007835E2FFC31354017837F218E2FFC3131B
:100DAF0054017838F280727835E2FF1313543F54B0
:100DBF00017837F218E2FF1313543F54017838F2D9
:100DCF0080577835E2FF131313541F54017837F20D
:100DDF0018E2FF131313541F54017838F2803A7836
:100DEF0035E2FFC4540F54017837F218E2FFC454B0
:100DFF000F54017838F280217835E2FFC41354077D
:100E0F0054017837F218E2FFC413540754017838AD
:100E1F00F28006E47837F208F27838E2FF25E0FF37
:040E2F0018E22FFF97
:010E3300229C
:061F60007F08121BE322C2
:101C42007F08121BE3EF54F0FFE4C4F854F0C868B5
:071C5200EFC4540F48FF220C
:1013A700EF14601B14602314602B14603314603B2C
:1013B700240570427F11121BE37839EFF2803B7FDF
:1013C70012121BE37839EFF280307F13121BE37898
:1013D70039EFF280257F14121BE37839EFF2801A78
:1013E7007F15121BE37839EFF2800F7F16121BE38C
:0E13F7007839EFF28004E47839F27839E2FFB9
:0114050022C4
:101C7000E47864F2EF547FFFE254804FF2E2FD7F9C
:041C800005121B2905
:011C8400223D
:041AC2007864EFF263
:101AC6007F06121BE37865EFF218E25403FF25E068
:0E1AD600FF08E254F94FF2E2FD7F06121B29D1
:011AE40022DF
:041750007864EFF2D8
:101754007F06121BE37865EFF218E2601024FE7036
:10176400187865E24420F2E254F7F280167865E2D4
:1017740054DFF2E254F7F2800A7865E254DFF2E2D1
:0C1784004408F27865E2FD7F06121B2984
:011790002236
:0A1EAD007F17121BE3EF5401FF2220
:0C1E4B007F17121BE3EFC3135401FF22AA
:0D1DDE007F17121BE3EFC4540F5401FF22C6
:0E1D8C007F17121BE3EFC41354075401FF220C
:101C59007F17121BE3EF5430FFE4C4F854F0C8684F
:071C6900EFC4540F48FF22F5
:0A1EB7007F17121BE3EF5403FF2214
:061F66007F17121BE322AD
:0A1EC1007F08121BE3EF540FFF220D
:0A1ECB007F09121BE3EF5401FF2210
:01004A002293
:0D1D9A00EF543F783AF2E2FD7F1C121B2946
:011DA7002219
:0418C800783BEFF288
:1018CC007F1D121BE3783CEFF218E260047F01806D
:1018DC00027F00EF5401FF25E025E0FF783CE25445
:0A18EC00FB4FF2E2FD7F1D121B29E5
:0118F60022CF
:04195200783DEFF2FB
:101956007F1D121BE3783EEFF218E260047F0180E0
:10196600027F00EF5401FF25E0FF783EE254FD4F71
:08197600F2E2FD7F1D121B29A6
:01197E002246
:0419A900783FEFF2A2
:1019AD007F1D121BE37840EFF218E260047F018087
:1019BD00027F00EF5401FF7840E254FE4FF2E2FD4A
:0519CD007F1D121B2923
:0119D20022F2
:0A1ED500786CEDF27FA0120C66227B
:0A1EDF00786CEDF27FB0120C662261
:0E1DA800EF44A8FF7845E2786CF2120C662238
:061F6C007F60121BE3225E
:061F72007F0812084C225A
:0E1DB600121F07EF540EFFE4C313EF13FF22BA
:0A1EE900C2E97FE3121E99D2E9223C
:101C9900121F667E00EF54407806CEC313CE13D8C8
:031CA900F9FF221E
:0A1EF300C2E97FE2121E99D2E92233
:0A1EFD00C2E97FE1121E99D2E9222A
:091F0700C2E97FFF121E99D2E924
:011F100022AE
:0418F7007846EFF24E
:1018FB007F06121BE37847EFF218E260047F01804A
:10190B00027F00EF5401FFC454F0FF7847E254EF1D
:09191B004FF2E2FD7F06121B29C8
:0119240022A0
:041867007848EFF2DC
:10186B007F06121BE37849EFF218E260047F0180D8
:10187B00027F00EF5401FFC43333335480FF7849A8
:0C188B00E2547F4FF2E2FD7F06121B29A1
:01189700222E
:101BE300C2E98FE7E5E6540260FAAFE7E4F5E7E51B
:091BF300E6540260FAAFE7D2E902
:011BFC0022C6
:101B2900C2E9EF2420F5E7E5E6540260FAAFE7AE33
:101B3900058EE7E5E6540260FA7868E5E7F2D2E94E
:011B49002279
:0D084C007851EFF208EBF208EAF208E9F249
:1008590078597401F27852E27857F27851E21460CB
:100869000C24FB600824FE601A2408703D121EA3A4
:100879007855EFF208F2C2E97851E2240AFF121E14
:1008890099802D121DB67851EFF2E2C394075012E8
:10089900121F6C7855EFF208F2C2E97F61121E99B6
:1008A900800EE47856F218F28006E47856F218F2CF
:0508B9007857E27045D4
:1008BE007852E208E208E2785AF2E4F5E77859E273
:1008CE00701018E2FF785AE2F8A607785AE204F29E
:1008DE008004E47859F2E5E6540260FA7858E5E7C8
:1008EE00F27855E214F270D27858E2FF785AE2F8B4
:0208FE00A6074B
:0A090000020A0F7857E26401705BF1
:10090A007852E208E2FA08E2FF785AEAF208EFF2CD
:10091A00E4F5E77859E2701A18E2FF785AE2FC081F
:10092A00E2F5828C83EFF0E22401F218E23400F25D
:10093A008004E47859F2E5E6540260FA7858E5E76B
:10094A00F27855E214F270C87858E2FF785AE2FC5D
:08095A0008E2F5828C83EFF046
:0A096200020A0F7857E264FE7044A9
:10096C007852E208E208E2785AF2E4F5E77859E2C4
:10097C00701018E2FF785AE2F8EFF2785AE204F2BB
:10098C008004E47859F2E5E6540260FA7858E5E719
:10099C00F27855E214F270D27858E2FF785AE2F805
:0209AC00EFF268
:0209AE00805F68
:1009B0007852E2F908E2FA08E2785AC9F208EAF253
:1009C00008E9F2E4F5E77859E2701C18E2FF785A7A
:1009D000E2FB08E2FA08E2F9EF1202CCE22401F2AB
:1009E00018E23400F28004E47859F2E5E65402603B
:1009F000FA7858E5E7F27855E214F270C67858E2D2
:0F0A0000FF785AE2FB08E2FA08E2F9EF1202CCA3
:0D0A0F00D2E97851E2FE7856E2FDEEEDFFEF
:010A1C0022B7
:0A0C66007869EBF208EAF208E9F2FF
:0A0C70007869E2FDC2E98FE7702900
:100C7A00E208E208E2786EF2786EE2F8E6FE786E52
:100C8A00E204F2E5E6540260FA786DE5E7F28EE7EF
:060C9A0018E214F270E202
:080CA000020D4DED64017039F5
:100CA8007869E208E2FB08E2786ECBF208EBF278AA
:100CB8006EE2FA08E2F5828A83E0FEE22401F21885
:100CC800E23400F2E5E6540260FA786DE5E7F28E68
:070CD800E718E214F270D8E6
:070CDF00806CED64FE702A39
:100CE6007869E208E208E2786EF2786EE2F8E2FEEF
:100CF600786EE204F2E5E6540260FA786DE5E7F212
:080D06008EE718E214F270E21E
:020D0E00803D26
:100D10007869E2F908E2FA08E2786EC9F208EAF2C4
:100D200008E9F2786EE2FB08E2FA08E2F91202B38F
:100D3000FEE22401F218E23400F2E5E6540260FA21
:0D0D4000786DE5E7F28EE718E214F270D648
:0D0D4D00E5E6540260FA786DE5E7F2D2E9C0
:010D5A002276
:030023000214BF05
:1014BF00C0E0C0D075D000C00030981EC298784AE6
:1014CF00E2C394205014784EE22408F8A699784E7F
:1014DF00E204541FF2784AE204F230991FC299785D
:1014EF004BE2D394014010784DE22428F8E6F599A9
:1014FF00784DE204541FF2784BE214F2D000D0D0B2
:03150F00D0E032F7
:1015B100C2ACE4784DF2784FF2784BF208F2784EF3
:1015C100F2784AF2D29CC29FD29E43878043D88050
:1015D100EF24FC601324FE60091470127C037DF774
:1015E10080107C037DF3800A7C037DCC80047C0326
:0715F1007DE68DAAECF5BABE
:0115F80022D0
:1019D300784BE2D3942050F8C2AC784BE270048F7A
:1019E30099800F784FE22428F8A607784FE2045431
:0A19F3001FF2784BE204F2D2AC229E
:051F7800784AE2FF229F
:0B1E8E00784BE270037F01227F0022EE
:101BA800784AE260FBC2AC784CE22408F8E6FF7899
:0D1BB8004CE204541FF2784AE214F2D2AC61
:011BC50022FD
:10004E00EC4D6011E8497017ED33EC3304600DE4AC
:10005E00FCFFFEFD22E933E8330470F802029E1223
:10006E00026958046009E4CC248150062850090224
:10007E0002A82840030202A5C0E0EB4A7044B980F2
:10008E0006D0E0FB020294EF4E701CBD8008EBFF21
:10009E00EAFEE9FD80EBE98DF0A4FEE5F002013702
:1000AE00E9CDF9EAFEEBFFEF89F0A4FCE5F0CE898D
:1000BE00F0A42EFFE435F0CD89F0A42DFEE435F04A
:1000CE008067EF4E7005BD80D780C3EF8BF0A4AC78
:1000DE00F0EE8BF0A42CFCE435F0F8EF8AF0A42CB3
:1000EE00E5F038FCE433CB8DF0A42CFCE5F03BF8C6
:1000FE00EE8AF0A42CFCE5F038F8E433CF89F0A4B6
:10010E002CFCE5F038CF3400CE89F0A42FFFE5F0BB
:10011E003EFEE433C98DF0A42EFEE5F039CD8AF013
:10012E00A42FFFE5F03EFEE43DFD33D0E0FB50078B
:10013E000BBB000F0202A8EC2CFCEF33FFEE33FEDC
:06014E00ED33FD0202800A
:100154000202A8EC5D046005E85904700302029EE3
:10016400120269580460F6EC4860F2EC7004FDFE7B
:10017400FF22C860DB2481C85009C398600250067E
:100184000202A59850CAF582E9294B4A7005AB8250
:1001940002029475F0007C1A7880C3EF9BEE9AED0E
:1001A40099400DC3EF9BFFEE9AFEED99FDE842F0F6
:1001B400DC23ACF0D0E0FFD0E0FED0E0FDAB822049
:1001C400E7101BEB60BAEC2CFCEF33FFEE33FEEDD3
:1001D40033FD020280E803F830E705C0F075F00053
:1001E400EF2FFFEE33FEED33FD40B830E7C280AAB7
:1001F40075F020800E75F010800575F0087D007E86
:10020400007F003392D530D503120431EC33401013
:10021400EF33FFEE33FEED33FDEC33FCD5F0ED228E
:0E022400E5F0247EA2D513CC92E7CDCEFF22CA
:10023200EDD2E7CD33EC3392D524814006E4FFFEC4
:10024200FDFC22FCE4CFCECDCC24E0501174FF8023
:10025200EDC3CC13CCCD13CDCE13CECF13CF0470C0
:07026200F030D5DE0204318B
:10026900E9D2E7C933E833F892D5EDD2E7CD33ECDB
:0702790033FC5002B2D52254
:10028000EC30E7100FBF000C0EBE00080DBD0004DF
:100290000BEB6014A2D5EB13FCED92E7FD2274FF8B
:1002A000FCFDFEFF22E480F8A2D574FF13FC7D80E4
:0302B000E480EFF8
:030000000210D714
:0C10D700787FE4F6D8FD75814702111EF9
:1002B300BB010689828A83E0225002E722BBFE0249
:0902C300E32289828A83E493227C
:1002CC00BB010689828A83F0225002F722BBFE0111
:0202DC00F3220B
:1002DE00C2D5EC30E709B2D5E4C39DFDE49CFCEE3B
:1002EE0030E715B2D5E4C39FFFE49EFE12050EC3A0
:1002FE00E49DFDE49CFC800312050E30D507C3E49B
:06030E009FFFE49EFE22A9
:10031400E88FF0A4CC8BF0A42CFCE98EF0A42CFC88
:100324008AF0EDA42CFCEA8EF0A4CDA8F08BF0A406
:100334002DCC3825F0FDE98FF0A42CCD35F0FCEB65
:100344008EF0A4FEA9F0EB8FF0A4CFC5F02ECD392A
:0F035400FEE43CFCEAA42DCE35F0FDE43CFC2297
:1003630075F008758200EF2FFFEE33FECD33CDCC51
:1003730033CCC58233C5829BED9AEC99E5829840D4
:100383000CF582EE9BFEED9AFDEC99FC0FD5F0D6B1
:10039300E4CEFBE4CDFAE4CCF9A88222B800C1B9DB
:1003A3000059BA002DEC8BF084CFCECDFCE5F0CB19
:1003B300F97818EF2FFFEE33FEED33FDEC33FCEB52
:1003C30033FB10D703994004EB99FB0FD8E5E4F90D
:1003D300FA227818EF2FFFEE33FEED33FDEC33FCFA
:1003E300C933C910D7059BE99A4007EC9BFCE99AEE
:1003F300F90FD8E0E4C9FAE4CCFB2275F010EF2F33
:10040300FFEE33FEED33FDCC33CCC833C810D70732
:100413009BEC9AE899400AED9BFDEC9AFCE899F86D
:0E0423000FD5F0DAE4CDFBE4CCFAE4C8F92200
:0E043100C3E49FFFE49EFEE49DFDE49CFC22DC
:10043F00EB9FF5F0EA9E42F0E99D42F0EC6480C834
:06044F0064809845F022D4
:10045500EB9FF5F0EA9E42F0E99D42F0E89C45F0FD
:010465002274
:10046600E8600FECC313FCED13FDEE13FEEF13FF74
:03047600D8F12298
:10047900E8600FEFC333FFEE33FEED33FDEC33FCE1
:03048900D8F12285
:0C048C00ECF208EDF208EEF208EFF222AC
:10049800A8828583F0D083D0821204AF1204AF12F1
:1004A80004AF1204AFE473E493A3C583C5F0C58316
:1004B800C8C582C8F0A3C583C5F0C583C8C582C8AE
:0104C8002211
:1004C900D083D082E493F208740193F20874029302
:0904D900F208740393F274047339
:1004E200EF4E6012EF60010EEDBB010B89828A8331
:1004F200F0A3DFFCDEFA2289F05007F709DFFCA93E
:0C050200F022BBFEFCF309DFFCA9F02294
:1010E300020E34E493A3F8E493A34003F68001F2E1
:1010F30008DFF48029E493A3F85407240CC8C3330E
:10110300C4540F4420C8834004F456800146F6DFDC
:10111300E4800B0102040810204080901E57E47EF7
:10112300019360BCA3FF543F30E509541FFEE493D1
:10113300A360010ECF54C025E060A840B8E493A398
:10114300FAE493A3F8E493A3C8C582C8CAC583CAC3
:10115300F0A3C8C582C8CAC583CADFE9DEE780BE7B
:011E61000080
:10050E00BC000BBE0029EF8DF084FFADF022E4CCD1
:10051E00F875F008EF2FFFEE33FEEC33FCEE9DEC9A
:10052E00984005FCEE9DFE0FD5F0E9E4CEFD22EDE0
:10053E00F8F5F0EE8420D21CFEADF075F008EF2F2A
:10054E00FFED33FD4007985006D5F0F222C398FD1B
:05055E000FD5F0EA22B8
:00000001FF
