:100C6A0041485431302DCEC2B6C83A002020202047
:100C7A0000CAAAB6C83A000D0A004C617374206D06
:100C8A006F64653A506F776572204F666621004C33
:100C9A00617374206D6F64653A4465657020536CA6
:100CAA0065657021004C617374206D6F64653A4DFF
:100CBA00656D6F727920526574656E74696F6E2CFA
:100CCA002054696D6572204F666621004C61737409
:100CDA00206D6F64653A4D656D6F72792052657447
:100CEA00656E74696F6E2C2054696D6572204F6E43
:100CFA0021004C617374206D6F64653A52656769AF
:100D0A007374657220526574656E74696F6E210022
:100D1A004572726F72204F722052657365727665E2
:100D2A0064210041485431305F496E697420666914
:100D3A00616C202121210D0A0050726F6772616D6A
:100D4A00207374617274696E672E2E2E0D0A006903
:100D5A006E746F205245475245540A00696E746F8B
:0C0D6A002044454550534C4545500A00BC
:07203B008500E7E7E7E7E796
:06211300E4F593F59422AF
:0B203000786EEBF208EAF208E9F222F9
:100026007F0E121EE5E4FF121FF4E4FF121F53E4D5
:10003600FF121EF5E4FF121F057F03121F627F01E8
:04004600121F25223E
:101884007864EEF208EFF2C3E2940A18E29400508E
:101894001BE2FE08E2FFE4FCFDFBFA7901F8C31247
:1018A400043F500878647480F208E4F2E4FF1220E4
:1018B4005C7F0112205C7865E224FFFF18E234FFAC
:0518C400FE121E692266
:1018C900D2EA7FFF121434E4FDFF12119AE4FF12E9
:1018D9001C237F32121E2C7F0212194E7F03121C09
:1018E900BF7F0212190D7BFE7A0079007F0612175D
:1018F900617DDC7C05E4FF121CE27F01121C4CD2E5
:04190900B9D2AF227E
:101A9400E4FF12205C7F01121FE87F03121F71E430
:101AA400FFFE1218847F02121ED5E4FF121EC57FAA
:0F1AB4000112205CE5AD20E7FBE5AD30E7FB223A
:1012BA00E49000CBF09000A2741EF09000C2E0907F
:1012CA0000A3F09000C3E09000A4F09000C4E09066
:1012DA0000A5F09000C5E09000A6F09000C6E0904E
:1012EA0000A7F09000C7E09000A8F09000C8E09036
:1012FA0000A9F09000C9E09000AAF0E49000CCF0B8
:10130A009000CCE0C394095018E024A2F582E4349A
:10131A0000F583E0FF9000CBE02FF0A3E004F0801B
:10132A00DF9000CBE0FFC3E49FFF740194009000BC
:03133A00ABEFF026
:01133D00228D
:100A150078641204980000000078681204980000B9
:100A2500000012200C12213DEF70FA122172900085
:100A3500C4EFF012216F9000C5EFF0122172E47837
:100A450064E2FB08E2F908E2FA08E2CBF8EB4FFFB3
:100A5500EAFEE9FDE8FC7808120479786412048C52
:100A650012216FE47864E2FB08E2F908E2FA08E291
:100A7500CBF8EB4FFFEAFEE9FDE8FC786412048C45
:100A85007864E2FC08E2FD08E2FE08E2FFE41201F8
:100A9500F4E4FBFA79B4784312004EE4FBFA79806A
:100AA5007845120157120232786812048CE47B648F
:100AB500FAF9F8C0007868E2FC08E2FD08E2FE08F1
:100AC500E2FFD00012039F9000C4EFF0E47B64FACC
:100AD500F9F8C0007868E2FC08E2FD08E2FE08E2E9
:100AE500FFD00012039FAC00AD01AE02AF03E47B63
:100AF5000AFAF9F812039F7804120479C004C005B4
:100B0500C006C007E47B64FAF9F8C0007868E2FC27
:100B150008E2FD08E2FE08E2FFD00012039FAC00E8
:100B2500AD01AE02AF03E47B0AFAF9F812039FACFC
:100B350000AD01AE02AF03D003D002D001D000EF6B
:0D0B45004BFFEE4AED49EC489000C5EFF083
:010B52002280
:10104F007E007F057D007BFE7A0079641204B17EFD
:10105F00007F057D007BFE7A0079691204B1786606
:10106F00742EF2786BF21205327808E29000C6F017
:10107F0008E2A3F008E2A3F008E2A3F07808E2FF89
:10108F00C4540F24307864F27808E2540F24307877
:10109F0065F27809E2FFC4540F24307867F29000AC
:1010AF00C8E0FFC4540F24307869F2E0540F2430A5
:1010BF0008F2A3E0FFC4540F2430786CF27BFF7A60
:1010CF000C796A1220301B7A0079641220300B7A67
:1010DF000C79761220307A0C797B1220301B7A0033
:0D10EF0079691220300B7A0C7981122030C3
:0110FC0022D1
:0E1A31001212BA7B017A0079A27D0A1220B946
:101A3F0078647414F2D2E87864E2FF14F2EF70F76E
:021A4F00C2E8EB
:101A51009000CA7401F09000CAE070FA7F02121A75
:021A6100C3229E
:1016BF00E5A45407FF14601714601E14602514600E
:1016CF002C240470327BFF7A0C7984122030227B19
:1016DF00FF7A0C7999122030227BFF7A0C79AF12A6
:1016EF002030227BFF7A0C79D6122030227BFF7AB2
:1016FF000C79FC122030227BFF7A0D791A122030E0
:01170F0022B7
:0F1F350075AE04E4F5CF75CE04439404D2922226
:10161600EF24FE60111460151460192403701C7801
:10162600647401F2801978647402F280127864742A
:1016360003F2800B78647404F28004E47864F27830
:1016460064E2B401057F01121ED57864E26401608C
:1016560009E264026004E2B4030343AE027864E282
:05166600F5A4E4F5A469
:01166B00225C
:100B5300E4785FF208120498000000009000C27469
:100B630003F0A374E8F0122113121F3512210512AA
:100B73002164121A941200261218C91210FDEF7084
:100B8300097BFF7A0D792D1220307BFF7A0D794393
:100B9300122030E4785EF2785EE2C39403501F7F44
:100BA30001121E417F647E00121B7C7F01121E55C1
:100BB3007F647E00121B7C785EE204F280D91216F9
:100BC300BF120A1512104F121A3120921F7F647E32
:100BD30000121B7C209215E4785FF208120498003F
:100BE300000000120A1512104F121A31785FE2D377
:100BF30094005013E204F27F041216167BFF7A0D61
:100C0300795912203080C3E4785FF208E2FC08E2ED
:100C1300FD08E2FE08E2FFE4FAF9F8EF2401FFEA37
:100C23003EFEE93DFDE83CFC786012048CE47FA0C5
:100C33007E05FDFC7860E2FB08E2F908E2FA08E2CF
:100C4300CBF8C312045570157BFF7A0D7966122019
:100C530030120A1578601204980000000012104F39
:060C6300121A31020BCD54
:010C69002268
:03004B000213BBE2
:1013BB00C0E0C0F0C083C082C0D075D000C000C0F8
:0D13CB0001C002C003C004C005C006C00779
:1013D8001220187850EFF2E230E61D122091EF70DB
:1013E800127B017A0079821221557805EEF208EF16
:1013F800F280E89000CAE4F07850E230E505900009
:10140800CAE4F07850E230E4089000CAE4F0122010
:01141800E1F2
:10141900D007D006D005D004D003D002D001D00027
:0B142900D0D0D082D083D0F0D0E032D1
:0320420081070013
:0C1FC400C2807FF47E01121B7CD28022C0
:062119005393BFD28622A1
:06211F005393BFC28622AB
:042160004393402243
:062125005393FBD282225D
:06212B005393FBC2822267
:0B2046005393FBD2825393BFD286223B
:101BFA001221197F087E00121F441221257F087EB8
:101C0A0000121F4412211F7F087E00121F44122156
:091C1A002B7F087E00121F4422FA
:1015BA00787FEFF278817480F2E418F27880E2C3DF
:1015CA009408503312212B7F037E00121F44787F28
:1015DA00E2FF7881E25F6005122119800312211F60
:1015EA001221257F037E00121F44787FE2FF25E047
:1015FA00F208E204F280C512212B7F087E00121F36
:0B160A00441221607F087E00121F4484
:0116150022B2
:10155D00E4787FF212212B1221607F08FE121F44C6
:10156D00E47880F27880E2C3940850321221257F0E
:10157D00017E00121F44E47881F230860204F27875
:10158D007FE2FF25E0FF7881E24F787FF212212B79
:10159D007F087E00121F447880E204F280C612217B
:0C15AD00607F087E00121F44787FE2FF80
:0115B900220F
:10171000E4787FF208F212212B1221607F08FE127A
:101720001F441221257F087E00121F44308618C3F3
:101730007880E2946418E29400500C08E22401F2EC
:1017400018E23400F280E57880E26464700218E206
:101750007002FF2212212B7F087E00121F447F019E
:011760002266
:1019CB0012212B7F087E00121F4412211F7F087EDD
:1019DB0000121F441221257F087E00121F44122182
:1019EB002B7F087E00121F441221607F087E00129D
:0319FB001F442264
:1019FE0012212B7F087E00121F441221197F087EB0
:101A0E0000121F441221257F087E00121F4412214E
:101A1E002B7F087E00121F4412211F7F087E0012AA
:031A2E001F442230
:101D450012211F7F087E00121F441221257F087E65
:0F1D550000121F441221197F087E00121F442222
:101D8200121BFA7F711215BA12171012155D787EA6
:0C1D9200EFF21219FE121D45787EE2FFF0
:011D9E002222
:101DB900E4787DF2121D82787DEFF2E25468B4086E
:061DC900037F01227F00F0
:011DCF0022F1
:101C7500121BFA7F701215BA1217107FAC1215BA23
:101C85001217107F331215BA121710E4FF1215BA86
:071C9500121710121D452279
:101DD000121BFA7F701215BA1217107FBA1215BAB9
:071DE000121710121D45222D
:10053200E4786EF208F208F208F208F208F2081201
:10054200049800000000E47878F208F208F208F259
:10055200121DB9EF70351210FDEF700C780A74FF9E
:10056200F208F27808F208F2787A08E2FF2401F23F
:1005720018E2FE3400F2C3EF9402EE94004003024C
:1005820008437F1E7E00121B7C80C5121C757F4BA8
:100592007E00121B7CE4787AF208F2121D82EF30A0
:1005A200E7227FE47E05121F44787A08E2FF2401E5
:1005B200F218E2FE3400F2C3EF9464EE940040DBE2
:1005C200800280D7121BFA7F711215BA121710120D
:1005D200155D786EEFF21219CB12155D786FEFF29E
:1005E2001219CB12155D7870EFF21219CB12155D4C
:1005F2007871EFF21219CB12155D7872EFF21219BF
:10060200CB12155D7873EFF21219FE121D45786F49
:10061200E2FFE47874E2FB08E2F908E2FA08E2CBCE
:10062200F8EB4FFFEAFEE9FDE8FC7808120479785E
:100632007412048C7870E2FFE47874E2FB08E2F949
:1006420008E2FA08E2CBF8EB4FFFEAFEE9FDE8FC2C
:100652007808120479787412048C7871E2FFE478D5
:1006620074E2FB08E2F908E2FA08E2CBF8EB4FFF8A
:10067200EAFEE9FDE8FC787412048C7874E2FC0866
:10068200E2FD08E2FE08E2FF7804120466787412C2
:10069200048CE47FE87E03FDFC7874E2FB08E2F957
:1006A20008E2FA08E2CBF8120314E4FB7A04F9F840
:1006B20012039FE4FB7A04F9F812039F7878EEF2B2
:1006C20008EFF218E2FE08E2FF7C007D641202DE0F
:1006D2007E007F0ACFCDCFCECCCE1202DEAB077822
:1006E20078E2FE08E2FF7C007D641202DEEFC45471
:1006F200F04B780AF27878E2FE08E2FF7C007D6433
:100702001202DE7E007F0ACFCDCFCECCCE1202DE29
:10071200EDC4F8540FC868FFECC454F048780BEFEE
:10072200F27874120498000000007871E2FFE47815
:1007320074E2FB08E2F908E2FA08E2CBF8EB4FFFB9
:10074200EAFEE9FDE8FC7808120479787412048C58
:100752007872E2FFE47874E2FB08E2F908E2FA0850
:10076200E2CBF8EB4FFFEAFEE9FDE8FC7808120461
:1007720079787412048C7873E2FFE408E2FB08E2F1
:10078200F908E2FA08E2CBF8EB4FFFEAFEE9FDE8EE
:10079200FC787412048C7874E2FC08E2FD08E2FE34
:1007A20008E2FFEEED540FFDE4FC787412048CE4D1
:1007B2007FD07E07FDFC7874E2FB08E2F908E2FADA
:1007C20008E2CBF8120314E4FB7A04F9F812039F4F
:1007D200E4FB7A04F9F812039FEF240C7879F2EE25
:1007E20034FE18F2E2FE08E2FF7C007D641202DEB3
:1007F2007E007F0ACFCDCFCECCCE1202DEAB077801
:1008020078E2FE08E2FF7C007D641202DEEFC4544F
:10081200F04B7808F27878E2FE08E2FF7C007D6413
:100822001202DE7E007F0ACFCDCFCECCCE1202DE08
:10083200EDC4F8540FC868FFECC454F0487809EFCF
:01084200F2C3
:010843002292
:1010FD007E007F047D007BFE7A0079081204B11218
:10110D0020467F1E7E2B121F44121BFA7F70121574
:10111D00BA1217107FE11215BA1217107F081215A7
:10112D00BA121710E4FF1215BA121710121D457FCF
:10113D00F47E01121B7C121DB9EF704E121DD07F73
:10114D00647E00121B7C7F1E7E2B121F44121BFA25
:10115D007F701215BA1217107FE11215BA121710FF
:10116D007F081215BA121710E4FF1215BA121710D4
:10117D00121D45787CE204F2E2C3940A40037F001D
:0C118D00227FF47E01121B7C80AC7F01ED
:011199002233
:10198F00780E742EF27813F27807E2700C1210FDB5
:10199F007807EFF2E2700280FE1205327808E278E3
:1019AF000CF27809E2780DF2780AE27811F2780BEE
:0B19BF00E27812F27FDC7E05121B7C38
:0119CA0022FA
:1017F7007F017E00121F447F017E00121F447F017C
:101807007E00121F447F017E00121F447F017E006D
:10181700121F447F017E00121F447F017E00121FAA
:10182700447F017E00121F447F017E00121F447F08
:07183700017E00121F442294
:10149D00E47816F27816E2C3940850547819740261
:1014AD00F22082097819E2FF04F2EF70F41217F7B7
:1014BD001217F71217F7E47825F230820204F2784A
:1014CD00197402F23082097819E2FF04F2EF70F418
:1014DD007819E264016019782AE2FF25E0F2E2FF53
:1014ED007825E2FEEF4E782AF27816E204F280A417
:0114FD0022CC
:100D76005393FBC2827F137E00121B7CD282439365
:100D8600041217F71217F71217F71217F730820324
:100D9600020E7078197402F22082097819E2FF04B3
:100DA600F2EF70F478197402F23082097819E2FFD2
:100DB60004F2EF70F412149D782AE27817F21214F6
:100DC6009D782AE27826F212149D782AE2781BF2A0
:100DD60012149D782AE2781CF212149D782AE27881
:100DE60027F2D282781CE2FF18E22FFF7817E22F53
:100DF600FF7826E22F18F27827E2FF7825E2B5077A
:100E06001E7817E27828F27826E27829F2781BE233
:100E16007818F2781CE2781AF27827E27824F278C9
:100E260018E275F00A84FF781DE4F208EFF27818EC
:100E3600E275F00A84781FE5F0F2781AE275F00A96
:100E4600847820E5F0F27828E275F00A847821F2B9
:100E56007828E275F00A847822E5F0F27829E275BE
:100E6600F00A847823E5F0F2800DE4781DF208F2AA
:0B0E760008F27821F208F25393FB22EF
:072105005393FE53949F2247
:101AC300EF14601314601C24027023C2957FC87E38
:101AD30000121F44D29522C2967FC87E00121F4473
:0F1AE300D29622C2807FC87E00121F44D280227A
:101E4100EF14600A14600A24027008C29522C29637
:041E510022C2802207
:101E5500EF14600A14600A24027008D29522D29603
:041E650022D28022E3
:042164005394FC2272
:0F1F44000000000000EF1F70011E144E70F2220B
:101B7C00AD07AC067FFA7E00121F447FFA7E00127E
:101B8C001F447FFA7E00121F447FFA7E00121F440E
:0A1B9C00ED1D70011C144C70DB22DB
:101EC500EF6009E5A3448054F7F5A32253A37722D5
:101E9000EF5401FFC4333354C0FFE5A354B74FF5EB
:021EA000A3227B
:101ED500EF5403FFC454F0FFE5A354C74FF5A32205
:0B1FD000E5AD30E3047F0280027F01DA
:011FDB0022E3
:0C1FDC00EF5407FFE5A354F04FF5A322DB
:06213100E5AD5480FF2221
:06213700E5AD5440FF225B
:0C1FE800EF5407FFE5AD54F84FF5AD22B3
:0421680043B310224B
:0B205100EF600443B3082253B3F722F2
:0E1F7100EF25E05406FFE5B354F94FF5B32217
:0B205C00EF600443B3012253B3FE22E7
:101E6900E5B35406FD53B3F9EFF5B4EEF5B5AF0597
:031E7900EF42B382
:011E7C002243
:10000300E5B35406F953B3F9AFB5AD077C00ED7D05
:0F00130000FCAFB4EFFDAF01EF42B3AE04AF0599
:0100220022BB
:101D2500E5B35408F953B3F7AFABAD077C00ED7DD0
:0F1D350000FCAFB6EFFDAF01EF42B3AE04AF0558
:011D4400227C
:03216C00AFAC22F3
:101EE500EF25E025E0543CFFE5D354C34FF5D3225D
:0C1FF400EF5403FFE5D354FC4FF5D3225B
:0F1F5300EFC4333354C0FFE5D2543F4FF5D222D1
:101EF500EFC43354E05420FFE5D254DF4FF5D2222E
:101F0500EF25E025E0541CFFE5D254E34FF5D2223E
:101F1500EF25E025E0541CFFE5D254E34FF5D2222E
:0C200000EF5403FFE5D254FC4FF5D22250
:0F1F6200EFC4333354C0FFE5D1543F4FF5D122C4
:101F2500EFC43354E05420FFE5D154DF4FF5D122FF
:0B200C007F0143D380AE071FEE70FA87
:0120170022A6
:03216F00AFD522C7
:03217200AFD422C5
:06213D00E5D35440FF222F
:101EB400E5D154187E007803CEC313CE13D8F9FFAE
:011EC40022FB
:0A207D008FE7E5E630E1FBAFE72254
:07210C00EFF5AFEEF5AF2285
:0A206700AFAFAEAF8FAFAF068FAF83
:01207100224C
:041C23007864EFF200
:101C2700E4FF121D9F7865EFF218E2B4010708E29E
:101C37004401F280067865E254FEF27865E2FDE43D
:041C4700FF121D0467
:011C4B002276
:041C4C007864EFF2D7
:101C5000E4FF121D9F7865EFF218E2B4010708E275
:101C60004402F280067865E254FDF27865E2FDE414
:041C7000FF121D043E
:011C7400224D
:04190D007864EFF219
:10191100E4FF121D9F7865EFF218E214600F146066
:10192100182402701E7865E254F7F280167865E299
:101931004408F2E254FBF2800A7865E24408F2E2DC
:0C1941004404F27865E2FDE4FF121D048E
:01194D002277
:07133E00782BEFF208EDF23D
:10134500E4FF121D9F782DEFF2782BE224FB60233A
:1013550014603D24027055782CE260047F00800201
:101365007F01EF5401FFC454F0FF782DE254EF4F95
:10137500F28039782CE260047F0080027F01EF540F
:1013850001FFC43354E0FF782DE254DF4FF2801C97
:10139500782CE260047F0080027F01EF5401FFC4D6
:1013A500333354C0FF782DE254BF4FF2782DE2FD60
:0513B500E4FF121D041D
:0113BA002210
:0B2018007D707F07121D04EF5470FF65
:01202300229A
:101C9C007D707F07121D04EF5470782EF2E2FFC0A6
:101CAC00077F07121D9FEF540FFED0E04E782EF2E7
:021CBC00E2FF45
:011CBE002203
:101EA2007401A807088002C333D8FCFD7F07121D06
:021EB200042208
:0820F5001220EBEF5470FF22F2
:07119A007864EFF208EDF2AA
:1011A1007F02121D9F7866EFF27F01121D9F786703
:1011B100EFF27864E224FA500624076049805B78F4
:1011C10064E2FF7401A807088002C333D8FCFF78EA
:1011D10066E24FF218E2601618E2FF7401A80708F0
:1011E1008002C333D8FCFF7867E24FF2802C786429
:1011F100E2FF7401A807088002C333D8FCF4FF782A
:1012010067E25FF280147866743FF218E260077853
:1012110067743FF28004E47867F27866E2FD7F024A
:0C122100121D047867E2FD7F01121D041D
:01122D00229E
:041434007864EFF2F7
:101438007F02121D9F7865EFF27F01121D9F78666B
:10144800EFF27864E224FA50062407602F8033789C
:1014580064E2FF7401A807088002C333D8FCF4FFD4
:101468007865E25FF218E2FF7401A807088002C3FA
:1014780033D8FCF4FF7866E25FF28006E47865F220
:1014880008F27865E2FD7F02121D047866E2FD7FAE
:0414980001121D041C
:01149C00222D
:101761007864EFF208EBF208EAF208E9F27864E251
:1017710014600A24FB502060042406703012208774
:10178100786CEFF27864E2242AFF08E2FB08E2FABF
:1017910008E2F9120E81227864E2240AFF08E2FBD2
:0E17A10008E2FA08E2F91202B3FD121D04225A
:10183E00782FEFF208EBF208EAF208E9F2782FE2DD
:10184E0014600824FB600424067011782FE2FF0850
:10185E00E2FB08E2FA08E2F912084422782FE224A9
:10186E000AFF121D9F7830E2FB08E2FA08E2F9EF58
:06187E001202CC7F0122E2
:021CE200AB074E
:101CE400EC540FFFC454F0FF7864E2540F4FF2EB4E
:0F1CF400540FFFE254F04FF2E2FD7F04121D0483
:011D030022BD
:101DE700E47833F2EF24FE5403FFE254FC4FF2E2AF
:061DF700FD7F03121D0434
:011DFD0022C3
:0A2087007F03121D9FEF2402FF22C9
:0820FD00EF2411FF121D042263
:040F76007834EFF2EA
:100F7A007F02121D9F7835EFF27F01121D9F78368E
:100F8A00EFF27834E214602814603C146054146060
:100F9A006E1470030210222405600302103D783596
:100FAA00E254017837F218E254017838F202104319
:100FBA007835E2FFC31354017837F218E2FFC313FE
:100FCA0054017838F280727835E2FF1313543F5493
:100FDA00017837F218E2FF1313543F54017838F2BC
:100FEA0080577835E2FF131313541F54017837F2F0
:100FFA0018E2FF131313541F54017838F2803A7819
:10100A0035E2FFC4540F54017837F218E2FFC45492
:10101A000F54017838F280217835E2FFC41354075F
:10102A0054017837F218E2FFC41354075401783890
:10103A00F28006E47837F208F27838E2FF25E0FF1A
:04104A0018E22FFF7A
:01104E00227F
:062143007F08121D9F221F
:101DFE007F08121D9FEF54F0FFE4C4F854F0C8683A
:071E0E00EFC4540F48FF224E
:1014FE00EF14601B14602314602B14603314603BD4
:10150E00240570427F11121D9F7839EFF2803B7FC8
:10151E0012121D9F7839EFF280307F13121D9F78C3
:10152E0039EFF280257F14121D9F7839EFF2801A61
:10153E007F15121D9F7839EFF2800F7F16121D9FB7
:0E154E007839EFF28004E47839F27839E2FF60
:01155C00226C
:101E2C00E47864F2EF547FFFE254804FF2E2FD7FDE
:041E3C0005121D046A
:011E4000227F
:041CBF007864EFF264
:101CC3007F06121D9F7865EFF218E25403FF25E0AB
:0E1CD300FF08E254F94FF2E2FD7F06121D04F5
:011CE10022E0
:04194E007864EFF2D8
:101952007F06121D9F7865EFF218E2601024FE7078
:10196200187865E24420F2E254F7F280167865E2D4
:1019720054DFF2E254F7F2800A7865E254DFF2E2D1
:0C1982004408F27865E2FD7F06121D04A7
:01198E002236
:0A2091007F17121D9FEF5401FF227C
:0C2024007F17121D9FEFC3135401FF2211
:0D1FB7007F17121D9FEFC4540F5401FF222D
:0E1F7F007F17121D9FEFC41354075401FF2259
:101E15007F17121D9FEF5430FFE4C4F854F0C868D3
:071E2500EFC4540F48FF2237
:0A209B007F17121D9FEF5403FF2270
:062149007F17121D9F220A
:0A20A5007F08121D9FEF540FFF2269
:0A20AF007F09121D9FEF5401FF226C
:01004A002293
:0D1F8D00EF543F783AF2E2FD7F1C121D0474
:011F9A002224
:041AF200783BEFF25C
:101AF6007F1D121D9F783CEFF218E260047F018083
:101B0600027F00EF5401FF25E025E0FF783CE25418
:0A1B1600FB4FF2E2FD7F1D121D04DB
:011B200022A2
:041B4F00783DEFF2FC
:101B53007F1D121D9F783EEFF218E260047F018023
:101B6300027F00EF5401FF25E0FF783EE254FD4F72
:081B7300F2E2FD7F1D121D04CA
:011B7B002247
:041BA600783FEFF2A3
:101BAA007F1D121D9F7840EFF218E260047F0180CA
:101BBA00027F00EF5401FF7840E254FE4FF2E2FD4B
:051BCA007F1D121D0447
:011BCF0022F3
:0A20B900786CEDF27FA0120E812278
:0A20C300786CEDF27FB0120E81225E
:0E1F9B00EF44A8FF7845E2786CF2120E812226
:06214F007F60121D9F22BB
:062155007F08120844227D
:0E1FA9001220EBEF540EFFE4C313EF13FF22E0
:0A20CD00C2E97FE312207DD2E92270
:101E7D001221497E00EF54407806CEC313CE13D8FD
:031E8D00F9FF2238
:0A20D700C2E97FE212207DD2E92267
:0A20E100C2E97FE112207DD2E9225E
:0920EB00C2E97FFF12207DD2E959
:0120F40022C9
:041B21007846EFF221
:101B25007F06121D9F7847EFF218E260047F01805F
:101B3500027F00EF5401FFC454F0FF7847E254EFF1
:091B45004FF2E2FD7F06121D04BF
:011B4E002274
:041A63007848EFF2DE
:101A67007F06121D9F7849EFF218E260047F01801C
:101A7700027F00EF5401FFC43333335480FF7849AA
:0C1A8700E2547F4FF2E2FD7F06121D04C6
:011A93002230
:101D9F00C2E98FE7E5E6540260FAAFE7E4F5E7E55D
:091DAF00E6540260FAAFE7D2E944
:011DB8002208
:101D0400C2E9EF2420F5E7E5E6540260FAAFE7AE56
:101D1400058EE7E5E6540260FA7868E5E7F2D2E971
:011D2400229C
:0D0844007851EFF208EBF208EAF208E9F251
:1008510078597401F27852E27857F27851E21460D3
:100861000C24FB600824FE601A2408703D122087C6
:100871007855EFF208F2C2E97851E2240AFF12201A
:100881007D802D121FA97851EFF2E2C39407501217
:1008910012214F7855EFF208F2C2E97F6112207DF3
:1008A100800EE47856F218F28006E47856F218F2D7
:0508B1007857E27045DC
:1008B6007852E208E208E2785AF2E4F5E77859E27B
:1008C600701018E2FF785AE2F8A607785AE204F2A6
:1008D6008004E47859F2E5E6540260FA7858E5E7D0
:1008E600F27855E214F270D27858E2FF785AE2F8BC
:0208F600A60753
:0A08F800020A077857E26401705B02
:100902007852E208E2FA08E2FF785AEAF208EFF2D5
:10091200E4F5E77859E2701A18E2FF785AE2FC0827
:10092200E2F5828C83EFF0E22401F218E23400F265
:100932008004E47859F2E5E6540260FA7858E5E773
:10094200F27855E214F270C87858E2FF785AE2FC65
:0809520008E2F5828C83EFF04E
:0A095A00020A077857E264FE7044B9
:100964007852E208E208E2785AF2E4F5E77859E2CC
:10097400701018E2FF785AE2F8EFF2785AE204F2C3
:100984008004E47859F2E5E6540260FA7858E5E721
:10099400F27855E214F270D27858E2FF785AE2F80D
:0209A400EFF270
:0209A600805F70
:1009A8007852E2F908E2FA08E2785AC9F208EAF25B
:1009B80008E9F2E4F5E77859E2701C18E2FF785A82
:1009C800E2FB08E2FA08E2F9EF1202CCE22401F2B3
:1009D80018E23400F28004E47859F2E5E654026043
:1009E800FA7858E5E7F27855E214F270C67858E2DA
:0F09F800FF785AE2FB08E2FA08E2F9EF1202CCAC
:0D0A0700D2E97851E2FE7856E2FDEEEDFFF7
:010A140022BF
:0A0E81007869EBF208EAF208E9F2E2
:0A0E8B007869E2FDC2E98FE77029E3
:100E9500E208E208E2786EF2786EE2F8E6FE786E35
:100EA500E204F2E5E6540260FA786DE5E7F28EE7D2
:060EB50018E214F270E2E5
:080EBB00020F68ED64017039BB
:100EC3007869E208E2FB08E2786ECBF208EBF2788D
:100ED3006EE2FA08E2F5828A83E0FEE22401F21868
:100EE300E23400F2E5E6540260FA786DE5E7F28E4B
:070EF300E718E214F270D8C9
:070EFA00806CED64FE702A1C
:100F01007869E208E208E2786EF2786EE2F8E2FED1
:100F1100786EE204F2E5E6540260FA786DE5E7F2F4
:080F21008EE718E214F270E201
:020F2900803D09
:100F2B007869E2F908E2FA08E2786EC9F208EAF2A7
:100F3B0008E9F2786EE2FB08E2FA08E2F91202B372
:100F4B00FEE22401F218E23400F2E5E6540260FA04
:0D0F5B00786DE5E7F28EE718E214F270D62B
:0D0F6800E5E6540260FA786DE5E7F2D2E9A3
:010F75002259
:0300230002166C56
:10166C00C0E0C0D075D000C00030981EC298784A37
:10167C00E2C394205014784EE22408F8A699784ED0
:10168C00E204541FF2784AE204F230991FC29978AE
:10169C004BE2D394014010784DE22428F8E6F599FA
:1016AC00784DE204541FF2784BE214F2D000D0D003
:0316BC00D0E03249
:1017AF00C2ACE4784DF2784FF2784BF208F2784EF3
:1017BF00F2784AF2D29CC29FD29E43878043D88050
:1017CF00EF24FC601324FE60091470127C037DF774
:1017DF0080107C037DF3800A7C037DCC80047C0326
:0717EF007DE68DAAECF5BABE
:0117F60022D0
:101BD000784BE2D3942050F8C2AC784BE270048F7B
:101BE00099800F784FE22428F8A607784FE2045432
:0A1BF0001FF2784BE204F2D2AC229F
:05215B00784AE2FF22BA
:0B207200784BE270037F01227F002208
:101D6400784AE260FBC2AC784CE22408F8E6FF78DB
:0D1D74004CE204541FF2784AE214F2D2ACA3
:011D8100223F
:10004E00EC4D6011E8497017ED33EC3304600DE4AC
:10005E00FCFFFEFD22E933E8330470F802029E1223
:10006E00026958046009E4CC248150062850090224
:10007E0002A82840030202A5C0E0EB4A7044B980F2
:10008E0006D0E0FB020294EF4E701CBD8008EBFF21
:10009E00EAFEE9FD80EBE98DF0A4FEE5F002013702
:1000AE00E9CDF9EAFEEBFFEF89F0A4FCE5F0CE898D
:1000BE00F0A42EFFE435F0CD89F0A42DFEE435F04A
:1000CE008067EF4E7005BD80D780C3EF8BF0A4AC78
:1000DE00F0EE8BF0A42CFCE435F0F8EF8AF0A42CB3
:1000EE00E5F038FCE433CB8DF0A42CFCE5F03BF8C6
:1000FE00EE8AF0A42CFCE5F038F8E433CF89F0A4B6
:10010E002CFCE5F038CF3400CE89F0A42FFFE5F0BB
:10011E003EFEE433C98DF0A42EFEE5F039CD8AF013
:10012E00A42FFFE5F03EFEE43DFD33D0E0FB50078B
:10013E000BBB000F0202A8EC2CFCEF33FFEE33FEDC
:06014E00ED33FD0202800A
:100154000202A8EC5D046005E85904700302029EE3
:10016400120269580460F6EC4860F2EC7004FDFE7B
:10017400FF22C860DB2481C85009C398600250067E
:100184000202A59850CAF582E9294B4A7005AB8250
:1001940002029475F0007C1A7880C3EF9BEE9AED0E
:1001A40099400DC3EF9BFFEE9AFEED99FDE842F0F6
:1001B400DC23ACF0D0E0FFD0E0FED0E0FDAB822049
:1001C400E7101BEB60BAEC2CFCEF33FFEE33FEEDD3
:1001D40033FD020280E803F830E705C0F075F00053
:1001E400EF2FFFEE33FEED33FD40B830E7C280AAB7
:1001F40075F020800E75F010800575F0087D007E86
:10020400007F003392D530D503120431EC33401013
:10021400EF33FFEE33FEED33FDEC33FCD5F0ED228E
:0E022400E5F0247EA2D513CC92E7CDCEFF22CA
:10023200EDD2E7CD33EC3392D524814006E4FFFEC4
:10024200FDFC22FCE4CFCECDCC24E0501174FF8023
:10025200EDC3CC13CCCD13CDCE13CECF13CF0470C0
:07026200F030D5DE0204318B
:10026900E9D2E7C933E833F892D5EDD2E7CD33ECDB
:0702790033FC5002B2D52254
:10028000EC30E7100FBF000C0EBE00080DBD0004DF
:100290000BEB6014A2D5EB13FCED92E7FD2274FF8B
:1002A000FCFDFEFF22E480F8A2D574FF13FC7D80E4
:0302B000E480EFF8
:0300000002122EBB
:0C122E00787FE4F6D8FD75814702127548
:1002B300BB010689828A83E0225002E722BBFE0249
:0902C300E32289828A83E493227C
:1002CC00BB010689828A83F0225002F722BBFE0111
:0202DC00F3220B
:1002DE00C2D5EC30E709B2D5E4C39DFDE49CFCEE3B
:1002EE0030E715B2D5E4C39FFFE49EFE1204DDC3D2
:1002FE00E49DFDE49CFC80031204DD30D507C3E4CD
:06030E009FFFE49EFE22A9
:10031400E88FF0A4CC8BF0A42CFCE98EF0A42CFC88
:100324008AF0EDA42CFCEA8EF0A4CDA8F08BF0A406
:100334002DCC3825F0FDE98FF0A42CCD35F0FCEB65
:100344008EF0A4FEA9F0EB8FF0A4CFC5F02ECD392A
:0F035400FEE43CFCEAA42DCE35F0FDE43CFC2297
:1003630075F008758200EF2FFFEE33FECD33CDCC51
:1003730033CCC58233C5829BED9AEC99E5829840D4
:100383000CF582EE9BFEED9AFDEC99FC0FD5F0D6B1
:10039300E4CEFBE4CDFAE4CCF9A88222B800C1B9DB
:1003A3000059BA002DEC8BF084CFCECDFCE5F0CB19
:1003B300F97818EF2FFFEE33FEED33FDEC33FCEB52
:1003C30033FB10D703994004EB99FB0FD8E5E4F90D
:1003D300FA227818EF2FFFEE33FEED33FDEC33FCFA
:1003E300C933C910D7059BE99A4007EC9BFCE99AEE
:1003F300F90FD8E0E4C9FAE4CCFB2275F010EF2F33
:10040300FFEE33FEED33FDCC33CCC833C810D70732
:100413009BEC9AE899400AED9BFDEC9AFCE899F86D
:0E0423000FD5F0DAE4CDFBE4CCFAE4C8F92200
:0E043100C3E49FFFE49EFEE49DFDE49CFC22DC
:10043F00EB9FF5F0EA9E42F0E99D42F0EC6480C834
:06044F0064809845F022D4
:10045500EB9FF5F0EA9E42F0E99D42F0E89C45F0FD
:010465002274
:10046600E8600FECC313FCED13FDEE13FEEF13FF74
:03047600D8F12298
:10047900E8600FEFC333FFEE33FEED33FDEC33FCE1
:03048900D8F12285
:0C048C00ECF208EDF208EEF208EFF222AC
:10049800D083D082E493F208740193F20874029333
:0904A800F208740393F27404736A
:1004B100EF4E6012EF60010EEDBB010B89828A8362
:1004C100F0A3DFFCDEFA2289F05007F709DFFCA96F
:0C04D100F022BBFEFCF309DFFCA9F022C6
:10123A00020B53E493A3F8E493A34003F68001F26C
:10124A0008DFF48029E493A3F85407240CC8C333B5
:10125A00C4540F4420C8834004F456800146F6DF84
:10126A00E4800B010204081020408090203BE47EB9
:10127A00019360BCA3FF543F30E509541FFEE49379
:10128A00A360010ECF54C025E060A840B8E493A340
:10129A00FAE493A3F8E493A3C8C582C8CAC583CA6B
:1012AA00F0A3C8C582C8CAC583CADFE9DEE780BE23
:01204500009A
:1004DD00BC000BBE0029EF8DF084FFADF022E4CC03
:1004ED00F875F008EF2FFFEE33FEEC33FCEE9DECCC
:1004FD00984005FCEE9DFE0FD5F0E9E4CEFD22ED12
:10050D00F8F5F0EE8420D21CFEADF075F008EF2F5B
:10051D00FFED33FD4007985006D5F0F222C398FD4C
:05052D000FD5F0EA22E9
:00000001FF
