:100C350041485431302DCEC2B6C83A00202020207C
:100C450000CAAAB6C83A000D0A004C617374206D3B
:100C55006F64653A506F776572204F666621004C68
:100C6500617374206D6F64653A4465657020536CDB
:100C750065657021004C617374206D6F64653A4D34
:100C8500656D6F727920526574656E74696F6E2C2F
:100C95002054696D6572204F666621004C6173743E
:100CA500206D6F64653A4D656D6F7279205265747C
:100CB500656E74696F6E2C2054696D6572204F6E78
:100CC50021004C617374206D6F64653A52656769E4
:100CD5007374657220526574656E74696F6E210058
:100CE5004572726F72204F72205265736572766518
:100CF50064210050726F6772616D20737461727444
:100D0500696E672E2E2E0D0A00696E746F2052458E
:100D1500475245540A00696E746F20444545505347
:060D25004C4545500A0098
:071F99008500E7E7E7E7E739
:06206A00E4F593F5942259
:0B1F8E00786DEBF208EAF208E9F2229D
:100026007F0E121E29E4FF121F52E4FF121E97E4F0
:10003600FF121E39E4FF121E497F03121EA67F011E
:04004600121E6922FB
:1017FF007863EEF208EFF2C3E2940A18E294005015
:10180F001BE2FE08E2FFE4FCFDFBFA7901F8C312CC
:10181F00043F500878637480F208E4F2E4FF121F6B
:10182F00BA7F01121FBA7864E224FFFF18E234FF77
:05183F00FE121DAD22A8
:10184400D2EA7FFF1213AFE4FDFF121087E4FF1208
:101854001B707F32121D987F021218C97F03121C5D
:101864000C7F021218887BFE7A0079007F0612161C
:10187400DC7DDC7C05E4FF121C2F7F01121B99D256
:04188400B9D2AF2204
:101A0F00E4FF121FBA7F01121F467F03121EB57F1C
:101A1F00FE7E1F1217FF7F02121E19E4FF121E090E
:101A2F007F01121FBAE5AD20E7FBE5AD30E7FB22E2
:10123500E49000CAF09000A1741EF09000C1E09007
:1012450000A2F09000C2E09000A3F09000C3E090EF
:1012550000A4F09000C4E09000A5F09000C5E090D7
:1012650000A6F09000C6E09000A7F09000C7E090BF
:1012750000A8F09000C8E09000A9F0E49000CBF041
:101285009000CBE0C394095018E024A1F582E43422
:1012950000F583E0FF9000CAE02FF0A3E004F080A2
:1012A500DF9000CAE0FFC3E49FFF74019400900043
:0312B500AAEFF0AD
:0112B8002213
:1009EC0078631204980000000078671204980000E5
:1009FC000000121F6A122094EF70FA1220CD9000A2
:100A0C00C3EFF01220CA9000C4EFF01220CDE478AE
:100A1C0063E2FB08E2F908E2FA08E2CBF8EB4FFFDD
:100A2C00EAFEE9FDE8FC7808120479786312048C7C
:100A3C001220CAE47863E2FB08E2F908E2FA08E261
:100A4C00CBF8EB4FFFEAFEE9FDE8FC786312048C6F
:100A5C007863E2FC08E2FD08E2FE08E2FFE4120122
:100A6C00F4E4FBFA79B4784312004EE4FBFA798093
:100A7C007845120157120232786712048CE47B64B9
:100A8C00FAF9F8C0007867E2FC08E2FD08E2FE081B
:100A9C00E2FFD00012039F9000C3EFF0E47B64FAF6
:100AAC00F9F8C0007867E2FC08E2FD08E2FE08E213
:100ABC00FFD00012039FAC00AD01AE02AF03E47B8C
:100ACC000AFAF9F812039F7804120479C004C005DD
:100ADC00C006C007E47B64FAF9F8C0007867E2FC52
:100AEC0008E2FD08E2FE08E2FFD00012039FAC0012
:100AFC00AD01AE02AF03E47B0AFAF9F812039FAC26
:100B0C0000AD01AE02AF03D003D002D001D000EF94
:0D0B1C004BFFEE4AED49EC489000C4EFF0AD
:010B290022A9
:100FD9007E007F057D007BFE7A0079631204B17E75
:100FE900007F057D007BFE7A0079681204B178657F
:100FF900742EF2786AF21205327808E29000C5F090
:1010090008E2A3F008E2A3F008E2A3F07808E2FFFF
:10101900C4540F24307863F27808E2540F243078EE
:1010290064F27809E2FFC4540F24307866F2900024
:10103900C7E0FFC4540F24307868F2E0540F24301D
:1010490008F2A3E0FFC4540F2430786BF27BFF7AD7
:101059000C7935121F8E1B7A007963121F8E0B7A59
:101069000C7941121F8E7A0C7946121F8E1B7A0059
:0D1079007968121F8E0B7A0C794C121F8EB5
:011086002247
:0E19AC001212357B017A0079A17D0A122017F4
:1019BA0078637414F2D2E87863E2FF14F2EF70F7F6
:0219CA00C2E871
:1019CC009000C97401F09000C9E070FAE4FF121C99
:0219DC00B12236
:10163A00E5A45407FF14601714601E146025146093
:10164A002C240470327BFF7A0C794F121F8E227B76
:10165A00FF7A0C7964121F8E227BFF7A0C797A1238
:10166A001F8E227BFF7A0C79A1121F8E227BFF7AB2
:10167A000C79C7121F8E227BFF7A0C79E5121F8E16
:01168A00223D
:0F1E790075AE04E4F5CF75CE04439404D29222E3
:10159100EF24FE60111460151460192403701C7887
:1015A100637401F2801978637402F28012786374B3
:1015B10003F2800B78637404F28004E47863F278B8
:1015C10063E2B401057F01121E197863E2640160D0
:1015D10009E264026004E2B4030343AE027863E209
:0515E100F5A4E4F5A4EF
:0115E60022E2
:100E2000E4785EF208120498000000009000C1749B
:100E300003F0A374E8F012206A121E791220BB128C
:100E400020BF121A0F12002612111B1218447BFF2A
:100E50007A0C79F8121F8E12163A1209EC120FD979
:100E60001219AC20921F7F647E00121AC9209215BD
:100E7000E4785EF208120498000000001209EC12F7
:100E80000FD91219AC785EE2D394015013E204F248
:100E90007F041215917BFF7A0D790E121F8E80C38D
:100EA000E4785EF208E2FC08E2FD08E2FE08E2FFF8
:100EB000E4FAF9F8EF2401FFEA3EFEE93DFDE83CE3
:100EC000FC785F12048CE47FA07E05FDFC785FE275
:100ED000FB08E2F908E2FA08E2CBF8C31204557005
:100EE000157BFF7A0D791B121F8E1209EC785F12A9
:0F0EF000049800000000120FD91219AC020E6313
:010EFF0022D0
:03004B0002133667
:10133600C0E0C0F0C083C082C0D075D000C000C07D
:0D13460001C002C003C004C005C006C007FE
:10135300121F767850EFF2E230E61D121FEFEF70A6
:10136300127B017A0079811220AC7805EEF208EF46
:10137300F280E89000C9E4F07850E230E50590008F
:10138300C9E4F07850E230E4089000C9E4F0122098
:011393003F1A
:10139400D007D006D005D004D003D002D001D000AD
:0B13A400D0D0D082D083D0F0D0E03257
:031FA000810700B6
:0C1F2200C2807FF47E01121AC9D2802216
:062070005394DFD295221B
:062076005394DFC2952225
:0420B700439420220C
:06207C005394EFD2942200
:062082005394EFC294220A
:0B1FA4005394EFD2945394DFD29522A7
:101B47001220707F087E00121E8812207C7F087E7C
:101B570000121E881220767F087E00121E8812202F
:091B6700827F087E00121E882214
:10153500787EEFF278807480F2E418F2787FE2C367
:10154500940850331220827F037E00121E88787E15
:10155500E2FF7880E25F600512207080031220763A
:1015650012207C7F037E00121E88787EE2FF25E034
:10157500F208E204F280C51220827F087E00121E66
:0B158500881220B77F087E00121E882D
:011590002238
:1014D800E4787EF21220821220B77F08FE121E885E
:1014E800E4787FF2787FE2C39408503212207C7F40
:1014F800017E00121E88E47880F230950204F278AA
:101508007EE2FF25E0FF7880E24F787EF2122082AB
:101518007F087E00121E88787FE204F280C61220BF
:0C152800B77F087E00121E88787EE2FF6C
:011534002294
:10168B00E4787EF208F21220821220B77F08FE1255
:10169B001E8812207C7F087E00121E88309518C38E
:1016AB00787FE2946418E29400500C08E22401F273
:1016BB0018E23400F280E5787FE26464700218E28D
:1016CB007002FF221220827F087E00121E887F018B
:0116DB0022EC
:101946001220827F087E00121E881220767F087E73
:1019560000121E8812207C7F087E00121E8812202C
:10196600827F087E00121E881220B77F087E001232
:031976001E8822A6
:101979001220827F087E00121E881220707F087E46
:1019890000121E8812207C7F087E00121E881220F9
:10199900827F087E00121E881220767F087E001240
:0319A9001E882273
:101C92001220767F087E00121E8812207C7F087E2A
:0F1CA20000121E881220707F087E00121E8822FA
:101CEE00121B477F7112153512168B1214D8787D80
:0C1CFE00EFF2121979121C92787DE2FFBF
:011D0A0022B6
:101D2500E4787CF2121CEE787CEFF2E25468B40899
:061D3500037F01227F0084
:011D3B002285
:101BC200121B477F7012153512168B7FAC1215351A
:101BD20012168B7F3312153512168BE4FF12153550
:071BE20012168B121C922267
:101D3C00121B477F7012153512168B7FBA12153590
:071D4C0012168B121C9222FB
:10053200E4786DF208F208F208F208F208F2081202
:10054200049800000000E47877F208F208F208F25A
:10055200121D25EF700C12111B7F1E7E00121AC98C
:1005620080EE121BC27F4B7E00121AC9E47879F228
:1005720008F2121CEEEF30E7227FE47E05121E889D
:10058200787908E2FF2401F218E2FE3400F2C3EFA8
:100592009464EE940040DB800280D7121B477F7187
:1005A20012153512168B1214D8786DEFF212194605
:1005B2001214D8786EEFF21219461214D8786FEF2F
:1005C200F21219461214D87870EFF2121946121468
:1005D200D87871EFF21219461214D87872EFF2122B
:1005E2001979121C92786EE2FFE47873E2FB08E25A
:1005F200F908E2FA08E2CBF8EB4FFFEAFEE9FDE880
:10060200FC7808120479787312048C786FE2FFE4A4
:100612007873E2FB08E2F908E2FA08E2CBF8EB4F62
:10062200FFEAFEE9FDE8FC78081204797873120407
:100632008C7870E2FFE47873E2FB08E2F908E2FAF0
:1006420008E2CBF8EB4FFFEAFEE9FDE8FC78731213
:10065200048C7873E2FC08E2FD08E2FE08E2FF780F
:1006620004120466787312048CE47FE87E03FDFCB6
:100672007873E2FB08E2F908E2FA08E2CBF8120327
:1006820014E4FB7A04F9F812039FE4FB7A04F9F804
:1006920012039F7877EEF208EFF218E2FE08E2FF0B
:1006A2007C007D641202DE7E007F0ACFCDCFCECCED
:1006B200CE1202DEAB077877E2FE08E2FF7C007D15
:1006C200641202DEEFC454F04B780AF27877E2FE4D
:1006D20008E2FF7C007D641202DE7E007F0ACFCD3D
:1006E200CFCECCCE1202DEEDC4F8540FC868FFECB8
:1006F200C454F048780BEFF27873120498000000AB
:10070200007870E2FFE47873E2FB08E2F908E2FAAB
:1007120008E2CBF8EB4FFFEAFEE9FDE8FC780812AD
:100722000479787312048C7871E2FFE47873E2FB47
:1007320008E2F908E2FA08E2CBF8EB4FFFEAFEE939
:10074200FDE8FC7808120479787312048C7872E25E
:10075200FFE408E2FB08E2F908E2FA08E2CBF8EB70
:100762004FFFEAFEE9FDE8FC787312048C7873E22D
:10077200FC08E2FD08E2FE08E2FFEEED540FFDE4A4
:10078200FC787312048CE47FD07E07FDFC7873E260
:10079200FB08E2F908E2FA08E2CBF8120314E4FBE0
:1007A2007A04F9F812039FE4FB7A04F9F812039F22
:1007B200EF240C7878F2EE34FE18F2E2FE08E2FF43
:1007C2007C007D641202DE7E007F0ACFCDCFCECCCC
:1007D200CE1202DEAB077877E2FE08E2FF7C007DF4
:1007E200641202DEEFC454F04B7808F27877E2FE2E
:1007F20008E2FF7C007D641202DE7E007F0ACFCD1C
:10080200CFCECCCE1202DEEDC4F8540FC868FFEC96
:08081200C454F0487809EFF22C
:01081A0022BB
:10111B00121FA47F1E7E2B121E88121B477F70127C
:10112B00153512168B7FE112153512168B7F0812AF
:10113B00153512168BE4FF12153512168B121C92F5
:10114B007FF47E01121AC9121D25EF704E121D3C41
:10115B007F647E00121AC97F1E7E2B121E88121B03
:10116B00477F7012153512168B7FE112153512164B
:10117B008B7F0812153512168BE4FF1215351216DC
:10118B008B121C92787BE204F2E2C3940A40037F39
:0D119B0000227FF47E01121AC980AC7F0192
:0111A8002224
:10190A00780E742EF27813F27807E2700C12111B1B
:10191A007807EFF2E2700280FE1205327808E27868
:10192A000CF27809E2780DF2780AE27811F2780B73
:0B193A00E27812F27FDC7E05121AC971
:01194500227F
:101772007F017E00121E887F017E00121E887F017B
:101782007E00121E887F017E00121E887F017E006D
:10179200121E887F017E00121E887F017E00121EAB
:1017A200887F017E00121E887F017E00121E887FC4
:0717B200017E00121E8822D7
:10141800E47816F27816E2C39408505478197402E6
:10142800F22082097819E2FF04F2EF70F4121772C1
:10143800121772121772E47825F230820204F278D9
:10144800197402F23082097819E2FF04F2EF70F49D
:101458007819E264016019782AE2FF25E0F2E2FFD8
:101468007825E2FEEF4E782AF27816E204F280A49C
:011478002251
:100B2A005393FBC2827F137E00121AC9D282439367
:100B3A000412177212177212177212177230820386
:100B4A00020C2478197402F22082097819E2FF044F
:100B5A00F2EF70F478197402F23082097819E2FF20
:100B6A0004F2EF70F4121418782AE27817F21214C9
:100B7A0018782AE27826F2121418782AE2781BF2F8
:100B8A00121418782AE2781CF2121418782AE278D9
:100B9A0027F2D282781CE2FF18E22FFF7817E22FA1
:100BAA00FF7826E22F18F27827E2FF7825E2B507C8
:100BBA001E7817E27828F27826E27829F2781BE282
:100BCA007818F2781CE2781AF27827E27824F27818
:100BDA0018E275F00A84FF781DE4F208EFF278183B
:100BEA00E275F00A84781FE5F0F2781AE275F00AE5
:100BFA00847820E5F0F27828E275F00A847821F208
:100C0A007828E275F00A847822E5F0F27829E2750C
:100C1A00F00A847823E5F0F2800DE4781DF208F2F8
:0B0C2A0008F27821F208F25393FB223D
:0420BB005393FC221D
:101CB100EF14600F047017C2807F647E00121E88CB
:0F1CC100D28022C2817F647E00121E88D28122CF
:0D1EFB00EF146006047005C28022C281222F
:0D1F0800EF146006047005D28022D2812201
:0420BF00439406221E
:0F1E88000000000000EF1F70011E144E70F222C8
:101AC900AD07AC067FFA7E00121E887FFA7E0012EF
:101AD9001E887FFA7E00121E887FFA7E00121E88F9
:0A1AE900ED1D70011C144C70DB228F
:101E0900EF6009E5A3448054F7F5A32253A3772291
:101DD400EF5401FFC4333354C0FFE5A354B74FF5A8
:021DE400A32238
:101E1900EF5403FFC454F0FFE5A354C74FF5A322C1
:0B1F2E00E5AD30E3047F0280027F017C
:011F39002285
:0C1F3A00EF5407FFE5A354F04FF5A3227D
:06208800E5AD5480FF22CB
:06208E00E5AD5440FF2205
:0C1F4600EF5407FFE5AD54F84FF5AD2255
:0420C30043B31022F1
:0B1FAF00EF600443B3082253B3F72295
:0E1EB500EF25E05406FFE5B354F94FF5B322D4
:0B1FBA00EF600443B3012253B3FE228A
:101DAD00E5B35406FD53B3F9EFF5B4EEF5B5AF0554
:031DBD00EF42B33F
:011DC0002200
:10000300E5B35406F953B3F9AFB5AD077C00ED7D05
:0F00130000FCAFB4EFFDAF01EF42B3AE04AF0599
:0100220022BB
:101C7200E5B35408F953B3F7AFABAD077C00ED7D84
:0F1C820000FCAFB6EFFDAF01EF42B3AE04AF050C
:011C91002230
:0320C700AFAC2299
:101E2900EF25E025E0543CFFE5D354C34FF5D32219
:0C1F5200EF5403FFE5D354FC4FF5D322FD
:0F1E9700EFC4333354C0FFE5D2543F4FF5D2228E
:101E3900EFC43354E05420FFE5D254DF4FF5D222EA
:101E4900EF25E025E0541CFFE5D254E34FF5D222FB
:101E5900EF25E025E0541CFFE5D254E34FF5D222EB
:0C1F5E00EF5403FFE5D254FC4FF5D222F3
:0F1EA600EFC4333354C0FFE5D1543F4FF5D12281
:101E6900EFC43354E05420FFE5D154DF4FF5D122BC
:0B1F6A007F0143D380AE071FEE70FA2A
:011F75002249
:0320CA00AFD5226D
:0320CD00AFD4226B
:06209400E5D35440FF22D9
:101DF800E5D154187E007803CEC313CE13D8F9FF6B
:011E080022B7
:0A1FDB008FE7E5E630E1FBAFE722F7
:07206300EFF5AFEEF5AF222F
:0A1FC500AFAFAEAF8FAFAF068FAF26
:011FCF0022EF
:041B70007863EFF2B5
:101B7400E4FF121D0B7864EFF218E2B4010708E2E7
:101B84004401F280067864E254FEF27864E2FDE4F3
:041B9400FF121C51CF
:011B9800222A
:041B99007863EFF28C
:101B9D00E4FF121D0B7864EFF218E2B4010708E2BE
:101BAD004402F280067864E254FDF27864E2FDE4CA
:041BBD00FF121C51A6
:011BC1002201
:041888007863EFF2A0
:10188C00E4FF121D0B7864EFF218E214600F146081
:10189C00182402701E7864E254F7F280167864E221
:1018AC004408F2E254FBF2800A7864E24408F2E263
:0C18BC004404F27864E2FDE4FF121C51C9
:0118C80022FD
:0712B900782BEFF208EDF2C3
:1012C000E4FF121D0B782DEFF2782BE224FB602354
:1012D00014603D24027055782CE260047F00800287
:1012E0007F01EF5401FFC454F0FF782DE254EF4F1B
:1012F000F28039782CE260047F0080027F01EF5495
:1013000001FFC43354E0FF782DE254DF4FF2801C1C
:10131000782CE260047F0080027F01EF5401FFC45B
:10132000333354C0FF782DE254BF4FF2782DE2FDE5
:05133000E4FF121C5156
:011335002295
:0B1F76007D707F07121C51EF5470FFBC
:011F8100223D
:101BE9007D707F07121C51EF5470782EF2E2FFC00E
:101BF900077F07121D0BEF540FFED0E04E782EF22F
:021C0900E2FFF8
:011C0B0022B6
:101DE6007401A807088002C333D8FCFD7F07121CC4
:021DF600512278
:08205300122049EF5470FF2236
:071087007863EFF208EDF2BF
:10108E007F02121D0B7865EFF27F01121D0B786641
:10109E00EFF27863E224FA500624076049805B7809
:1010AE0063E2FF7401A807088002C333D8FCFF78FF
:1010BE0065E24FF218E2601618E2FF7401A8070805
:1010CE008002C333D8FCFF7866E24FF2802C78633F
:1010DE00E2FF7401A807088002C333D8FCF4FF783E
:1010EE0066E25FF280147865743FF218E26007786A
:1010FE0066743FF28004E47866F27865E2FD7F0262
:0C110E00121C517866E2FD7F01121C519A
:01111A0022B2
:0413AF007863EFF27E
:1013B3007F02121D0B7864EFF27F01121D0B78651B
:1013C300EFF27863E224FA50062407602F80337823
:1013D30063E2FF7401A807088002C333D8FCF4FF5B
:1013E3007864E25FF218E2FF7401A807088002C381
:1013F30033D8FCF4FF7865E25FF28006E47864F2A8
:1014030008F27864E2FD7F02121C517865E2FD7FE9
:0414130001121C5155
:0114170022B2
:1016DC007863EFF208EBF208EAF208E9F27863E2D9
:1016EC0014600A24FB5020600424067030121FE59D
:1016FC00786BEFF27863E2242AFF08E2FB08E2FA47
:10170C0008E2F9120D2B227863E2240AFF08E2FBAF
:0E171C0008E2FA08E2F91202B3FD121C512293
:1017B900782FEFF208EBF208EAF208E9F2782FE263
:1017C90014600824FB600424067011782FE2FF08D6
:1017D900E2FB08E2FA08E2F912081B22782FE22458
:1017E9000AFF121D0B7830E2FB08E2FA08E2F9EF72
:0617F9001202CC7F012268
:021C2F00AB0701
:101C3100EC540FFFC454F0FF7863E2540F4FF2EB02
:0F1C4100540FFFE254F04FF2E2FD7F04121C51EA
:011C50002271
:101D5300E47833F2EF24FE5403FFE254FC4FF2E243
:061D6300FD7F03121C517C
:011D69002257
:0A1FE5007F03121D0BEF2402FF2200
:08205B00EF2411FF121C5122B9
:040F00007834EFF260
:100F04007F02121D0B7835EFF27F01121D0B78362C
:100F1400EFF27834E214602814603C1460541460D6
:100F24006E147003020FAC24056003020FC77835FA
:100F3400E254017837F218E254017838F2020FCD06
:100F44007835E2FFC31354017837F218E2FFC31374
:100F540054017838F280727835E2FF1313543F5409
:100F6400017837F218E2FF1313543F54017838F232
:100F740080577835E2FF131313541F54017837F266
:100F840018E2FF131313541F54017838F2803A788F
:100F940035E2FFC4540F54017837F218E2FFC45409
:100FA4000F54017838F280217835E2FFC4135407D6
:100FB40054017837F218E2FFC41354075401783807
:100FC400F28006E47837F208F27838E2FF25E0FF91
:040FD40018E22FFFF1
:010FD80022F6
:06209A007F08121D0B225D
:101D6A007F08121D0BEF54F0FFE4C4F854F0C86862
:071D7A00EFC4540F48FF22E3
:10147900EF14601B14602314602B14603314603B59
:10148900240570427F11121D0B7839EFF2803B7FE2
:1014990012121D0B7839EFF280307F13121D0B7871
:1014A90039EFF280257F14121D0B7839EFF2801A7B
:1014B9007F15121D0B7839EFF2800F7F16121D0B65
:0E14C9007839EFF28004E47839F27839E2FFE6
:0114D70022F2
:101D9800E47863F2EF547FFFE254804FF2E2FD7F74
:041DA80005121C51B3
:011DAC002214
:041C0C007863EFF218
:101C10007F06121D0B7864EFF218E25403FF25E0F3
:0E1C2000FF08E254F94FF2E2FD7F06121C515C
:011C2E002293
:0418C9007863EFF25F
:1018CD007F06121D0B7864EFF218E2601024FE7093
:1018DD00187864E24420F2E254F7F280167864E25C
:1018ED0054DFF2E254F7F2800A7864E254DFF2E258
:0C18FD004408F27864E2FD7F06121C51E2
:0119090022BB
:0A1FEF007F17121D0BEF5401FF22B3
:0C1F82007F17121D0BEFC3135401FF2248
:0D1F15007F17121D0BEFC4540F5401FF2263
:0E1EC3007F17121D0BEFC41354075401FF22AA
:101D81007F17121D0BEF5430FFE4C4F854F0C868FC
:071D9100EFC4540F48FF22CC
:0A1FF9007F17121D0BEF5403FF22A7
:0620A0007F17121D0B2248
:0A2003007F08121D0BEF540FFF229F
:0A200D007F09121D0BEF5401FF22A2
:01004A002293
:0D1ED100EF543F783AF2E2FD7F1C121C51E5
:011EDE0022E1
:041A3F00783BEFF20F
:101A43007F1D121D0B783CEFF218E260047F0180CA
:101A5300027F00EF5401FF25E025E0FF783CE254CC
:0A1A6300FB4FF2E2FD7F1D121C5143
:011A6D002256
:041A9C00783DEFF2B0
:101AA0007F1D121D0B783EEFF218E260047F01806B
:101AB000027F00EF5401FF25E0FF783EE254FD4F26
:081AC000F2E2FD7F1D121C5132
:011AC80022FB
:041AF300783FEFF257
:101AF7007F1D121D0B7840EFF218E260047F018012
:101B0700027F00EF5401FF7840E254FE4FF2E2FDFE
:051B17007F1D121C51AE
:011B1C0022A6
:0A201700786BEDF27FA0120D2B2272
:0A202100786BEDF27FB0120D2B2258
:0E1EDF00EF44A8FF7845E2786BF2120D2B223B
:0620A6007F60121D0B22F9
:0620AC007F0812081B2250
:0E1EED00122049EF540EFFE4C313EF13FF223F
:0A202B00C2E97FE3121FDBD2E922B5
:101DC1001220A07E00EF54407806CEC313CE13D864
:031DD100F9FF22F5
:0A203500C2E97FE2121FDBD2E922AC
:0A203F00C2E97FE1121FDBD2E922A3
:09204900C2E97FFF121FDBD2E99E
:01205200226B
:041A6E007846EFF2D5
:101A72007F06121D0B7847EFF218E260047F0180A7
:101A8200027F00EF5401FFC454F0FF7847E254EFA5
:091A92004FF2E2FD7F06121C5127
:011A9B002228
:0419DE007848EFF264
:1019E2007F06121D0B7849EFF218E260047F018036
:1019F200027F00EF5401FFC43333335480FF784930
:0C1A0200E2547F4FF2E2FD7F06121C51FF
:011A0E0022B5
:101D0B00C2E98FE7E5E6540260FAAFE7E4F5E7E5F1
:091D1B00E6540260FAAFE7D2E9D8
:011D2400229C
:101C5100C2E9EF2420F5E7E5E6540260FAAFE7AE0A
:101C6100058EE7E5E6540260FA7867E5E7F2D2E926
:011C71002250
:0D081B007851EFF208EBF208EAF208E9F27A
:1008280078597401F27852E27857F27851E21460FC
:100838000C24FB600824FE601A2408703D121FE592
:100848007855EFF208F2C2E97851E2240AFF121F44
:10085800DB802D121EED7851EFF2E2C3940750129F
:100868001220A67855EFF208F2C2E97F61121FDB69
:10087800800EE47856F218F28006E47856F218F200
:050888007857E2704505
:10088D007852E208E208E2785AF2E4F5E77859E2A4
:10089D00701018E2FF785AE2F8A607785AE204F2CF
:1008AD008004E47859F2E5E6540260FA7858E5E7F9
:1008BD00F27855E214F270D27858E2FF785AE2F8E5
:0208CD00A6077C
:0A08CF000209DE7857E26401705B55
:1008D9007852E208E2FA08E2FF785AEAF208EFF2FF
:1008E900E4F5E77859E2701A18E2FF785AE2FC0851
:1008F900E2F5828C83EFF0E22401F218E23400F28F
:100909008004E47859F2E5E6540260FA7858E5E79C
:10091900F27855E214F270C87858E2FF785AE2FC8E
:0809290008E2F5828C83EFF077
:0A0931000209DE7857E264FE70440C
:10093B007852E208E208E2785AF2E4F5E77859E2F5
:10094B00701018E2FF785AE2F8EFF2785AE204F2EC
:10095B008004E47859F2E5E6540260FA7858E5E74A
:10096B00F27855E214F270D27858E2FF785AE2F836
:02097B00EFF299
:02097D00805F99
:10097F007852E2F908E2FA08E2785AC9F208EAF284
:10098F0008E9F2E4F5E77859E2701C18E2FF785AAB
:10099F00E2FB08E2FA08E2F9EF1202CCE22401F2DC
:1009AF0018E23400F28004E47859F2E5E65402606C
:1009BF00FA7858E5E7F27855E214F270C67858E203
:0F09CF00FF785AE2FB08E2FA08E2F9EF1202CCD5
:0D09DE00D2E97851E2FE7856E2FDEEEDFF21
:0109EB0022E9
:0A0D2B007868EBF208EAF208E9F23A
:0A0D35007868E2FDC2E98FE770293B
:100D3F00E208E208E2786DF2786DE2F8E6FE786D8F
:100D4F00E204F2E5E6540260FA786CE5E7F28EE72A
:060D5F0018E214F270E23C
:080D6500020E12ED6401703969
:100D6D007868E208E2FB08E2786DCBF208EBF278E6
:100D7D006DE2FA08E2F5828A83E0FEE22401F218C0
:100D8D00E23400F2E5E6540260FA786CE5E7F28EA3
:070D9D00E718E214F270D820
:070DA400806CED64FE702A73
:100DAB007868E208E208E2786DF2786DE2F8E2FE2C
:100DBB00786DE204F2E5E6540260FA786CE5E7F24E
:080DCB008EE718E214F270E259
:020DD300803D61
:100DD5007868E2F908E2FA08E2786DC9F208EAF201
:100DE50008E9F2786DE2FB08E2FA08E2F91202B3CB
:100DF500FEE22401F218E23400F2E5E6540260FA5C
:0D0E0500786CE5E7F28EE718E214F270D683
:0D0E1200E5E6540260FA786CE5E7F2D2E9FB
:010E1F0022B0
:030023000215E7DC
:1015E700C0E0C0D075D000C00030981EC298784ABD
:1015F700E2C394205014784EE22408F8A699784E56
:10160700E204541FF2784AE204F230991FC2997833
:101617004BE2D394014010784DE22428F8E6F5997F
:10162700784DE204541FF2784BE214F2D000D0D088
:03163700D0E032CE
:10172A00C2ACE4784DF2784FF2784BF208F2784E78
:10173A00F2784AF2D29CC29FD29E43878043D880D5
:10174A00EF24FC601324FE60091470127C037DF7F9
:10175A0080107C037DF3800A7C037DCC80047C03AB
:07176A007DE68DAAECF5BA43
:011771002255
:101B1D00784BE2D3942050F8C2AC784BE270048F2E
:101B2D0099800F784FE22428F8A607784FE20454E5
:0A1B3D001FF2784BE204F2D2AC2252
:0520B200784AE2FF2264
:0B1FD000784BE270037F01227F0022AB
:101CD000784AE260FBC2AC784CE22408F8E6FF7870
:0D1CE0004CE204541FF2784AE214F2D2AC38
:011CED0022D4
:10004E00EC4D6011E8497017ED33EC3304600DE4AC
:10005E00FCFFFEFD22E933E8330470F802029E1223
:10006E00026958046009E4CC248150062850090224
:10007E0002A82840030202A5C0E0EB4A7044B980F2
:10008E0006D0E0FB020294EF4E701CBD8008EBFF21
:10009E00EAFEE9FD80EBE98DF0A4FEE5F002013702
:1000AE00E9CDF9EAFEEBFFEF89F0A4FCE5F0CE898D
:1000BE00F0A42EFFE435F0CD89F0A42DFEE435F04A
:1000CE008067EF4E7005BD80D780C3EF8BF0A4AC78
:1000DE00F0EE8BF0A42CFCE435F0F8EF8AF0A42CB3
:1000EE00E5F038FCE433CB8DF0A42CFCE5F03BF8C6
:1000FE00EE8AF0A42CFCE5F038F8E433CF89F0A4B6
:10010E002CFCE5F038CF3400CE89F0A42FFFE5F0BB
:10011E003EFEE433C98DF0A42EFEE5F039CD8AF013
:10012E00A42FFFE5F03EFEE43DFD33D0E0FB50078B
:10013E000BBB000F0202A8EC2CFCEF33FFEE33FEDC
:06014E00ED33FD0202800A
:100154000202A8EC5D046005E85904700302029EE3
:10016400120269580460F6EC4860F2EC7004FDFE7B
:10017400FF22C860DB2481C85009C398600250067E
:100184000202A59850CAF582E9294B4A7005AB8250
:1001940002029475F0007C1A7880C3EF9BEE9AED0E
:1001A40099400DC3EF9BFFEE9AFEED99FDE842F0F6
:1001B400DC23ACF0D0E0FFD0E0FED0E0FDAB822049
:1001C400E7101BEB60BAEC2CFCEF33FFEE33FEEDD3
:1001D40033FD020280E803F830E705C0F075F00053
:1001E400EF2FFFEE33FEED33FD40B830E7C280AAB7
:1001F40075F020800E75F010800575F0087D007E86
:10020400007F003392D530D503120431EC33401013
:10021400EF33FFEE33FEED33FDEC33FCD5F0ED228E
:0E022400E5F0247EA2D513CC92E7CDCEFF22CA
:10023200EDD2E7CD33EC3392D524814006E4FFFEC4
:10024200FDFC22FCE4CFCECDCC24E0501174FF8023
:10025200EDC3CC13CCCD13CDCE13CECF13CF0470C0
:07026200F030D5DE0204318B
:10026900E9D2E7C933E833F892D5EDD2E7CD33ECDB
:0702790033FC5002B2D52254
:10028000EC30E7100FBF000C0EBE00080DBD0004DF
:100290000BEB6014A2D5EB13FCED92E7FD2274FF8B
:1002A000FCFDFEFF22E480F8A2D574FF13FC7D80E4
:0302B000E480EFF8
:030000000211A941
:0C11A900787FE4F6D8FD7581470211F054
:1002B300BB010689828A83E0225002E722BBFE0249
:0902C300E32289828A83E493227C
:1002CC00BB010689828A83F0225002F722BBFE0111
:0202DC00F3220B
:1002DE00C2D5EC30E709B2D5E4C39DFDE49CFCEE3B
:1002EE0030E715B2D5E4C39FFFE49EFE1204DDC3D2
:1002FE00E49DFDE49CFC80031204DD30D507C3E4CD
:06030E009FFFE49EFE22A9
:10031400E88FF0A4CC8BF0A42CFCE98EF0A42CFC88
:100324008AF0EDA42CFCEA8EF0A4CDA8F08BF0A406
:100334002DCC3825F0FDE98FF0A42CCD35F0FCEB65
:100344008EF0A4FEA9F0EB8FF0A4CFC5F02ECD392A
:0F035400FEE43CFCEAA42DCE35F0FDE43CFC2297
:1003630075F008758200EF2FFFEE33FECD33CDCC51
:1003730033CCC58233C5829BED9AEC99E5829840D4
:100383000CF582EE9BFEED9AFDEC99FC0FD5F0D6B1
:10039300E4CEFBE4CDFAE4CCF9A88222B800C1B9DB
:1003A3000059BA002DEC8BF084CFCECDFCE5F0CB19
:1003B300F97818EF2FFFEE33FEED33FDEC33FCEB52
:1003C30033FB10D703994004EB99FB0FD8E5E4F90D
:1003D300FA227818EF2FFFEE33FEED33FDEC33FCFA
:1003E300C933C910D7059BE99A4007EC9BFCE99AEE
:1003F300F90FD8E0E4C9FAE4CCFB2275F010EF2F33
:10040300FFEE33FEED33FDCC33CCC833C810D70732
:100413009BEC9AE899400AED9BFDEC9AFCE899F86D
:0E0423000FD5F0DAE4CDFBE4CCFAE4C8F92200
:0E043100C3E49FFFE49EFEE49DFDE49CFC22DC
:10043F00EB9FF5F0EA9E42F0E99D42F0EC6480C834
:06044F0064809845F022D4
:10045500EB9FF5F0EA9E42F0E99D42F0E89C45F0FD
:010465002274
:10046600E8600FECC313FCED13FDEE13FEEF13FF74
:03047600D8F12298
:10047900E8600FEFC333FFEE33FEED33FDEC33FCE1
:03048900D8F12285
:0C048C00ECF208EDF208EEF208EFF222AC
:10049800D083D082E493F208740193F20874029333
:0904A800F208740393F27404736A
:1004B100EF4E6012EF60010EEDBB010B89828A8362
:1004C100F0A3DFFCDEFA2289F05007F709DFFCA96F
:0C04D100F022BBFEFCF309DFFCA9F022C6
:1011B500020E20E493A3F8E493A34003F68001F222
:1011C50008DFF48029E493A3F85407240CC8C3333B
:1011D500C4540F4420C8834004F456800146F6DF0A
:1011E500E4800B0102040810204080901F99E47EE2
:1011F500019360BCA3FF543F30E509541FFEE493FF
:10120500A360010ECF54C025E060A840B8E493A3C5
:10121500FAE493A3F8E493A3C8C582C8CAC583CAF0
:10122500F0A3C8C582C8CAC583CADFE9DEE780BEA8
:011FA300003D
:1004DD00BC000BBE0029EF8DF084FFADF022E4CC03
:1004ED00F875F008EF2FFFEE33FEEC33FCEE9DECCC
:1004FD00984005FCEE9DFE0FD5F0E9E4CEFD22ED12
:10050D00F8F5F0EE8420D21CFEADF075F008EF2F5B
:10051D00FFED33FD4007985006D5F0F222C398FD4C
:05052D000FD5F0EA22E9
:00000001FF
