:1011C50045037AE7E7E7E7E74103A00041039F000E
:0811D5004103CF004103CE00ED
:0713CA007593F67594FF22F4
:0E132100758901758C97758AD6D2A9D28C2257
:0613D1007F0212123B2214
:100D8E00D2EA7FFF120B207D007F001209077F0140
:100D9E001210E77F321211767F02120E0E7F0312AF
:100DAE0000267F02120E7F7B017A03797A7F001272
:100DBE000CF77D0A7F001213037F01121105D2B9C1
:050DCE00D2AFD2E822C3
:10029F009003DAE4F09003DBE4F0751DFF9003A206
:1002AF00E0FFEF641E60030204669003D97401F04F
:1002BF00751C00E51CC3943C40030203A2AF1C75E0
:1002CF00F00BEFA424E6F582E5F03400F583E0FFB0
:1002DF00EF7003020395AF1C75F00BEFA424E7F545
:1002EF0082E5F03400F583E0FF9003A3E0FEEF6EAC
:1002FF007057AF1C75F00BEFA424E8F582E5F034CE
:10030F0000F583E0FF9003A4E0FEEF6E703BAF1C9F
:10031F0075F00BEFA424E6F582E5F03400F583E0E9
:10032F00FFEFC3940150079003D9E4F08065AF1C31
:10033F0075F00BEFA424E6F582E5F03400F5837435
:10034F0001F09003D9E4F0804AAF1C75F00BEFA4D5
:10035F0024E6F582E5F03400F583E0FF9003DAE060
:10036F00FEEFD39E4028AF1C75F00BEFA424E6F5EB
:10037F0082E5F03400F583E0FF9003DAEFF09003AD
:10038F00DBE51CF08008E51DB4FF03851C1D051C73
:10039F000202C29003D9E0FFEF640160030204661A
:1003AF00E51DC3943C5050751C00E51CC3940850C8
:1003BF0031AF1C74A32FF582E43403F583E0FFAE55
:1003CF001CAD1D75F00BEDA424E7F582E5F03400AC
:1003DF00F583E5822EF582E43583F583EFF0051C76
:1003EF0080C8AF1D75F00BEFA424E6F582E5F0345D
:1003FF0000F5837401F0229003DBE0FFEFC3943C20
:10040F005055751C00E51CC394085034AF1C74A3E1
:10041F002FF582E43403F583E0FFAE1C9003DBE09D
:10042F00FD75F00BEDA424E7F582E5F03400F583BC
:10043F00E5822EF582E43583F583EFF0051C80C548
:10044F009003DBE0FF75F00BEFA424E6F582E5F0F7
:07045F003400F5837401F085
:010466002273
:0B1365008F708570993099FDC29922AD
:101000008B4C8A4D894EAB4CAA4DA94E120AA2FFB9
:10101000EF6017AB4C054EE54EAA4D7002054D141E
:0B102000F9120AA2FF12136580DC2207
:10004E009003DBE4F09003A0E4F09003D9E4F09089
:10005E0003D9E0FFEFC3943C506D9003D9E0FF75D8
:10006E00F00BEFA424E6F582E5F03400F583E0FF13
:10007E00EFD3940140499003D9E0FF75F00BEFA444
:10008E0024E6F582E5F03400F583E004F09003D920
:10009E00E0FF75F00BEFA424E6F582E5F03400F5F1
:1000AE0083E0FFEFC3940140169003D9E0FF75F093
:1000BE000BEFA424E6F582E5F03400F583E4F0902E
:1000CE0003D9E004F080889000007433F0900001B2
:1000DE0074CCF09000027401F09000037401F09063
:1000EE0003D9E4F09003D9E0FFEFC3943C40030240
:1000FE0001BD9003D9E0FF75F00BEFA424E6F58265
:10010E00E5F03400F583E0FFEF640160030201B413
:10011E009003DAE4F09003DAE0FFEFC3940850594D
:10012E009003DAE0FF9003D9E0FE75F00BEEA42405
:10013E00E7F582E5F03400F583E5822FF582E435AC
:10014E0083F583E0FF9003DAE0FE9003DBE0FD75BC
:10015E00F008EDA4F58285F083E5822EF582E43574
:10016E0083F583E5822408F582E5833400F583EF79
:10017E00F09003DAE004F0809C9003D9E0FF75F074
:10018E000BEFA424E6F582E5F03400F5837402F05B
:10019E009003DBE004F09003A07401F09003DBE029
:1001AE00FFEF641460099003D9E004F00200F290AE
:1001BE0003CEE004F09003CEE0FFEFB4FF06900311
:1001CE00CE7401F09003DBE0FFEF75F008A4FFEFB3
:1001DE002406FF900004EFF09003CEE0FF900005A0
:1001EE00EFF09000067420F09003DBE0FF90000724
:1001FE00EFF09003DCE4F09003D9E4F0900004E01B
:10020E00FF9003D9E0FEEEC39F501F9003D9E0FF8D
:10021E0074022FF582E43400F583E0FF9003DCE0F6
:10022E002FF09003D9E004F080D29003DCE0FF7E43
:10023E0000C3E49FFF74019EFE7E00900004E0FE6A
:10024E0074022EF582E43400F583EFF09003D9E4C6
:10025E00F0900004E0FF7E00EF2403FFEE3400FE7A
:10026E009003D9E0FD7C00C3ED9FEE6480F8EC6452
:10027E008098501C9003D9E0FF74002FF582E4346F
:10028E0000F583E0FF1210569003D9E004F080C110
:01029E00223D
:100BF0001213CA1213D1120D8E7F07120B9012120C
:100C0000C4EFB402F9121321751B00E51BC3943C19
:100C10005017AF1B75F00BEFA424E6F582E5F03416
:100C200000F583E4F0051B80E2E554B40108B280CE
:100C300075540012029F9003CFE0FFEFB401EA90D9
:090C400003CFE4F012004E80E045
:010C49002288
:03004B00020603A7
:10060300C0E0C0F0C083C082C0D075D000C000C0BD
:0D06130001C002C003C004C005C006C0073E
:100620001212F48F08E50820E6030207051213846E
:10063000EF60030207057B017A03797F1212908E27
:10064000528F537E00AF53EF640A4E60030206FFE1
:10065000900380E0FF7E0090037FE0FD7C00ED2FA3
:10066000FFEC3EFE900381E0FD7C00EF2DFFEE3CB1
:10067000FE900382E0FD7C00EF2DFFEE3CFE900338
:1006800083E0FD7C00EF2DFFEE3CFE900384E0FD57
:100690007C00EF2DFFEE3CFE900385E0FD7C00EF3B
:1006A0002DFFEE3CFE900386E0FD7C00EF2DFFEE7B
:1006B0003CFE900387E0FD7C00EF2DFFEE3CFE90BA
:1006C0000388E0FD7C00EF2DFFEE3CFE7E00EF4E48
:1006D000702D750900E509C394095020AF09747F96
:1006E0002FF582E43403F583E0FFAE0974A22EF502
:1006F00082E43403F583EFF0050980D975540112C3
:1007000013B602062DE50830E5031213C0E50830E4
:05071000E4031213C018
:10071500D007D006D005D004D003D002D001D00038
:0B072500D0D0D082D083D0F0D0E032E2
:060D47008B4F8A50895118
:100D4D009003DEE4F09003DDE4F09003DDE0FFEFCF
:100D5D00C394065022AB4FAA50A9519003DDE0FF7A
:100D6D008F82758300120ABBFF9003DEE02FF09097
:100D7D0003DDE004F080D39003DEE0FFEFF404FF29
:010D8D002243
:03000B00020E479B
:100E4700C0E0C083C082C0D075D000C007758C9742
:100E5700758AD690039FE004F090039FE0FFEFB4FC
:100E6700320B90039FE4F09003CF7401F0D007D0CA
:080E7700D0D082D083D0E0321C
:101191008E588F590000000000E55915597002154D
:0A11A1005814FFAE58EF4E70EB2219
:100EE8008E5A8F5B7FFA7E001211917FFA7E001274
:100EF80011917FFA7E001211917FFA7E00121191F2
:100F0800E55B155B7002155A14FFAE5AEF4E70D4AC
:010F180022B6
:10000E008F71E571600BE5A34480FFEF54F7F5A304
:05001E002253A377222C
:1011DE008F72E5725401FFEFC4333354C0FFE5A3A1
:0811EE0054B7FEEF4EF5A322F9
:10123B008F1CE51C5403FFEFC454F0FFE5A354C708
:06124B00FEEF4EF5A322A8
:0F12C400E5AD30E305751C028003751C01AF1CFE
:0112D30022F8
:1012A2008F73E5735407FFE5A354F0FEEE4FF5A3E9
:0112B2002219
:0613D700E5AD5480FF2289
:0613DD00E5AD5440FF22C3
:1012B3008F74E5745407FFE5AD54F8FEEE4FF5ADBA
:0112C3002208
:0D134B008F1A851AE7E5E630E1FBAFE722D7
:03002300020CA329
:100CA300C0E0C0D075D000C000C00730981CC29807
:100CB300E52CC394205013AF3074782FF8A699E530
:100CC3003004FFEF541FF530052C30991EC299E50F
:100CD3002DD394014013AF2F74982FF8E6FF8F990B
:100CE300E52F04FFEF541FF52F152DD007D000D0AB
:040CF300D0D0E0324B
:020B90008F1CB8
:100B9200C2AC752F00753100752D00752E007530B1
:100BA20000752C00D29CC29FD29E43878043D8807E
:100BB200E51C120AFA0BD7040BDF050BCF060BC795
:100BC2000700000BDF751D03751EF78016751D03E8
:100BD200751EF3800E751D03751ECC8006751D03F0
:0D0BE200751EE6851EAAE51DFF7E008FBA78
:010BEF0022E3
:101056008F2BE52DD3942050F9C2ACE52D70058574
:101066002B998011AF3174982FF8A62BE53104FF28
:0A107600EF541FF531052DD2AC2216
:0313F500AF2C22F8
:0A137000E52D70037F01227F0022AB
:1010A800E52C60FCC2ACAF2E74782FF8E6FF8F7584
:0F10B800E52E04FFEF541FF52E152CD2ACAF75AB
:0110C7002206
:101251008E5C8F5DAF5DEF54FFF5AFAE5C7F00EE4E
:06126100FF7E008FAF22AA
:0C13580085AF5F85AF5E855FAF855EAF3F
:011364002266
:0210E7008F1C5C
:1010E9007F0012102B8F1DE51CB40105431D0180E3
:0B10F90003531DFEAD1D7F00120F49C8
:0111040022C8
:021105008F1C3D
:101107007F0012102B8F1DE51CB40105431D0280C3
:0B11170003531DFDAD1D7F00120F49AA
:0111220022AA
:020E7F008F1CC6
:100E81007F0012102B8F1DE51C120AFA0E9A000E1C
:100E91009F010EA70200000EAD531DF7800E431DEA
:100EA10008531DFB8006431D08431D04AD1D7F0033
:030EB100120F49D4
:010EB400221B
:040A22008F558D5609
:100A26007F0012102B8F57E555120AFA0A3F040A67
:100A36005D050A7C0600000A9AE55660047F008080
:100A4600027F01EF5401FFEFC454F0FFE55754EF66
:100A5600FEEE4FF557803DE55660047F0080027F2D
:100A660001EF5401FFEFC43354E0FFE55754DFFEB6
:100A7600EE4FF557801EE55660047F0080027F0129
:100A8600EF5401FFEFC4333354C0FFE55754BFFEA4
:0B0A9600EE4FF557AD577F00120F49DF
:010AA1002232
:0E12F4007D707F07120F498F0AE50A5470FFC4
:0113020022C8
:10115B007D707F07120F49EF5470F5767F071210E1
:0A116B002BEF540FFFEF4276AF7632
:011175002257
:101267008F77AF777401A807088002C333D8FCFDD6
:061277007F07120F49225F
:0800030012133DEF5470FF22BF
:040907008F1C8D1D97
:10090B007F0212102B8F1E7F0112102B8F1FE51CE5
:10091B00120AFA093A00093A01093A02093A03099B
:10092B003A04093A050987060978FF00000987AFE1
:10093B001C7401A807088002C333D8FCFFEF421ECA
:10094B00E51D6013AF1C7401A807088002C333D8E0
:10095B00FCFFEF421F8025AF1C7401A80708800223
:10096B00C333D8FCFFEFF4FFEF521F800F751E3F10
:10097B00E51D6005751F3F8003751F00AD1E7F02CF
:0A098B00120F49AD1F7F01120F4942
:01099500223F
:020B20008F1C28
:100B22007F0212102B8F1D7F0112102B8F1EE51CCE
:100B3200120AFA0B51000B51010B51020B51030B1C
:100B420051040B51050B81060B7BFF00000B81AF9B
:100B52001C7401A807088002C333D8FCFFEFF4FF1E
:100B6200EF521DAF1C7401A807088002C333D8FCE2
:100B7200FFEFF4FFEF521E8006751D00751E00ADDB
:0D0B82001D7F02120F49AD1E7F01120F49A9
:010B8F002243
:100CF7008F1C8B1D8A1E891FE51C120AFA0D200006
:100D07000D20010D34020D34030D34040D34050D8F
:100D170020060D46FF00000D4612137A8F24E51CAE
:100D2700242AFFAB1DAA1EA91F12073022E51C2487
:100D37000AFFAB1DAA1EA91F120AA2FD120F492204
:100DD3008F3C8B3D8A3E893FE53C120AFA0DED00BC
:100DE3000DED010DED0600000DF9AB3DAA3EA93F47
:100DF300AF3C12046722E53C240AFF12102BAB3DE3
:0B0E0300AA3EA93FEF120AE87F01227F
:060EB5008F408C418D42CC
:100EBB00E541FF7E00EF540FFFEFC454F0FFE54315
:100ECB00540FFEEE4FF543E540540FFFE54354F04E
:0C0EDB00FEEE4FF543AD437F04120F49BB
:010EE70022E8
:0210C8008F6037
:1010CA00756100E56024FEFFEF5403FFE56154FCFF
:0C10DA00FEEE4FF561AD617F03120F497F
:0110E60022E7
:0A137A007F0312102BEF2402FF2264
:0F1303008F1C8D1DE51C2411FFAD1D120F4922FB
:020835008F3200
:100837007F0212102B8F337F0112102B8F34E5327A
:10084700120AFA086000086F0108870208A3030864
:10085700C10408DB05000008F7E5335401F535E569
:10086700345401F5360208FDAF33EFC313FFEF54DD
:1008770001F535AF34EFC313FFEF5401F53680763A
:10088700AF33EF1313543FFFEF5401F535AF34EF98
:100897001313543FFFEF5401F536805AAF33EF136C
:1008A7001313541FFFEF5401F535AF34EF13131330
:1008B700541FFFEF5401F536803CAF33EFC4540F9C
:1008C700FFEF5401F535AF34EFC4540FFFEF540178
:1008D700F5368022AF33EFC4135407FFEF5401F509
:1008E70035AF34EFC4135407FFEF5401F5368006D4
:0F08F700753500753600E53625E0FFEF2535FF36
:0109060022CE
:0613E3007F0812102B220E
:101123007F0812102B7E007E00EF54F0FFEEC4F810
:0C11330054F0C868FEEFC4540F48FF22BF
:020C4A008F62B7
:100C4C00E562120AFA0C67000C70010C79020C8236
:100C5C00030C8B040C940500000C9D7F1112102BBF
:100C6C008F6380307F1212102B8F6380277F1312BB
:100C7C00102B8F63801E7F1412102B8F6380157FB7
:100C8C001512102B8F63800C7F1612102B8F638024
:060C9C0003756300AF6365
:010CA200222F
:021176008F1CCC
:10117800751D00E51C547FFFE51D5480FEEE4FF5FC
:081188001DAD1D7F05120F498A
:01119000223C
:020026008F1C2D
:100028007F0612102B8F1DE51C5403FFEF25E0FF00
:10003800E51D54F9FEEE4FF51DAD1D7F06120F4963
:010048002295
:020E0E008F1C37
:100E10007F0612102B8F1DE51C120AFA0E31000EF0
:100E200039010E290200000E39431D20531DF780A1
:100E30000E531DDF531DF78006531DDF431D08AD04
:060E40001D7F06120F49A0
:010E46002289
:0A1384007F1712102BEF5401FF2217
:0E132F007F1712102BEFC313FFEF5401FF22A4
:0F1312007F1712102BEFC4540FFFEF5401FF226F
:1012D4007F1712102BEFC4135407FFEF5401FF22A2
:10113F007F1712102B7E007E00EF5430FFEEC4F8A5
:0C114F0054F0C868FEEFC4540F48FF22A3
:0A138E007F1712102BEF5403FF220B
:0613E9007F1712102B22F9
:0A1398007F0812102BEF540FFF2204
:0A13A2007F0912102BEF5401FF2207
:010049002294
:0212E4008F6415
:0D12E600E564543FF565AD657F1C120F49AE
:0112F30022D8
:020F79008F6681
:100F7B007F1D12102B8F67E56660047F0180027F57
:100F8B0000EF5401FFEF25E025E0FFE56754FBFE82
:0B0F9B00EE4FF567AD677F1D120F4998
:010FA6002228
:020FD4008F6824
:100FD6007F1D12102B8F69E56860047F0180027FF8
:100FE60000EF5401FFEF25E0FFE56954FDFEEE4FEB
:090FF600F569AD697F1D120F4978
:010FFF0022CF
:021080008F6A75
:101082007F1D12102B8F6BE56A60047F0180027F47
:1010920000EF5401FFE56B54FEFEEE4FF56BAD6BB6
:0510A2007F1D120F4943
:0110A7002226
:1011F6008B448A4589468D47AB44AA45A94685470F
:07120600247FA01207302233
:10120D008B488A49894A8D4BAB48AA49A94A854BD7
:07121D00247FB0120730220C
:1011AB008F378B388A39893AE53744A8FFAB38AA91
:0A11BB0039A93A853B2412073022BF
:0613EF007F6012102B22AA
:101290008B0A8A0B890CAB0AAA0BA90C7F081204D3
:0212A0006722C3
:10127D0012133D7E007E00EF540EFFEEC313FEEF02
:03128D0013FF222A
:0A13AC00C2E97FE312134BD2E922DD
:101224001213E97E007E00EF5440FFEF7806CEC330
:0712340013CE13D8F9FF22CD
:0A13B600C2E97FE212134BD2E922D4
:0A13C000C2E97FE112134BD2E922CB
:0D133D00C2E97FFF12134B8F19D2E9AF19DF
:01134A002280
:020FA7008F6C4D
:100FA9007F0612102B8F6DE56C60047F0180027F34
:100FB90000EF5401FFEFC454F0FFE56D54EFFEEE6E
:0A0FC9004FF56DAD6D7F06120F4964
:010FD30022FB
:020F19008F6ED9
:100F1B007F0612102B8F6FE56E60047F0180027FBE
:100F2B0000EF5401FFEFC43333335480FFE56F54AC
:0D0F3B007FFEEE4FF56FAD6F7F06120F4980
:010F48002286
:02102B008F2014
:10102D00C2E98520E7E5E65402FF7E00EF4E60F54C
:10103D0085E72175E700E5E65402FF7E00EF4E607F
:08104D00F585E721D2E9AF218E
:011055002278
:040F49008F208D2147
:100F4D00C2E9E5202420F5E7E5E65402FF7E00EF37
:100F5D004E60F585E7228521E7E5E65402FF7E0028
:0B0F6D00EF4E60F585E723D2E9AF22CC
:010F78002256
:080467008F0D8B0E8A0F891026
:10046F00751501850E13E50D120AFA048A00048A28
:10047F0001048A06049D08000004C112137A8F112B
:10048F008F12C2E9E50D240AFF12134B802A1212B4
:10049F007D8F0DE50DC3940750101213EF8F118F41
:1004AF0012C2E97F6112134B800E75120075110095
:0C04BF008006751200751100E513703CFA
:1004CB00AB0EAA0FA910AF018F1675E700E51570DB
:1004DB000AAF16A807A61405168003751500E5E6E6
:1004EB005402FF7E00EF4E60F585E7141511AF1136
:0904FB00EF70D7AF16A807A61494
:090504000205EEE51364017050DC
:10050D00AB0EAA0FA910AE02AF018E168F1775E7AD
:10051D0000E5157015AE16AF178F828E83E514F0BA
:10052D000517E517700205168003751500E5E654ED
:10053D0002FF7E00EF4E60F585E7141511AF11EF48
:0D054D0070CCAE16AF178F828E83E514F0D0
:09055A000205EEE51364FE703D9C
:10056300AB0EAA0FA910AF018F1675E700E5157042
:100573000BAF16A807E514F205168003751500E501
:10058300E65402FF7E00EF4E60F585E7141511AFC8
:0B05930011EF70D6AF16A807E514F2B8
:02059E00804E8D
:1005A000AB0EAA0FA9108B168A17891875E700E5FC
:1005B000157018AB16AA17A918E514120AE87401E9
:1005C0002518F518E43517F5178003751500E5E6CD
:1005D0005402FF7E00EF4E60F585E7141511AF1150
:0E05E000EF70C9AB16AA17A918E514120AE8A5
:1005EE00D2E9AF0D7E00EF7F00FEAD127C00EE4C27
:0405FE00FEEF4DFFC0
:0106020022D5
:080730008F208B218A2289230E
:0C073800852125C2E98520E7E525702F0A
:10074400AB21AA22A923AF018F28AF28A807E6FF6F
:100754008F260528E5E65402FF7E00EF4E60F585FE
:0C076400E7278526E71524AF24EF70DEA0
:09077000020824E5256401703C37
:10077900AB21AA22A923AE02AF018E288F29AE2868
:10078900AF298F828E83E0FF8F260529E529700224
:100799000528E5E65402FF7E00EF4E60F585E72760
:0A07A9008526E71524AF24EF70D475
:0807B300806FE52564FE702E45
:1007BB00AB21AA22A923AF018F28AF28A807E2FFFC
:1007CB008F260528E5E65402FF7E00EF4E60F58587
:0C07DB00E7278526E71524AF24EF70DE29
:0207E700803B55
:1007E900AB21AA22A9238B288A29892AAB28AA29DD
:1007F900A92A120AA2FF8F267401252AF52AE435AF
:1008090029F529E5E65402FF7E00EF4E60F585E7FC
:0B081900278526E71524AF24EF70D1DF
:10082400E5E65402FF7E00EF4E60F585E727D2E946
:0108340022A1
:030000000209965C
:0C099600787FE4F6D8FD7581B70209DD1A
:100AA200BB010689828A83E0225002E722BBFE0252
:090AB200E32289828A83E4932285
:100ABB00BB010CE58229F582E5833AF583E02250F0
:100ACB0006E92582F8E622BBFE06E92582F8E2223A
:0D0ADB00E58229F582E5833AF583E4932254
:100AE800BB010689828A83F0225002F722BBFE01ED
:020AF800F322E7
:100AFA00D083D082F8E4937012740193700DA3A38B
:100B0A0093F8740193F5828883E47374029368609E
:060B1A00EFA3A3A380DF9E
:1009A200020BF0E493A3F8E493A34003F68001F270
:1009B20008DFF48029E493A3F85407240CC8C33356
:1009C200C4540F4420C8834004F456800146F6DF25
:1009D200E4800B01020408102040809011C5E47EDF
:1009E200019360BCA3FF543F30E509541FFEE4931A
:1009F200A360010ECF54C025E060A840B8E493A3E1
:100A0200FAE493A3F8E493A3C8C582C8CAC583CA0B
:100A1200F0A3C8C582C8CAC583CADFE9DEE780BEC3
:0111DD000011
:00000001FF
