:1012B40045037AE7E7E7E7E74103A00041039F001E
:0812C4004103CF004103CE00FD
:0714B9007593F67594FF2204
:0E141000758901758C97758AD6D2A9D28C2267
:0614C0007F0212132A2234
:100E7D00D2EA7FFF120C0F7D007F001209F67F0171
:100E8D001211D67F321212657F02120EFD7F0312F0
:100E9D0000267F02120F6E7B017A03797A7F001292
:100EAD000DE67D0A7F001213F27F011211F4D2B903
:050EBD00D2AFD2E822D3
:10038E009003DAE4F09003DBE4F0751DFF9003A216
:10039E00E0FFEF641E60030205559003D97401F06F
:1003AE00751C00E51CC3943C4003020491AF1C7500
:1003BE00F00BEFA424E6F582E5F03400F583E0FFC0
:1003CE00EF7003020484AF1C75F00BEFA424E7F565
:1003DE0082E5F03400F583E0FF9003A3E0FEEF6EBC
:1003EE007057AF1C75F00BEFA424E8F582E5F034DE
:1003FE0000F583E0FF9003A4E0FEEF6E703BAF1CB0
:10040E0075F00BEFA424E6F582E5F03400F583E0F9
:10041E00FFEFC3940150079003D9E4F08065AF1C41
:10042E0075F00BEFA424E6F582E5F03400F5837445
:10043E0001F09003D9E4F0804AAF1C75F00BEFA4E5
:10044E0024E6F582E5F03400F583E0FF9003DAE070
:10045E00FEEFD39E4028AF1C75F00BEFA424E6F5FB
:10046E0082E5F03400F583E0FF9003DAEFF09003BD
:10047E00DBE51CF08008E51DB4FF03851C1D051C83
:10048E000203B19003D9E0FFEF640160030205554A
:10049E00E51DC3943C5050751C00E51CC3940850D8
:1004AE0031AF1C74A32FF582E43403F583E0FFAE65
:1004BE001CAD1D75F00BEDA424E7F582E5F03400BC
:1004CE00F583E5822EF582E43583F583EFF0051C86
:1004DE0080C8AF1D75F00BEFA424E6F582E5F0346D
:1004EE0000F5837401F0229003DBE0FFEFC3943C30
:1004FE005055751C00E51CC394085034AF1C74A3F2
:10050E002FF582E43403F583E0FFAE1C9003DBE0AD
:10051E00FD75F00BEDA424E7F582E5F03400F583CC
:10052E00E5822EF582E43583F583EFF0051C80C558
:10053E009003DBE0FF75F00BEFA424E6F582E5F007
:07054E003400F5837401F095
:010555002283
:0B1454008F708570993099FDC29922BD
:1010EF008B4C8A4D894EAB4CAA4DA94E120B91FFDA
:1010FF00EF6017AB4C054EE54EAA4D7002054D142F
:0B110F00F9120B91FF12145480DC2237
:10004E009003DAE4F09003A0E4F09003D9E4F0908A
:10005E0003D9E0FFEFC3943C506D9003D9E0FF75D8
:10006E00F00BEFA424E6F582E5F03400F583E0FF13
:10007E00EFD3940140499003D9E0FF75F00BEFA444
:10008E0024E6F582E5F03400F583E004F09003D920
:10009E00E0FF75F00BEFA424E6F582E5F03400F5F1
:1000AE0083E0FFEFC3940140169003D9E0FF75F093
:1000BE000BEFA424E6F582E5F03400F583E4F0902E
:1000CE0003D9E004F080889000007433F0900001B2
:1000DE0074CCF09000027401F09000037401F09063
:1000EE0003D9E4F09003D9E0FFEFC3943C40030240
:1000FE0002AC9003D9E0FF75F00BEFA424E6F58275
:10010E00E5F03400F583E0FFEF640160030202A323
:10011E009003D9E0FF75F00BEFA424E7F582E5F02C
:10012E003400F583E0FF9003DAE0FEEE75F008A4EC
:10013E002408F582E43400F583EFF09003D9E0FF54
:10014E0075F00BEFA424E8F582E5F03400F583E0BA
:10015E00FF9003DAE0FEEE75F008A42409F582E4C0
:10016E003400F583EFF09003D9E0FF75F00BEFA4A8
:10017E0024E9F582E5F03400F583E0FF9003DAE040
:10018E00FEEE75F008A4240AF582E43400F583EF40
:10019E00F09003D9E0FF75F00BEFA424EAF582E5A9
:1001AE00F03400F583E0FF9003DAE0FEEE75F00820
:1001BE00A4240BF582E43400F583EFF09003D9E02C
:1001CE00FF75F00BEFA424EBF582E5F03400F58318
:1001DE00E0FF9003DAE0FEEE75F008A4240CF58241
:1001EE00E43400F583EFF09003D9E0FF75F00BEFE8
:1001FE00A424ECF582E5F03400F583E0FF9003DAF9
:10020E00E0FEEE75F008A4240DF582E43400F583CB
:10021E00EFF09003D9E0FF75F00BEFA424EDF5821B
:10022E00E5F03400F583E0FF9003DAE0FEEE75F0C2
:10023E0008A4240EF582E43400F583EFF09003D980
:10024E00E0FF75F00BEFA424EEF582E5F03400F537
:10025E0083E0FF9003DAE0FEEE75F008A4240FF5BC
:10026E0082E43400F583EFF09003D9E0FF75F00BD4
:10027E00EFA424E6F582E5F03400F5837402F090E5
:10028E0003DAE004F09003A07401F09003DAE0FFCB
:10029E00EF641460099003D9E004F00200F29003B9
:1002AE00CEE004F09003CEE0FFEFB4FF069003CE55
:1002BE007401F09003DAE0FFEF75F008A4FFEF246D
:1002CE0006FF900004EFF09003CEE0FF900005EFE4
:1002DE00F09000067420F09003DAE0FF900007EF34
:1002EE00F09003DBE4F09003D9E4F0900004E0FF1B
:1002FE009003D9E0FEEEC39F501F9003D9E0FF7428
:10030E00022FF582E43400F583E0FF9003DBE02F4B
:10031E00F09003D9E004F080D29003DBE0FF7E0082
:10032E00C3E49FFF74019EFE7E00900004E0FE7405
:10033E00022EF582E43400F583EFF09003D9E4F059
:10034E00900004E0FF7E00EF2403FFEE3400FE90E9
:10035E0003D9E0FD7C00C3ED9FEE6480F8EC648071
:10036E0098501C9003D9E0FF74002FF582E43400FE
:0F037E00F583E0FF1211459003D9E004F080C130
:01038D00224D
:100CDF001214B91214C0120E7D7F07120C7F12135B
:100CEF00B3EFB402F9121410751B00E51BC3943C4B
:100CFF005017AF1B75F00BEFA424E6F582E5F03427
:100D0F0000F583E4F0051B80E2E554B40108B280DE
:100D1F0075540012038E9003CFE0FFEFB401EA90F9
:090D2F0003CFE4F012004E80E055
:010D38002298
:03004B000206F2B8
:1006F200C0E0C0F0C083C082C0D075D000C000C0CE
:0D07020001C002C003C004C005C006C0074E
:10070F001213E38F08E50820E6030207F4121473AF
:10071F00EF60030207F47B017A03797F12137F8E58
:10072F00528F537E00AF53EF640A4E60030207EE01
:10073F00900380E0FF7E0090037FE0FD7C00ED2FB3
:10074F00FFEC3EFE900381E0FD7C00EF2DFFEE3CC1
:10075F00FE900382E0FD7C00EF2DFFEE3CFE900348
:10076F0083E0FD7C00EF2DFFEE3CFE900384E0FD67
:10077F007C00EF2DFFEE3CFE900385E0FD7C00EF4B
:10078F002DFFEE3CFE900386E0FD7C00EF2DFFEE8B
:10079F003CFE900387E0FD7C00EF2DFFEE3CFE90CA
:1007AF000388E0FD7C00EF2DFFEE3CFE7E00EF4E58
:1007BF00702D750900E509C394095020AF09747FA6
:1007CF002FF582E43403F583E0FFAE0974A22EF512
:1007DF0082E43403F583EFF0050980D975540112D3
:1007EF0014A502071CE50830E5031214AFE5083025
:0507FF00E4031214AF39
:10080400D007D006D005D004D003D002D001D00048
:0B081400D0D0D082D083D0F0D0E032F2
:060E36008B4F8A50895128
:100E3C009003DDE4F09003DCE4F09003DCE0FFEFE2
:100E4C00C394065022AB4FAA50A9519003DCE0FF8B
:100E5C008F82758300120BAAFF9003DDE02FF090B8
:100E6C0003DCE004F080D39003DDE0FFEFF404FF3B
:010E7C002253
:03000B00020F36AB
:100F3600C0E0C083C082C0D075D000C007758C9752
:100F4600758AD690039FE004F090039FE0FFEFB40C
:100F5600320B90039FE4F09003CF7401F0D007D0DA
:080F6600D0D082D083D0E0322C
:101280008E588F590000000000E55915597002155D
:0A1290005814FFAE58EF4E70EB2229
:100FD7008E5A8F5B7FFA7E001212807FFA7E001294
:100FE70012807FFA7E001212807FFA7E0012128032
:100FF700E55B155B7002155A14FFAE5AEF4E70D4BD
:0110070022C6
:10000E008F71E571600BE5A34480FFEF54F7F5A304
:05001E002253A377222C
:1012CD008F72E5725401FFEFC4333354C0FFE5A3B1
:0812DD0054B7FEEF4EF5A32209
:10132A008F1CE51C5403FFEFC454F0FFE5A354C718
:06133A00FEEF4EF5A322B8
:0F13B300E5AD30E305751C028003751C01AF1C0E
:0113C2002208
:101391008F73E5735407FFE5A354F0FEEE4FF5A3F9
:0113A1002229
:0614C600E5AD5480FF2299
:0614CC00E5AD5440FF22D3
:1013A2008F74E5745407FFE5AD54F8FEEE4FF5ADCA
:0113B2002218
:0D143A008F1A851AE7E5E630E1FBAFE722E7
:03002300020D9239
:100D9200C0E0C0D075D000C000C00730981CC29817
:100DA200E52CC394205013AF3074782FF8A699E540
:100DB2003004FFEF541FF530052C30991EC299E51F
:100DC2002DD394014013AF2F74982FF8E6FF8F991B
:100DD200E52F04FFEF541FF52F152DD007D000D0BB
:040DE200D0D0E0325B
:020C7F008F1CC8
:100C8100C2AC752F00753100752D00752E007530C1
:100C910000752C00D29CC29FD29E43878043D8808E
:100CA100E51C120BE90CC6040CCE050CBE060CB6F5
:100CB1000700000CCE751D03751EF78016751D0308
:100CC100751EF3800E751D03751ECC8006751D0300
:0D0CD100751EE6851EAAE51DFF7E008FBA88
:010CDE0022F3
:101145008F2BE52DD3942050F9C2ACE52D70058584
:101155002B998011AF3174982FF8A62BE53104FF38
:0A116500EF541FF531052DD2AC2226
:0314E400AF2C2208
:0A145F00E52D70037F01227F0022BB
:10119700E52C60FCC2ACAF2E74782FF8E6FF8F7594
:0F11A700E52E04FFEF541FF52E152CD2ACAF75BB
:0111B6002216
:101340008E5C8F5DAF5DEF54FFF5AFAE5C7F00EE5E
:06135000FF7E008FAF22BA
:0C14470085AF5F85AF5E855FAF855EAF4F
:011453002276
:0211D6008F1C6C
:1011D8007F0012111A8F1DE51CB40105431D018003
:0B11E80003531DFEAD1D7F00121038E8
:0111F30022D9
:0211F4008F1C4E
:1011F6007F0012111A8F1DE51CB40105431D0280E4
:0B12060003531DFDAD1D7F00121038CA
:0112110022BA
:020F6E008F1CD6
:100F70007F0012111A8F1DE51C120BE90F89000F5B
:100F80008E010F960200000F9C531DF7800E431D2B
:100F900008531DFB8006431D08431D04AD1D7F0043
:030FA000121038F4
:010FA300222B
:040B11008F558D5619
:100B15007F0012111A8F57E555120BE90B2E040BA6
:100B25004C050B6B0600000B89E55660047F0080C1
:100B3500027F01EF5401FFEFC454F0FFE55754EF76
:100B4500FEEE4FF557803DE55660047F0080027F3D
:100B550001EF5401FFEFC43354E0FFE55754DFFEC6
:100B6500EE4FF557801EE55660047F0080027F0139
:100B7500EF5401FFEFC4333354C0FFE55754BFFEB4
:0B0B8500EE4FF557AD577F00121038FF
:010B90002242
:0E13E3007D707F071210388F0AE50A5470FFE4
:0113F10022D9
:10124A007D707F07121038EF5470F5767F07121100
:0A125A001AEF540FFFEF4276AF7653
:011264002267
:101356008F77AF777401A807088002C333D8FCFDE6
:061366007F07121038227F
:0800030012142CEF5470FF22CF
:0409F6008F1C8D1DA8
:1009FA007F0212111A8F1E7F0112111A8F1FE51C16
:100A0A00120BE90A29000A29010A29020A29030AFA
:100A1A0029040A29050A76060A67FF00000A76AF42
:100A2A001C7401A807088002C333D8FCFFEF421EDA
:100A3A00E51D6013AF1C7401A807088002C333D8F0
:100A4A00FCFFEF421F8025AF1C7401A80708800233
:100A5A00C333D8FCFFEFF4FFEF521F800F751E3F20
:100A6A00E51D6005751F3F8003751F00AD1E7F02DF
:0A0A7A00121038AD1F7F0112103872
:010A8400224F
:020C0F008F1C38
:100C11007F0212111A8F1D7F0112111A8F1EE51CFE
:100C2100120BE90C40000C40010C40020C40030C7B
:100C310040040C40050C70060C6AFF00000C70AFFC
:100C41001C7401A807088002C333D8FCFFEFF4FF2E
:100C5100EF521DAF1C7401A807088002C333D8FCF2
:100C6100FFEFF4FFEF521E8006751D00751E00ADEB
:0D0C71001D7F02121038AD1E7F01121038D9
:010C7E002253
:100DE6008F1C8B1D8A1E891FE51C120BE90E0F0036
:100DF6000E0F010E23020E23030E23040E23050EEF
:100E06000F060E35FF00000E351214698F24E51CFF
:100E1600242AFFAB1DAA1EA91F12081F22E51C24A7
:100E26000AFFAB1DAA1EA91F120B91FD1210382234
:100EC2008F3C8B3D8A3E893FE53C120BE90EDC00EC
:100ED2000EDC010EDC0600000EE8AB3DAA3EA93F87
:100EE200AF3C12055622E53C240AFF12111AAB3D13
:0B0EF200AA3EA93FEF120BD77F0122A0
:060FA4008F408C418D42DC
:100FAA00E541FF7E00EF540FFFEFC454F0FFE54325
:100FBA00540FFEEE4FF543E540540FFFE54354F05E
:0C0FCA00FEEE4FF543AD437F04121038DB
:010FD60022F8
:0211B7008F6047
:1011B900756100E56024FEFFEF5403FFE56154FC0F
:0C11C900FEEE4FF561AD617F031210389F
:0111D50022F7
:0A1469007F0312111AEF2402FF2284
:0F13F2008F1C8D1DE51C2411FFAD1D121038221C
:020924008F3210
:100926007F0212111A8F337F0112111A8F34E532AA
:10093600120BE9094F00095E0109760209920309C3
:10094600B00409CA05000009E6E5335401F535E5AA
:10095600345401F5360209ECAF33EFC313FFEF54FD
:1009660001F535AF34EFC313FFEF5401F53680764A
:10097600AF33EF1313543FFFEF5401F535AF34EFA8
:100986001313543FFFEF5401F536805AAF33EF137C
:100996001313541FFFEF5401F535AF34EF13131340
:1009A600541FFFEF5401F536803CAF33EFC4540FAC
:1009B600FFEF5401F535AF34EFC4540FFFEF540188
:1009C600F5368022AF33EFC4135407FFEF5401F519
:1009D60035AF34EFC4135407FFEF5401F5368006E4
:0F09E600753500753600E53625E0FFEF2535FF46
:0109F50022DF
:0614D2007F0812111A222E
:101212007F0812111A7E007E00EF54F0FFEEC4F830
:0C12220054F0C868FEEFC4540F48FF22CF
:020D39008F62C7
:100D3B00E562120BE90D56000D5F010D68020D7196
:100D4B00030D7A040D830500000D8C7F1112111A0F
:100D5B008F6380307F1212111A8F6380277F1312DB
:100D6B00111A8F63801E7F1412111A8F6380157FE7
:100D7B001512111A8F63800C7F1612111A8F638054
:060D8B0003756300AF6375
:010D9100223F
:021265008F1CDC
:10126700751D00E51C547FFFE51D5480FEEE4FF50C
:081277001DAD1D7F05121038AA
:01127F00224C
:020026008F1C2D
:100028007F0612111A8F1DE51C5403FFEF25E0FF10
:10003800E51D54F9FEEE4FF51DAD1D7F0612103873
:010048002295
:020EFD008F1C48
:100EFF007F0612111A8F1DE51C120BE90F20000F30
:100F0F0028010F180200000F28431D20531DF780E2
:100F1F000E531DDF531DF78006531DDF431D08AD14
:060F2F001D7F06121038C0
:010F35002299
:0A1473007F1712111AEF5401FF2237
:0E141E007F1712111AEFC313FFEF5401FF22C4
:0F1401007F1712111AEFC4540FFFEF5401FF228F
:1013C3007F1712111AEFC4135407FFEF5401FF22C2
:10122E007F1712111A7E007E00EF5430FFEEC4F8C5
:0C123E0054F0C868FEEFC4540F48FF22B3
:0A147D007F1712111AEF5403FF222B
:0614D8007F1712111A2219
:0A1487007F0812111AEF540FFF2224
:0A1491007F0912111AEF5401FF2227
:010049002294
:0213D3008F6425
:0D13D500E564543FF565AD657F1C121038CE
:0113E20022E8
:021068008F6691
:10106A007F1D12111A8F67E56660047F0180027F77
:10107A0000EF5401FFEF25E025E0FFE56754FBFE92
:0B108A00EE4FF567AD677F1D121038B8
:011095002238
:0210C3008F6834
:1010C5007F1D12111A8F69E56860047F0180027F18
:1010D50000EF5401FFEF25E0FFE56954FDFEEE4FFB
:0910E500F569AD697F1D12103898
:0110EE0022DF
:02116F008F6A85
:101171007F1D12111A8F6BE56A60047F0180027F67
:1011810000EF5401FFE56B54FEFEEE4FF56BAD6BC6
:051191007F1D12103863
:011196002236
:1012E5008B448A4589468D47AB44AA45A94685471F
:0712F500247FA012081F2254
:1012FC008B488A49894A8D4BAB48AA49A94A854BE8
:07130C00247FB012081F222C
:10129A008F378B388A39893AE53744A8FFAB38AAA1
:0A12AA0039A93A853B2412081F22DF
:0614DE007F6012111A22CA
:10137F008B0A8A0B890CAB0AAA0BA90C7F081205E2
:02138F005622E4
:10136C0012142C7E007E00EF540EFFEEC313FEEF22
:03137C0013FF223A
:0A149B00C2E97FE312143AD2E922FD
:101313001214D87E007E00EF5440FFEF7806CEC350
:0713230013CE13D8F9FF22DD
:0A14A500C2E97FE212143AD2E922F4
:0A14AF00C2E97FE112143AD2E922EB
:0D142C00C2E97FFF12143A8F19D2E9AF19FF
:011439002290
:021096008F6C5D
:101098007F0612111A8F6DE56C60047F0180027F54
:1010A80000EF5401FFEFC454F0FFE56D54EFFEEE7E
:0A10B8004FF56DAD6D7F0612103884
:0110C200220B
:021008008F6EE9
:10100A007F0612111A8F6FE56E60047F0180027FDE
:10101A0000EF5401FFEFC43333335480FFE56F54BC
:0D102A007FFEEE4FF56FAD6F7F06121038A0
:011037002296
:02111A008F2024
:10111C00C2E98520E7E5E65402FF7E00EF4E60F55C
:10112C0085E72175E700E5E65402FF7E00EF4E608F
:08113C00F585E721D2E9AF219E
:011144002288
:041038008F208D2157
:10103C00C2E9E5202420F5E7E5E65402FF7E00EF47
:10104C004E60F585E7228521E7E5E65402FF7E0038
:0B105C00EF4E60F585E723D2E9AF22DC
:011067002266
:080556008F0D8B0E8A0F891036
:10055E00751501850E13E50D120BE9057900057968
:10056E0001057906058C08000005B01214698F117B
:10057E008F12C2E9E50D240AFF12143A802A1213D3
:10058E006C8F0DE50DC3940750101214DE8F118F72
:10059E0012C2E97F6112143A800E751200751100B5
:0C05AE008006751200751100E513703C0A
:1005BA00AB0EAA0FA910AF018F1675E700E51570EB
:1005CA000AAF16A807A61405168003751500E5E6F6
:1005DA005402FF7E00EF4E60F585E7141511AF1146
:0905EA00EF70D7AF16A807A614A4
:0905F3000206DDE51364017050FD
:1005FC00AB0EAA0FA910AE02AF018E168F1775E7BE
:10060C0000E5157015AE16AF178F828E83E514F0CA
:10061C000517E517700205168003751500E5E654FD
:10062C0002FF7E00EF4E60F585E7141511AF11EF58
:0D063C0070CCAE16AF178F828E83E514F0E0
:090649000206DDE51364FE703DBC
:10065200AB0EAA0FA910AF018F1675E700E5157052
:100662000BAF16A807E514F205168003751500E511
:10067200E65402FF7E00EF4E60F585E7141511AFD8
:0B06820011EF70D6AF16A807E514F2C8
:02068D00804E9D
:10068F00AB0EAA0FA9108B168A17891875E700E50C
:10069F00157018AB16AA17A918E514120BD7740109
:1006AF002518F518E43517F5178003751500E5E6DD
:1006BF005402FF7E00EF4E60F585E7141511AF1160
:0E06CF00EF70C9AB16AA17A918E514120BD7C5
:1006DD00D2E9AF0D7E00EF7F00FEAD127C00EE4C37
:0406ED00FEEF4DFFD0
:0106F10022E6
:08081F008F208B218A2289231E
:0C082700852125C2E98520E7E525702F1A
:10083300AB21AA22A923AF018F28AF28A807E6FF7F
:100843008F260528E5E65402FF7E00EF4E60F5850E
:0C085300E7278526E71524AF24EF70DEB0
:09085F00020913E5256401703C57
:10086800AB21AA22A923AE02AF018E288F29AE2878
:10087800AF298F828E83E0FF8F260529E529700234
:100888000528E5E65402FF7E00EF4E60F585E72770
:0A0898008526E71524AF24EF70D485
:0808A200806FE52564FE702E55
:1008AA00AB21AA22A923AF018F28AF28A807E2FF0C
:1008BA008F260528E5E65402FF7E00EF4E60F58597
:0C08CA00E7278526E71524AF24EF70DE39
:0208D600803B65
:1008D800AB21AA22A9238B288A29892AAB28AA29ED
:1008E800A92A120B91FF8F267401252AF52AE435CF
:1008F80029F529E5E65402FF7E00EF4E60F585E70D
:0B090800278526E71524AF24EF70D1EF
:10091300E5E65402FF7E00EF4E60F585E727D2E956
:0109230022B1
:03000000020A856C
:0C0A8500787FE4F6D8FD7581B7020ACC3A
:100B9100BB010689828A83E0225002E722BBFE0262
:090BA100E32289828A83E4932295
:100BAA00BB010CE58229F582E5833AF583E0225000
:100BBA0006E92582F8E622BBFE06E92582F8E2224A
:0D0BCA00E58229F582E5833AF583E4932264
:100BD700BB010689828A83F0225002F722BBFE01FD
:020BE700F322F7
:100BE900D083D082F8E4937012740193700DA3A39B
:100BF90093F8740193F5828883E4737402936860AF
:060C0900EFA3A3A380DFAE
:100A9100020CDFE493A3F8E493A34003F68001F290
:100AA10008DFF48029E493A3F85407240CC8C33366
:100AB100C4540F4420C8834004F456800146F6DF35
:100AC100E4800B01020408102040809012B4E47EFF
:100AD100019360BCA3FF543F30E509541FFEE4932A
:100AE100A360010ECF54C025E060A840B8E493A3F1
:100AF100FAE493A3F8E493A3C8C582C8CAC583CA1C
:100B0100F0A3C8C582C8CAC583CADFE9DEE780BED3
:0112CC000021
:00000001FF
