:1011DB0045037AE7E7E7E7E74103A00041039F00F8
:0811EB004103CF004103CE00D7
:0713E0007593F67594FF22DE
:0E133700758901758C97758AD6D2A9D28C2241
:0613E7007F0212125122E8
:100DA400D2EA7FFF120B267D007F0012090D7F011E
:100DB4001210FD7F3212118C7F02120E247F031257
:100DC40000267F02120E957B017A03797A7F001246
:100DD4000D0D7D0A7F001213197F0112111BD2B968
:050DE400D2AFD2E822AD
:10029F009003DAE4F09003DBE4F0751DFF9003A206
:1002AF00E0FFEF641E600302046C9003D97401F049
:1002BF00751C00E51CC3943C40030203A2AF1C75E0
:1002CF00F00BEFA424E6F582E5F03400F583E0FFB0
:1002DF00EF7003020395AF1C75F00BEFA424E7F545
:1002EF0082E5F03400F583E0FF9003A3E0FEEF6EAC
:1002FF007057AF1C75F00BEFA424E8F582E5F034CE
:10030F0000F583E0FF9003A4E0FEEF6E703BAF1C9F
:10031F0075F00BEFA424E6F582E5F03400F583E0E9
:10032F00FFEFC3940150079003D9E4F08065AF1C31
:10033F0075F00BEFA424E6F582E5F03400F5837435
:10034F0001F09003D9E4F0804AAF1C75F00BEFA4D5
:10035F0024E6F582E5F03400F583E0FF9003DAE060
:10036F00FEEFD39E4028AF1C75F00BEFA424E6F5EB
:10037F0082E5F03400F583E0FF9003DAEFF09003AD
:10038F00DBE51CF08008E51DB4FF03851C1D051C73
:10039F000202C29003D97401F09003D9E0FFEF6419
:1003AF0001600302046CE51DC3943C5050751C00A2
:1003BF00E51CC394085031AF1C74A32FF582E434AD
:1003CF0003F583E0FFAE1CAD1D75F00BEDA424E724
:1003DF00F582E5F03400F583E5822EF582E435836E
:1003EF00F583EFF0051C80C8AF1D75F00BEFA4244B
:1003FF00E6F582E5F03400F5837401F0229003DB1B
:10040F00E0FFEFC3943C5055751C00E51CC39408E6
:10041F005034AF1C74A32FF582E43403F583E0FF4F
:10042F00AE1C9003DBE0FD75F00BEDA424E7F58225
:10043F00E5F03400F583E5822EF582E43583F5830C
:10044F00EFF0051C80C59003DBE0FF75F00BEFA408
:0D045F0024E6F582E5F03400F5837401F029
:01046C00226D
:0B137B008F6C856C993099FDC299229F
:101016008B4C8A4D894EAB4CAA4DA94E120AA8FF9D
:10102600EF6017AB4C054EE54EAA4D7002054D1408
:0B103600F9120AA8FF12137B80DC22D5
:10004E009003DBE4F09003A0E4F09003D9E4F09089
:10005E0003D9E0FFEFC3943C506D9003D9E0FF75D8
:10006E00F00BEFA424E6F582E5F03400F583E0FF13
:10007E00EFD3940140499003D9E0FF75F00BEFA444
:10008E0024E6F582E5F03400F583E004F09003D920
:10009E00E0FF75F00BEFA424E6F582E5F03400F5F1
:1000AE0083E0FFEFC3940140169003D9E0FF75F093
:1000BE000BEFA424E6F582E5F03400F583E4F0902E
:1000CE0003D9E004F080889000007433F0900001B2
:1000DE0074CCF09000027401F09000037401F09063
:1000EE0003D9E4F09003D9E0FFEFC3943C40030240
:1000FE0001BD9003D9E0FF75F00BEFA424E6F58265
:10010E00E5F03400F583E0FFEF640160030201B413
:10011E009003DAE4F09003DAE0FFEFC3940850594D
:10012E009003DAE0FF9003D9E0FE75F00BEEA42405
:10013E00E7F582E5F03400F583E5822FF582E435AC
:10014E0083F583E0FF9003DAE0FE9003DBE0FD75BC
:10015E00F008EDA4F58285F083E5822EF582E43574
:10016E0083F583E5822408F582E5833400F583EF79
:10017E00F09003DAE004F0809C9003D9E0FF75F074
:10018E000BEFA424E6F582E5F03400F5837402F05B
:10019E009003DBE004F09003A07401F09003DBE029
:1001AE00FFEF641460099003D9E004F00200F290AE
:1001BE0003CEE004F09003CEE0FFEFB4FF06900311
:1001CE00CE7401F09003DBE0FFEF75F008A4FFEFB3
:1001DE002406FF900004EFF09003CEE0FF900005A0
:1001EE00EFF09000067420F09003DBE0FF90000724
:1001FE00EFF09003DCE4F09003D9E4F0900004E01B
:10020E00FF9003D9E0FEEEC39F501F9003D9E0FF8D
:10021E0074022FF582E43400F583E0FF9003DCE0F6
:10022E002FF09003D9E004F080D29003DCE0FF7E43
:10023E0000C3E49FFF74019EFE7E00900004E0FE6A
:10024E0074022EF582E43400F583EFF09003D9E4C6
:10025E00F0900004E0FF7E00EF2403FFEE3400FE7A
:10026E009003D9E0FD7C00C3ED9FEE6480F8EC6452
:10027E008098501C9003D9E0FF74002FF582E4346F
:10028E0000F583E0FF12106C9003D9E004F080C1FA
:01029E00223D
:100B96001213E01213E7120DA47F07120C001212B3
:100BA600DAEFB402F9121337751B00E51BC3943C48
:100BB6005017AF1B75F00BEFA424E6F582E5F03471
:100BC60000F583E4F0051B80E25393BFC286E5542B
:100BD600B40116B280D2867F327E00120EFEC28625
:100BE60075540012029F12004E9003CFE0FFEFB43F
:090BF60001DC9003CFE4F080D58E
:010BFF0022D3
:03004B00020609A1
:10060900C0E0C0F0C083C082C0D075D000C000C0B7
:0D06190001C002C003C004C005C006C00738
:1006260012130A8F08E50820E60302070B12139A35
:10063600EF600302070B7B017A03797F1212A68E05
:10064600528F537E00AF53EF640A4E6003020705D4
:10065600900380E0FF7E0090037FE0FD7C00ED2F9D
:10066600FFEC3EFE900381E0FD7C00EF2DFFEE3CAB
:10067600FE900382E0FD7C00EF2DFFEE3CFE900332
:1006860083E0FD7C00EF2DFFEE3CFE900384E0FD51
:100696007C00EF2DFFEE3CFE900385E0FD7C00EF35
:1006A6002DFFEE3CFE900386E0FD7C00EF2DFFEE75
:1006B6003CFE900387E0FD7C00EF2DFFEE3CFE90B4
:1006C6000388E0FD7C00EF2DFFEE3CFE7E00EF4E42
:1006D600702D750900E509C394095020AF09747F90
:1006E6002FF582E43403F583E0FFAE0974A22EF5FC
:1006F60082E43403F583EFF0050980D975540112BD
:1007060013CC020633E50830E5031213D6E50830AC
:05071600E4031213D6FC
:10071B00D007D006D005D004D003D002D001D00032
:0B072B00D0D0D082D083D0F0D0E032DC
:060D5D008B4F8A50895102
:100D63009003DEE4F09003DDE4F09003DDE0FFEFB9
:100D7300C394065022AB4FAA50A9519003DDE0FF64
:100D83008F82758300120AC1FF9003DEE02FF0907B
:100D930003DDE004F080D39003DEE0FFEFF404FF13
:010DA300222D
:03000B00020E5D85
:100E5D00C0E0C083C082C0D075D000C007758C972C
:100E6D00758AD690039FE004F090039FE0FFEFB4E6
:100E7D00320B90039FE4F09003CF7401F0D007D0B4
:080E8D00D0D082D083D0E03206
:1011A7008E1E8F1F0000000000E51F151F7002151F
:0A11B7001E14FFAE1EEF4E70EB2277
:100EFE008E1C8F1D7FFA7E001211A77FFA7E0012C4
:100F0E0011A77FFA7E001211A77FFA7E001211A799
:100F1E00E51D151D7002151C14FFAE1CEF4E70D48E
:010F2E0022A0
:10000E008F6DE56D600BE5A34480FFEF54F7F5A30C
:05001E002253A377222C
:1011F4008F6EE56E5401FFEFC4333354C0FFE5A393
:0812040054B7FEEF4EF5A322E2
:101251008F1CE51C5403FFEFC454F0FFE5A354C7F2
:06126100FEEF4EF5A32292
:0F12DA00E5AD30E305751C028003751C01AF1CE8
:0112E90022E2
:1012B8008F6FE56F5407FFE5A354F0FEEE4FF5A3DB
:0112C8002203
:0613ED00E5AD5480FF2273
:0613F300E5AD5440FF22AD
:1012C9008F70E5705407FFE5AD54F8FEEE4FF5ADAC
:0112D90022F2
:0D1361008F1A851AE7E5E630E1FBAFE722C1
:03002300020CB913
:100CB900C0E0C0D075D000C000C00730981CC298F1
:100CC900E52CC394205013AF3074742FF8A699E51E
:100CD9003004FFEF541FF530052C30991EC299E5F9
:100CE9002DD394014013AF2F74942FF8E6FF8F99F9
:100CF900E52F04FFEF541FF52F152DD007D000D095
:040D0900D0D0E03234
:020C00008F1C47
:100C0200C2AC752F00753100752D00752E00753040
:100C120000752C00D29CC29FD29E43878043D8800D
:100C2200E51C120B000C47040C4F050C3F060C3759
:100C32000700000C4F751D03751EF78016751D0306
:100C4200751EF3800E751D03751ECC8006751D037F
:0D0C5200751EE6851EAAE51DFF7E008FBA07
:010C5F002272
:10106C008F2BE52DD3942050F9C2ACE52D7005855E
:10107C002B998011AF3174942FF8A62BE53104FF16
:0A108C00EF541FF531052DD2AC2200
:03140B00AF2C22E1
:0A138600E52D70037F01227F002295
:1010BE00E52C60FCC2ACAF2E74742FF8E6FF8F7176
:0F10CE00E52E04FFEF541FF52E152CD2ACAF7199
:0110DD0022F0
:101267008E588F59AF59EF54FFF5AFAE587F00EE48
:06127700FF7E008FAF2294
:0C136E0085AF5B85AF5A855BAF855AAF39
:01137A002250
:0210FD008F1C46
:1010FF007F001210418F1DE51CB40105431D0180B7
:0B110F0003531DFEAD1D7F00120F5F9B
:01111A0022B2
:02111B008F1C27
:10111D007F001210418F1DE51CB40105431D028097
:0B112D0003531DFDAD1D7F00120F5F7E
:011138002294
:020E95008F1CB0
:100E97007F001210418F1DE51C120B000EB0000ED3
:100EA700B5010EBD0200000EC3531DF7800E431D92
:100EB70008531DFB8006431D08431D04AD1D7F001D
:030EC700120F5FA8
:010ECA002205
:040A28008F558D5603
:100A2C007F001210418F57E555120B000A45040A3E
:100A3C0063050A820600000AA0E55660047F008068
:100A4C00027F01EF5401FFEFC454F0FFE55754EF60
:100A5C00FEEE4FF557803DE55660047F0080027F27
:100A6C0001EF5401FFEFC43354E0FFE55754DFFEB0
:100A7C00EE4FF557801EE55660047F0080027F0123
:100A8C00EF5401FFEFC4333354C0FFE55754BFFE9E
:0B0A9C00EE4FF557AD577F00120F5FC3
:010AA700222C
:0E130A007D707F07120F5F8F0AE50A5470FF97
:0113180022B2
:101171007D707F07120F5FEF5470F5727F071210B9
:0A11810041EF540FFFEF4272AF720E
:01118B002241
:10127D008F73AF737401A807088002C333D8FCFDC8
:06128D007F07120F5F2233
:08000300121353EF5470FF22A9
:04090D008F1C8D1D91
:100911007F021210418F1E7F011210418F1FE51CB3
:10092100120B000940000940010940020940030976
:100931004004094005098D06097EFF0000098DAFBD
:100941001C7401A807088002C333D8FCFFEF421EC4
:10095100E51D6013AF1C7401A807088002C333D8DA
:10096100FCFFEF421F8025AF1C7401A8070880021D
:10097100C333D8FCFFEFF4FFEF521F800F751E3F0A
:10098100E51D6005751F3F8003751F00AD1E7F02C9
:0A099100120F5FAD1F7F01120F5F10
:01099B002239
:020B26008F1C22
:100B28007F021210418F1D7F011210418F1EE51C9C
:100B3800120B000B57000B57010B57020B57030BF7
:100B480057040B57050B87060B81FF00000B87AF77
:100B58001C7401A807088002C333D8FCFFEFF4FF18
:100B6800EF521DAF1C7401A807088002C333D8FCDC
:100B7800FFEFF4FFEF521E8006751D00751E00ADD5
:0D0B88001D7F02120F5FAD1E7F01120F5F77
:010B9500223D
:100D0D008F1C8B1D8A1E891FE51C120B000D3600D2
:100D1D000D36010D4A020D4A030D4A040D4A050D0B
:100D2D0036060D5CFF00000D5C1213908F24E51C40
:100D3D00242AFFAB1DAA1EA91F12073622E51C246B
:100D4D000AFFAB1DAA1EA91F120AA8FD120F5F22D2
:100DE9008F3C8B3D8A3E893FE53C120B000E030088
:100DF9000E03010E030600000E0FAB3DAA3EA93FEC
:100E0900AF3C12046D22E53C240AFF121041AB3DB0
:0B0E1900AA3EA93FEF120AEE7F012263
:060ECB008F408C418D42B6
:100ED100E541FF7E00EF540FFFEFC454F0FFE543FF
:100EE100540FFEEE4FF543E540540FFFE54354F038
:0C0EF100FEEE4FF543AD437F04120F5F8F
:010EFD0022D2
:0210DE008F5C25
:1010E000755D00E55C24FEFFEF5403FFE55D54FCF5
:0C10F000FEEE4FF55DAD5D7F03120F5F5B
:0110FC0022D1
:0A1390007F03121041EF2402FF2238
:0F1319008F1C8D1DE51C2411FFAD1D120F5F22CF
:02083B008F32FA
:10083D007F021210418F337F011210418F34E53248
:10084D00120B00086600087501088D0208A903083F
:10085D00C70408E105000008FDE5335401F535E551
:10086D00345401F536020903AF33EFC313FFEF54D0
:10087D0001F535AF34EFC313FFEF5401F536807634
:10088D00AF33EF1313543FFFEF5401F535AF34EF92
:10089D001313543FFFEF5401F536805AAF33EF1366
:1008AD001313541FFFEF5401F535AF34EF1313132A
:1008BD00541FFFEF5401F536803CAF33EFC4540F96
:1008CD00FFEF5401F535AF34EFC4540FFFEF540172
:1008DD00F5368022AF33EFC4135407FFEF5401F503
:1008ED0035AF34EFC4135407FFEF5401F5368006CE
:0F08FD00753500753600E53625E0FFEF2535FF30
:01090C0022C8
:0613F9007F0812104122E2
:101139007F081210417E007E00EF54F0FFEEC4F8E4
:0C11490054F0C868FEEFC4540F48FF22A9
:020C60008F5EA5
:100C6200E55E120B000C7D000C86010C8F020C98C5
:100C7200030CA1040CAA0500000CB37F1112104151
:100C82008F5F80307F121210418F5F80277F131297
:100C920010418F5F801E7F141210418F5F80157F7D
:100CA200151210418F5F800C7F161210418F5F80EA
:060CB20003755F00AF5F57
:010CB8002219
:02118C008F1CB6
:10118E00751D00E51C547FFFE51D5480FEEE4FF5E6
:08119E001DAD1D7F05120F5F5E
:0111A6002226
:020026008F1C2D
:100028007F061210418F1DE51C5403FFEF25E0FFEA
:10003800E51D54F9FEEE4FF51DAD1D7F06120F5F4D
:010048002295
:020E24008F1C21
:100E26007F061210418F1DE51C120B000E47000EA7
:100E36004F010E3F0200000E4F431D20531DF78049
:100E46000E531DDF531DF78006531DDF431D08ADEE
:060E56001D7F06120F5F74
:010E5C002273
:0A139A007F17121041EF5401FF22EB
:0E1345007F17121041EFC313FFEF5401FF2278
:0F1328007F17121041EFC4540FFFEF5401FF2243
:1012EA007F17121041EFC4135407FFEF5401FF2276
:101155007F171210417E007E00EF5430FFEEC4F879
:0C11650054F0C868FEEFC4540F48FF228D
:0A13A4007F17121041EF5403FF22DF
:0613FF007F1712104122CD
:0A13AE007F08121041EF540FFF22D8
:0A13B8007F09121041EF5401FF22DB
:010049002294
:0212FA008F6003
:0D12FC00E560543FF561AD617F1C120F5F8E
:0113090022C1
:020F8F008F626F
:100F91007F1D1210418F63E56260047F0180027F33
:100FA10000EF5401FFEF25E025E0FFE56354FBFE70
:0B0FB100EE4FF563AD637F1D120F5F74
:010FBC002212
:020FEA008F6412
:100FEC007F1D1210418F65E56460047F0180027FD4
:100FFC0000EF5401FFEF25E0FFE56554FDFEEE4FD9
:09100C00F565AD657F1D120F5F53
:0110150022B8
:021096008F6663
:101098007F1D1210418F67E56660047F0180027F23
:1010A80000EF5401FFE56754FEFEEE4FF567AD67AC
:0510B8007F1D120F5F17
:0110BD002210
:10120C008B448A4589468D47AB44AA45A9468547F8
:07121C00247FA01207362217
:101223008B488A49894A8D4BAB48AA49A94A854BC1
:07123300247FB012073622F0
:1011C1008F378B388A39893AE53744A8FFAB38AA7B
:0A11D10039A93A853B2412073622A3
:061405007F60121041227D
:1012A6008B0A8A0B890CAB0AAA0BA90C7F081204BD
:0212B6006D22A7
:101293001213537E007E00EF540EFFEEC313FEEFD6
:0312A30013FF2214
:0A13C200C2E97FE3121361D2E922B1
:10123A001213FF7E007E00EF5440FFEF7806CEC304
:07124A0013CE13D8F9FF22B7
:0A13CC00C2E97FE2121361D2E922A8
:0A13D600C2E97FE1121361D2E9229F
:0D135300C2E97FFF1213618F19D2E9AF19B3
:01136000226A
:020FBD008F683B
:100FBF007F061210418F69E56860047F0180027F10
:100FCF0000EF5401FFEFC454F0FFE56954EFFEEE5C
:0A0FDF004FF569AD697F06120F5F40
:010FE90022E5
:020F2F008F6AC7
:100F31007F061210418F6BE56A60047F0180027F9A
:100F410000EF5401FFEFC43333335480FFE56B549A
:0D0F51007FFEEE4FF56BAD6B7F06120F5F5C
:010F5E002270
:021041008F20FE
:10104300C2E98520E7E5E65402FF7E00EF4E60F536
:1010530085E72175E700E5E65402FF7E00EF4E6069
:08106300F585E721D2E9AF2178
:01106B002262
:040F5F008F208D2131
:100F6300C2E9E5202420F5E7E5E65402FF7E00EF21
:100F73004E60F585E7228521E7E5E65402FF7E0012
:0B0F8300EF4E60F585E723D2E9AF22B6
:010F8E002240
:08046D008F0D8B0E8A0F891020
:10047500751501850E13E50D120B0004900004900F
:100485000104900604A308000004C71213908F11FD
:100495008F12C2E9E50D240AFF121361802A121298
:1004A500938F0DE50DC3940750101214058F118F0E
:1004B50012C2E97F61121361800E75120075110079
:0C04C5008006751200751100E513703CF4
:1004D100AB0EAA0FA910AF018F1675E700E51570D5
:1004E1000AAF16A807A61405168003751500E5E6E0
:1004F1005402FF7E00EF4E60F585E7141511AF1130
:09050100EF70D7AF16A807A6148D
:09050A000205F4E51364017050D0
:10051300AB0EAA0FA910AE02AF018E168F1775E7A7
:1005230000E5157015AE16AF178F828E83E514F0B4
:100533000517E517700205168003751500E5E654E7
:1005430002FF7E00EF4E60F585E7141511AF11EF42
:0D05530070CCAE16AF178F828E83E514F0CA
:090560000205F4E51364FE703D90
:10056900AB0EAA0FA910AF018F1675E700E515703C
:100579000BAF16A807E514F205168003751500E5FB
:10058900E65402FF7E00EF4E60F585E7141511AFC2
:0B05990011EF70D6AF16A807E514F2B2
:0205A400804E87
:1005A600AB0EAA0FA9108B168A17891875E700E5F6
:1005B600157018AB16AA17A918E514120AEE7401DD
:1005C6002518F518E43517F5178003751500E5E6C7
:1005D6005402FF7E00EF4E60F585E7141511AF114A
:0E05E600EF70C9AB16AA17A918E514120AEE99
:1005F400D2E9AF0D7E00EF7F00FEAD127C00EE4C21
:04060400FEEF4DFFB9
:0106080022CF
:080736008F208B218A22892308
:0C073E00852125C2E98520E7E525702F04
:10074A00AB21AA22A923AF018F28AF28A807E6FF69
:10075A008F260528E5E65402FF7E00EF4E60F585F8
:0C076A00E7278526E71524AF24EF70DE9A
:0907760002082AE5256401703C2B
:10077F00AB21AA22A923AE02AF018E288F29AE2862
:10078F00AF298F828E83E0FF8F260529E52970021E
:10079F000528E5E65402FF7E00EF4E60F585E7275A
:0A07AF008526E71524AF24EF70D46F
:0807B900806FE52564FE702E3F
:1007C100AB21AA22A923AF018F28AF28A807E2FFF6
:1007D1008F260528E5E65402FF7E00EF4E60F58581
:0C07E100E7278526E71524AF24EF70DE23
:0207ED00803B4F
:1007EF00AB21AA22A9238B288A29892AAB28AA29D7
:1007FF00A92A120AA8FF8F267401252AF52AE435A3
:10080F0029F529E5E65402FF7E00EF4E60F585E7F6
:0B081F00278526E71524AF24EF70D1D9
:10082A00E5E65402FF7E00EF4E60F585E727D2E940
:01083A00229B
:0300000002099C56
:0C099C00787FE4F6D8FD7581B30209E312
:100AA800BB010689828A83E0225002E722BBFE024C
:090AB800E32289828A83E493227F
:100AC100BB010CE58229F582E5833AF583E02250EA
:100AD10006E92582F8E622BBFE06E92582F8E22234
:0D0AE100E58229F582E5833AF583E493224E
:100AEE00BB010689828A83F0225002F722BBFE01E7
:020AFE00F322E1
:100B0000D083D082F8E4937012740193700DA3A384
:100B100093F8740193F5828883E473740293686098
:060B2000EFA3A3A380DF98
:1009A800020B96E493A3F8E493A34003F68001F2C4
:1009B80008DFF48029E493A3F85407240CC8C33350
:1009C800C4540F4420C8834004F456800146F6DF1F
:1009D800E4800B01020408102040809011DBE47EC3
:1009E800019360BCA3FF543F30E509541FFEE49314
:1009F800A360010ECF54C025E060A840B8E493A3DB
:100A0800FAE493A3F8E493A3C8C582C8CAC583CA05
:100A1800F0A3C8C582C8CAC583CADFE9DEE780BEBD
:0111F30000FB
:00000001FF
